
F446RE_Microshell.elf:     file format elf32-littlearm

Sections:
Idx Name          Size      VMA       LMA       File off  Algn
  0 .isr_vector   000001c4  08000000  08000000  00010000  2**0
                  CONTENTS, ALLOC, LOAD, READONLY, DATA
  1 .text         0000e17c  080001d0  080001d0  000101d0  2**4
                  CONTENTS, ALLOC, LOAD, READONLY, CODE
  2 .rodata       00000ec0  0800e34c  0800e34c  0001e34c  2**2
                  CONTENTS, ALLOC, LOAD, READONLY, DATA
  3 .ARM.extab    00000000  0800f20c  0800f20c  000200b0  2**0
                  CONTENTS
  4 .ARM          00000008  0800f20c  0800f20c  0001f20c  2**2
                  CONTENTS, ALLOC, LOAD, READONLY, DATA
  5 .preinit_array 00000000  0800f214  0800f214  000200b0  2**0
                  CONTENTS, ALLOC, LOAD, DATA
  6 .init_array   00000004  0800f214  0800f214  0001f214  2**2
                  CONTENTS, ALLOC, LOAD, DATA
  7 .fini_array   00000004  0800f218  0800f218  0001f218  2**2
                  CONTENTS, ALLOC, LOAD, DATA
  8 .data         000000b0  20000000  0800f21c  00020000  2**2
                  CONTENTS, ALLOC, LOAD, DATA
  9 .bss          00006840  200000b0  0800f2cc  000200b0  2**2
                  ALLOC
 10 ._user_heap_stack 00000600  200068f0  0800f2cc  000268f0  2**0
                  ALLOC
 11 .ARM.attributes 00000030  00000000  00000000  000200b0  2**0
                  CONTENTS, READONLY
 12 .debug_info   00033296  00000000  00000000  000200e0  2**0
                  CONTENTS, READONLY, DEBUGGING, OCTETS
 13 .debug_abbrev 00007bc8  00000000  00000000  00053376  2**0
                  CONTENTS, READONLY, DEBUGGING, OCTETS
 14 .debug_aranges 00001e28  00000000  00000000  0005af40  2**3
                  CONTENTS, READONLY, DEBUGGING, OCTETS
 15 .debug_ranges 00001a58  00000000  00000000  0005cd68  2**3
                  CONTENTS, READONLY, DEBUGGING, OCTETS
 16 .debug_macro  0002e505  00000000  00000000  0005e7c0  2**0
                  CONTENTS, READONLY, DEBUGGING, OCTETS
 17 .debug_line   000326af  00000000  00000000  0008ccc5  2**0
                  CONTENTS, READONLY, DEBUGGING, OCTETS
 18 .debug_str    000e0719  00000000  00000000  000bf374  2**0
                  CONTENTS, READONLY, DEBUGGING, OCTETS
 19 .comment      00000050  00000000  00000000  0019fa8d  2**0
                  CONTENTS, READONLY
 20 .debug_frame  00007d30  00000000  00000000  0019fae0  2**2
                  CONTENTS, READONLY, DEBUGGING, OCTETS

Disassembly of section .text:

080001d0 <__do_global_dtors_aux>:
 80001d0:	b510      	push	{r4, lr}
 80001d2:	4c05      	ldr	r4, [pc, #20]	; (80001e8 <__do_global_dtors_aux+0x18>)
 80001d4:	7823      	ldrb	r3, [r4, #0]
 80001d6:	b933      	cbnz	r3, 80001e6 <__do_global_dtors_aux+0x16>
 80001d8:	4b04      	ldr	r3, [pc, #16]	; (80001ec <__do_global_dtors_aux+0x1c>)
 80001da:	b113      	cbz	r3, 80001e2 <__do_global_dtors_aux+0x12>
 80001dc:	4804      	ldr	r0, [pc, #16]	; (80001f0 <__do_global_dtors_aux+0x20>)
 80001de:	f3af 8000 	nop.w
 80001e2:	2301      	movs	r3, #1
 80001e4:	7023      	strb	r3, [r4, #0]
 80001e6:	bd10      	pop	{r4, pc}
 80001e8:	200000b0 	.word	0x200000b0
 80001ec:	00000000 	.word	0x00000000
 80001f0:	0800e334 	.word	0x0800e334

080001f4 <frame_dummy>:
 80001f4:	b508      	push	{r3, lr}
 80001f6:	4b03      	ldr	r3, [pc, #12]	; (8000204 <frame_dummy+0x10>)
 80001f8:	b11b      	cbz	r3, 8000202 <frame_dummy+0xe>
 80001fa:	4903      	ldr	r1, [pc, #12]	; (8000208 <frame_dummy+0x14>)
 80001fc:	4803      	ldr	r0, [pc, #12]	; (800020c <frame_dummy+0x18>)
 80001fe:	f3af 8000 	nop.w
 8000202:	bd08      	pop	{r3, pc}
 8000204:	00000000 	.word	0x00000000
 8000208:	200000b4 	.word	0x200000b4
 800020c:	0800e334 	.word	0x0800e334

08000210 <strcmp>:
 8000210:	f810 2b01 	ldrb.w	r2, [r0], #1
 8000214:	f811 3b01 	ldrb.w	r3, [r1], #1
 8000218:	2a01      	cmp	r2, #1
 800021a:	bf28      	it	cs
 800021c:	429a      	cmpcs	r2, r3
 800021e:	d0f7      	beq.n	8000210 <strcmp>
 8000220:	1ad0      	subs	r0, r2, r3
 8000222:	4770      	bx	lr

08000224 <strlen>:
 8000224:	4603      	mov	r3, r0
 8000226:	f813 2b01 	ldrb.w	r2, [r3], #1
 800022a:	2a00      	cmp	r2, #0
 800022c:	d1fb      	bne.n	8000226 <strlen+0x2>
 800022e:	1a18      	subs	r0, r3, r0
 8000230:	3801      	subs	r0, #1
 8000232:	4770      	bx	lr
	...

08000240 <memchr>:
 8000240:	f001 01ff 	and.w	r1, r1, #255	; 0xff
 8000244:	2a10      	cmp	r2, #16
 8000246:	db2b      	blt.n	80002a0 <memchr+0x60>
 8000248:	f010 0f07 	tst.w	r0, #7
 800024c:	d008      	beq.n	8000260 <memchr+0x20>
 800024e:	f810 3b01 	ldrb.w	r3, [r0], #1
 8000252:	3a01      	subs	r2, #1
 8000254:	428b      	cmp	r3, r1
 8000256:	d02d      	beq.n	80002b4 <memchr+0x74>
 8000258:	f010 0f07 	tst.w	r0, #7
 800025c:	b342      	cbz	r2, 80002b0 <memchr+0x70>
 800025e:	d1f6      	bne.n	800024e <memchr+0xe>
 8000260:	b4f0      	push	{r4, r5, r6, r7}
 8000262:	ea41 2101 	orr.w	r1, r1, r1, lsl #8
 8000266:	ea41 4101 	orr.w	r1, r1, r1, lsl #16
 800026a:	f022 0407 	bic.w	r4, r2, #7
 800026e:	f07f 0700 	mvns.w	r7, #0
 8000272:	2300      	movs	r3, #0
 8000274:	e8f0 5602 	ldrd	r5, r6, [r0], #8
 8000278:	3c08      	subs	r4, #8
 800027a:	ea85 0501 	eor.w	r5, r5, r1
 800027e:	ea86 0601 	eor.w	r6, r6, r1
 8000282:	fa85 f547 	uadd8	r5, r5, r7
 8000286:	faa3 f587 	sel	r5, r3, r7
 800028a:	fa86 f647 	uadd8	r6, r6, r7
 800028e:	faa5 f687 	sel	r6, r5, r7
 8000292:	b98e      	cbnz	r6, 80002b8 <memchr+0x78>
 8000294:	d1ee      	bne.n	8000274 <memchr+0x34>
 8000296:	bcf0      	pop	{r4, r5, r6, r7}
 8000298:	f001 01ff 	and.w	r1, r1, #255	; 0xff
 800029c:	f002 0207 	and.w	r2, r2, #7
 80002a0:	b132      	cbz	r2, 80002b0 <memchr+0x70>
 80002a2:	f810 3b01 	ldrb.w	r3, [r0], #1
 80002a6:	3a01      	subs	r2, #1
 80002a8:	ea83 0301 	eor.w	r3, r3, r1
 80002ac:	b113      	cbz	r3, 80002b4 <memchr+0x74>
 80002ae:	d1f8      	bne.n	80002a2 <memchr+0x62>
 80002b0:	2000      	movs	r0, #0
 80002b2:	4770      	bx	lr
 80002b4:	3801      	subs	r0, #1
 80002b6:	4770      	bx	lr
 80002b8:	2d00      	cmp	r5, #0
 80002ba:	bf06      	itte	eq
 80002bc:	4635      	moveq	r5, r6
 80002be:	3803      	subeq	r0, #3
 80002c0:	3807      	subne	r0, #7
 80002c2:	f015 0f01 	tst.w	r5, #1
 80002c6:	d107      	bne.n	80002d8 <memchr+0x98>
 80002c8:	3001      	adds	r0, #1
 80002ca:	f415 7f80 	tst.w	r5, #256	; 0x100
 80002ce:	bf02      	ittt	eq
 80002d0:	3001      	addeq	r0, #1
 80002d2:	f415 3fc0 	tsteq.w	r5, #98304	; 0x18000
 80002d6:	3001      	addeq	r0, #1
 80002d8:	bcf0      	pop	{r4, r5, r6, r7}
 80002da:	3801      	subs	r0, #1
 80002dc:	4770      	bx	lr
 80002de:	bf00      	nop

080002e0 <__aeabi_uldivmod>:
 80002e0:	b953      	cbnz	r3, 80002f8 <__aeabi_uldivmod+0x18>
 80002e2:	b94a      	cbnz	r2, 80002f8 <__aeabi_uldivmod+0x18>
 80002e4:	2900      	cmp	r1, #0
 80002e6:	bf08      	it	eq
 80002e8:	2800      	cmpeq	r0, #0
 80002ea:	bf1c      	itt	ne
 80002ec:	f04f 31ff 	movne.w	r1, #4294967295
 80002f0:	f04f 30ff 	movne.w	r0, #4294967295
 80002f4:	f000 b974 	b.w	80005e0 <__aeabi_idiv0>
 80002f8:	f1ad 0c08 	sub.w	ip, sp, #8
 80002fc:	e96d ce04 	strd	ip, lr, [sp, #-16]!
 8000300:	f000 f806 	bl	8000310 <__udivmoddi4>
 8000304:	f8dd e004 	ldr.w	lr, [sp, #4]
 8000308:	e9dd 2302 	ldrd	r2, r3, [sp, #8]
 800030c:	b004      	add	sp, #16
 800030e:	4770      	bx	lr

08000310 <__udivmoddi4>:
 8000310:	e92d 47f0 	stmdb	sp!, {r4, r5, r6, r7, r8, r9, sl, lr}
 8000314:	9d08      	ldr	r5, [sp, #32]
 8000316:	4604      	mov	r4, r0
 8000318:	468e      	mov	lr, r1
 800031a:	2b00      	cmp	r3, #0
 800031c:	d14d      	bne.n	80003ba <__udivmoddi4+0xaa>
 800031e:	428a      	cmp	r2, r1
 8000320:	4694      	mov	ip, r2
 8000322:	d969      	bls.n	80003f8 <__udivmoddi4+0xe8>
 8000324:	fab2 f282 	clz	r2, r2
 8000328:	b152      	cbz	r2, 8000340 <__udivmoddi4+0x30>
 800032a:	fa01 f302 	lsl.w	r3, r1, r2
 800032e:	f1c2 0120 	rsb	r1, r2, #32
 8000332:	fa20 f101 	lsr.w	r1, r0, r1
 8000336:	fa0c fc02 	lsl.w	ip, ip, r2
 800033a:	ea41 0e03 	orr.w	lr, r1, r3
 800033e:	4094      	lsls	r4, r2
 8000340:	ea4f 481c 	mov.w	r8, ip, lsr #16
 8000344:	0c21      	lsrs	r1, r4, #16
 8000346:	fbbe f6f8 	udiv	r6, lr, r8
 800034a:	fa1f f78c 	uxth.w	r7, ip
 800034e:	fb08 e316 	mls	r3, r8, r6, lr
 8000352:	ea41 4303 	orr.w	r3, r1, r3, lsl #16
 8000356:	fb06 f107 	mul.w	r1, r6, r7
 800035a:	4299      	cmp	r1, r3
 800035c:	d90a      	bls.n	8000374 <__udivmoddi4+0x64>
 800035e:	eb1c 0303 	adds.w	r3, ip, r3
 8000362:	f106 30ff 	add.w	r0, r6, #4294967295
 8000366:	f080 811f 	bcs.w	80005a8 <__udivmoddi4+0x298>
 800036a:	4299      	cmp	r1, r3
 800036c:	f240 811c 	bls.w	80005a8 <__udivmoddi4+0x298>
 8000370:	3e02      	subs	r6, #2
 8000372:	4463      	add	r3, ip
 8000374:	1a5b      	subs	r3, r3, r1
 8000376:	b2a4      	uxth	r4, r4
 8000378:	fbb3 f0f8 	udiv	r0, r3, r8
 800037c:	fb08 3310 	mls	r3, r8, r0, r3
 8000380:	ea44 4403 	orr.w	r4, r4, r3, lsl #16
 8000384:	fb00 f707 	mul.w	r7, r0, r7
 8000388:	42a7      	cmp	r7, r4
 800038a:	d90a      	bls.n	80003a2 <__udivmoddi4+0x92>
 800038c:	eb1c 0404 	adds.w	r4, ip, r4
 8000390:	f100 33ff 	add.w	r3, r0, #4294967295
 8000394:	f080 810a 	bcs.w	80005ac <__udivmoddi4+0x29c>
 8000398:	42a7      	cmp	r7, r4
 800039a:	f240 8107 	bls.w	80005ac <__udivmoddi4+0x29c>
 800039e:	4464      	add	r4, ip
 80003a0:	3802      	subs	r0, #2
 80003a2:	ea40 4006 	orr.w	r0, r0, r6, lsl #16
 80003a6:	1be4      	subs	r4, r4, r7
 80003a8:	2600      	movs	r6, #0
 80003aa:	b11d      	cbz	r5, 80003b4 <__udivmoddi4+0xa4>
 80003ac:	40d4      	lsrs	r4, r2
 80003ae:	2300      	movs	r3, #0
 80003b0:	e9c5 4300 	strd	r4, r3, [r5]
 80003b4:	4631      	mov	r1, r6
 80003b6:	e8bd 87f0 	ldmia.w	sp!, {r4, r5, r6, r7, r8, r9, sl, pc}
 80003ba:	428b      	cmp	r3, r1
 80003bc:	d909      	bls.n	80003d2 <__udivmoddi4+0xc2>
 80003be:	2d00      	cmp	r5, #0
 80003c0:	f000 80ef 	beq.w	80005a2 <__udivmoddi4+0x292>
 80003c4:	2600      	movs	r6, #0
 80003c6:	e9c5 0100 	strd	r0, r1, [r5]
 80003ca:	4630      	mov	r0, r6
 80003cc:	4631      	mov	r1, r6
 80003ce:	e8bd 87f0 	ldmia.w	sp!, {r4, r5, r6, r7, r8, r9, sl, pc}
 80003d2:	fab3 f683 	clz	r6, r3
 80003d6:	2e00      	cmp	r6, #0
 80003d8:	d14a      	bne.n	8000470 <__udivmoddi4+0x160>
 80003da:	428b      	cmp	r3, r1
 80003dc:	d302      	bcc.n	80003e4 <__udivmoddi4+0xd4>
 80003de:	4282      	cmp	r2, r0
 80003e0:	f200 80f9 	bhi.w	80005d6 <__udivmoddi4+0x2c6>
 80003e4:	1a84      	subs	r4, r0, r2
 80003e6:	eb61 0303 	sbc.w	r3, r1, r3
 80003ea:	2001      	movs	r0, #1
 80003ec:	469e      	mov	lr, r3
 80003ee:	2d00      	cmp	r5, #0
 80003f0:	d0e0      	beq.n	80003b4 <__udivmoddi4+0xa4>
 80003f2:	e9c5 4e00 	strd	r4, lr, [r5]
 80003f6:	e7dd      	b.n	80003b4 <__udivmoddi4+0xa4>
 80003f8:	b902      	cbnz	r2, 80003fc <__udivmoddi4+0xec>
 80003fa:	deff      	udf	#255	; 0xff
 80003fc:	fab2 f282 	clz	r2, r2
 8000400:	2a00      	cmp	r2, #0
 8000402:	f040 8092 	bne.w	800052a <__udivmoddi4+0x21a>
 8000406:	eba1 010c 	sub.w	r1, r1, ip
 800040a:	ea4f 471c 	mov.w	r7, ip, lsr #16
 800040e:	fa1f fe8c 	uxth.w	lr, ip
 8000412:	2601      	movs	r6, #1
 8000414:	0c20      	lsrs	r0, r4, #16
 8000416:	fbb1 f3f7 	udiv	r3, r1, r7
 800041a:	fb07 1113 	mls	r1, r7, r3, r1
 800041e:	ea40 4101 	orr.w	r1, r0, r1, lsl #16
 8000422:	fb0e f003 	mul.w	r0, lr, r3
 8000426:	4288      	cmp	r0, r1
 8000428:	d908      	bls.n	800043c <__udivmoddi4+0x12c>
 800042a:	eb1c 0101 	adds.w	r1, ip, r1
 800042e:	f103 38ff 	add.w	r8, r3, #4294967295
 8000432:	d202      	bcs.n	800043a <__udivmoddi4+0x12a>
 8000434:	4288      	cmp	r0, r1
 8000436:	f200 80cb 	bhi.w	80005d0 <__udivmoddi4+0x2c0>
 800043a:	4643      	mov	r3, r8
 800043c:	1a09      	subs	r1, r1, r0
 800043e:	b2a4      	uxth	r4, r4
 8000440:	fbb1 f0f7 	udiv	r0, r1, r7
 8000444:	fb07 1110 	mls	r1, r7, r0, r1
 8000448:	ea44 4401 	orr.w	r4, r4, r1, lsl #16
 800044c:	fb0e fe00 	mul.w	lr, lr, r0
 8000450:	45a6      	cmp	lr, r4
 8000452:	d908      	bls.n	8000466 <__udivmoddi4+0x156>
 8000454:	eb1c 0404 	adds.w	r4, ip, r4
 8000458:	f100 31ff 	add.w	r1, r0, #4294967295
 800045c:	d202      	bcs.n	8000464 <__udivmoddi4+0x154>
 800045e:	45a6      	cmp	lr, r4
 8000460:	f200 80bb 	bhi.w	80005da <__udivmoddi4+0x2ca>
 8000464:	4608      	mov	r0, r1
 8000466:	eba4 040e 	sub.w	r4, r4, lr
 800046a:	ea40 4003 	orr.w	r0, r0, r3, lsl #16
 800046e:	e79c      	b.n	80003aa <__udivmoddi4+0x9a>
 8000470:	f1c6 0720 	rsb	r7, r6, #32
 8000474:	40b3      	lsls	r3, r6
 8000476:	fa22 fc07 	lsr.w	ip, r2, r7
 800047a:	ea4c 0c03 	orr.w	ip, ip, r3
 800047e:	fa20 f407 	lsr.w	r4, r0, r7
 8000482:	fa01 f306 	lsl.w	r3, r1, r6
 8000486:	431c      	orrs	r4, r3
 8000488:	40f9      	lsrs	r1, r7
 800048a:	ea4f 491c 	mov.w	r9, ip, lsr #16
 800048e:	fa00 f306 	lsl.w	r3, r0, r6
 8000492:	fbb1 f8f9 	udiv	r8, r1, r9
 8000496:	0c20      	lsrs	r0, r4, #16
 8000498:	fa1f fe8c 	uxth.w	lr, ip
 800049c:	fb09 1118 	mls	r1, r9, r8, r1
 80004a0:	ea40 4101 	orr.w	r1, r0, r1, lsl #16
 80004a4:	fb08 f00e 	mul.w	r0, r8, lr
 80004a8:	4288      	cmp	r0, r1
 80004aa:	fa02 f206 	lsl.w	r2, r2, r6
 80004ae:	d90b      	bls.n	80004c8 <__udivmoddi4+0x1b8>
 80004b0:	eb1c 0101 	adds.w	r1, ip, r1
 80004b4:	f108 3aff 	add.w	sl, r8, #4294967295
 80004b8:	f080 8088 	bcs.w	80005cc <__udivmoddi4+0x2bc>
 80004bc:	4288      	cmp	r0, r1
 80004be:	f240 8085 	bls.w	80005cc <__udivmoddi4+0x2bc>
 80004c2:	f1a8 0802 	sub.w	r8, r8, #2
 80004c6:	4461      	add	r1, ip
 80004c8:	1a09      	subs	r1, r1, r0
 80004ca:	b2a4      	uxth	r4, r4
 80004cc:	fbb1 f0f9 	udiv	r0, r1, r9
 80004d0:	fb09 1110 	mls	r1, r9, r0, r1
 80004d4:	ea44 4101 	orr.w	r1, r4, r1, lsl #16
 80004d8:	fb00 fe0e 	mul.w	lr, r0, lr
 80004dc:	458e      	cmp	lr, r1
 80004de:	d908      	bls.n	80004f2 <__udivmoddi4+0x1e2>
 80004e0:	eb1c 0101 	adds.w	r1, ip, r1
 80004e4:	f100 34ff 	add.w	r4, r0, #4294967295
 80004e8:	d26c      	bcs.n	80005c4 <__udivmoddi4+0x2b4>
 80004ea:	458e      	cmp	lr, r1
 80004ec:	d96a      	bls.n	80005c4 <__udivmoddi4+0x2b4>
 80004ee:	3802      	subs	r0, #2
 80004f0:	4461      	add	r1, ip
 80004f2:	ea40 4008 	orr.w	r0, r0, r8, lsl #16
 80004f6:	fba0 9402 	umull	r9, r4, r0, r2
 80004fa:	eba1 010e 	sub.w	r1, r1, lr
 80004fe:	42a1      	cmp	r1, r4
 8000500:	46c8      	mov	r8, r9
 8000502:	46a6      	mov	lr, r4
 8000504:	d356      	bcc.n	80005b4 <__udivmoddi4+0x2a4>
 8000506:	d053      	beq.n	80005b0 <__udivmoddi4+0x2a0>
 8000508:	b15d      	cbz	r5, 8000522 <__udivmoddi4+0x212>
 800050a:	ebb3 0208 	subs.w	r2, r3, r8
 800050e:	eb61 010e 	sbc.w	r1, r1, lr
 8000512:	fa01 f707 	lsl.w	r7, r1, r7
 8000516:	fa22 f306 	lsr.w	r3, r2, r6
 800051a:	40f1      	lsrs	r1, r6
 800051c:	431f      	orrs	r7, r3
 800051e:	e9c5 7100 	strd	r7, r1, [r5]
 8000522:	2600      	movs	r6, #0
 8000524:	4631      	mov	r1, r6
 8000526:	e8bd 87f0 	ldmia.w	sp!, {r4, r5, r6, r7, r8, r9, sl, pc}
 800052a:	f1c2 0320 	rsb	r3, r2, #32
 800052e:	40d8      	lsrs	r0, r3
 8000530:	fa0c fc02 	lsl.w	ip, ip, r2
 8000534:	fa21 f303 	lsr.w	r3, r1, r3
 8000538:	4091      	lsls	r1, r2
 800053a:	4301      	orrs	r1, r0
 800053c:	ea4f 471c 	mov.w	r7, ip, lsr #16
 8000540:	fa1f fe8c 	uxth.w	lr, ip
 8000544:	fbb3 f0f7 	udiv	r0, r3, r7
 8000548:	fb07 3610 	mls	r6, r7, r0, r3
 800054c:	0c0b      	lsrs	r3, r1, #16
 800054e:	ea43 4306 	orr.w	r3, r3, r6, lsl #16
 8000552:	fb00 f60e 	mul.w	r6, r0, lr
 8000556:	429e      	cmp	r6, r3
 8000558:	fa04 f402 	lsl.w	r4, r4, r2
 800055c:	d908      	bls.n	8000570 <__udivmoddi4+0x260>
 800055e:	eb1c 0303 	adds.w	r3, ip, r3
 8000562:	f100 38ff 	add.w	r8, r0, #4294967295
 8000566:	d22f      	bcs.n	80005c8 <__udivmoddi4+0x2b8>
 8000568:	429e      	cmp	r6, r3
 800056a:	d92d      	bls.n	80005c8 <__udivmoddi4+0x2b8>
 800056c:	3802      	subs	r0, #2
 800056e:	4463      	add	r3, ip
 8000570:	1b9b      	subs	r3, r3, r6
 8000572:	b289      	uxth	r1, r1
 8000574:	fbb3 f6f7 	udiv	r6, r3, r7
 8000578:	fb07 3316 	mls	r3, r7, r6, r3
 800057c:	ea41 4103 	orr.w	r1, r1, r3, lsl #16
 8000580:	fb06 f30e 	mul.w	r3, r6, lr
 8000584:	428b      	cmp	r3, r1
 8000586:	d908      	bls.n	800059a <__udivmoddi4+0x28a>
 8000588:	eb1c 0101 	adds.w	r1, ip, r1
 800058c:	f106 38ff 	add.w	r8, r6, #4294967295
 8000590:	d216      	bcs.n	80005c0 <__udivmoddi4+0x2b0>
 8000592:	428b      	cmp	r3, r1
 8000594:	d914      	bls.n	80005c0 <__udivmoddi4+0x2b0>
 8000596:	3e02      	subs	r6, #2
 8000598:	4461      	add	r1, ip
 800059a:	1ac9      	subs	r1, r1, r3
 800059c:	ea46 4600 	orr.w	r6, r6, r0, lsl #16
 80005a0:	e738      	b.n	8000414 <__udivmoddi4+0x104>
 80005a2:	462e      	mov	r6, r5
 80005a4:	4628      	mov	r0, r5
 80005a6:	e705      	b.n	80003b4 <__udivmoddi4+0xa4>
 80005a8:	4606      	mov	r6, r0
 80005aa:	e6e3      	b.n	8000374 <__udivmoddi4+0x64>
 80005ac:	4618      	mov	r0, r3
 80005ae:	e6f8      	b.n	80003a2 <__udivmoddi4+0x92>
 80005b0:	454b      	cmp	r3, r9
 80005b2:	d2a9      	bcs.n	8000508 <__udivmoddi4+0x1f8>
 80005b4:	ebb9 0802 	subs.w	r8, r9, r2
 80005b8:	eb64 0e0c 	sbc.w	lr, r4, ip
 80005bc:	3801      	subs	r0, #1
 80005be:	e7a3      	b.n	8000508 <__udivmoddi4+0x1f8>
 80005c0:	4646      	mov	r6, r8
 80005c2:	e7ea      	b.n	800059a <__udivmoddi4+0x28a>
 80005c4:	4620      	mov	r0, r4
 80005c6:	e794      	b.n	80004f2 <__udivmoddi4+0x1e2>
 80005c8:	4640      	mov	r0, r8
 80005ca:	e7d1      	b.n	8000570 <__udivmoddi4+0x260>
 80005cc:	46d0      	mov	r8, sl
 80005ce:	e77b      	b.n	80004c8 <__udivmoddi4+0x1b8>
 80005d0:	3b02      	subs	r3, #2
 80005d2:	4461      	add	r1, ip
 80005d4:	e732      	b.n	800043c <__udivmoddi4+0x12c>
 80005d6:	4630      	mov	r0, r6
 80005d8:	e709      	b.n	80003ee <__udivmoddi4+0xde>
 80005da:	4464      	add	r4, ip
 80005dc:	3802      	subs	r0, #2
 80005de:	e742      	b.n	8000466 <__udivmoddi4+0x156>

080005e0 <__aeabi_idiv0>:
 80005e0:	4770      	bx	lr
 80005e2:	bf00      	nop

080005e4 <SD_mount>:
UINT cnt = sizeof buff;
FRESULT res;
UINT br, bw; /* File read/write count */
TCHAR ptr[256];
int SD_mount()
{
 80005e4:	b580      	push	{r7, lr}
 80005e6:	af00      	add	r7, sp, #0
	if ((res = f_mount(&FatFs, "", 1)) != FR_OK)
 80005e8:	2201      	movs	r2, #1
 80005ea:	490a      	ldr	r1, [pc, #40]	; (8000614 <SD_mount+0x30>)
 80005ec:	480a      	ldr	r0, [pc, #40]	; (8000618 <SD_mount+0x34>)
 80005ee:	f008 fa5b 	bl	8008aa8 <f_mount>
 80005f2:	4603      	mov	r3, r0
 80005f4:	461a      	mov	r2, r3
 80005f6:	4b09      	ldr	r3, [pc, #36]	; (800061c <SD_mount+0x38>)
 80005f8:	701a      	strb	r2, [r3, #0]
 80005fa:	4b08      	ldr	r3, [pc, #32]	; (800061c <SD_mount+0x38>)
 80005fc:	781b      	ldrb	r3, [r3, #0]
 80005fe:	2b00      	cmp	r3, #0
 8000600:	d004      	beq.n	800060c <SD_mount+0x28>
	{
		printf("mount error !\r\n");
 8000602:	4807      	ldr	r0, [pc, #28]	; (8000620 <SD_mount+0x3c>)
 8000604:	f00d fad2 	bl	800dbac <puts>
		return 1;
 8000608:	2301      	movs	r3, #1
 800060a:	e000      	b.n	800060e <SD_mount+0x2a>
	}
		return 0;
 800060c:	2300      	movs	r3, #0
}
 800060e:	4618      	mov	r0, r3
 8000610:	bd80      	pop	{r7, pc}
 8000612:	bf00      	nop
 8000614:	0800e34c 	.word	0x0800e34c
 8000618:	20001100 	.word	0x20001100
 800061c:	200010fc 	.word	0x200010fc
 8000620:	0800e350 	.word	0x0800e350

08000624 <get_current_dir>:
//	}
//
//	return res;
//}
void get_current_dir(struct ush_object *self)
{
 8000624:	b580      	push	{r7, lr}
 8000626:	b082      	sub	sp, #8
 8000628:	af00      	add	r7, sp, #0
 800062a:	6078      	str	r0, [r7, #4]
	res = f_getcwd(ptr, 256);
 800062c:	f44f 7180 	mov.w	r1, #256	; 0x100
 8000630:	4806      	ldr	r0, [pc, #24]	; (800064c <get_current_dir+0x28>)
 8000632:	f009 f8cd 	bl	80097d0 <f_getcwd>
 8000636:	4603      	mov	r3, r0
 8000638:	461a      	mov	r2, r3
 800063a:	4b05      	ldr	r3, [pc, #20]	; (8000650 <get_current_dir+0x2c>)
 800063c:	701a      	strb	r2, [r3, #0]
	self->curr_dir = ptr;
 800063e:	687b      	ldr	r3, [r7, #4]
 8000640:	4a02      	ldr	r2, [pc, #8]	; (800064c <get_current_dir+0x28>)
 8000642:	649a      	str	r2, [r3, #72]	; 0x48
	return;
 8000644:	bf00      	nop
}
 8000646:	3708      	adds	r7, #8
 8000648:	46bd      	mov	sp, r7
 800064a:	bd80      	pop	{r7, pc}
 800064c:	20002344 	.word	0x20002344
 8000650:	200010fc 	.word	0x200010fc

08000654 <create_file>:
void create_file(char *path)
{
 8000654:	b580      	push	{r7, lr}
 8000656:	b082      	sub	sp, #8
 8000658:	af00      	add	r7, sp, #0
 800065a:	6078      	str	r0, [r7, #4]
	if ((res = f_open(&fil, path, FA_OPEN_ALWAYS | FA_WRITE | FA_READ)) != FR_OK)
 800065c:	2213      	movs	r2, #19
 800065e:	6879      	ldr	r1, [r7, #4]
 8000660:	4810      	ldr	r0, [pc, #64]	; (80006a4 <create_file+0x50>)
 8000662:	f008 fa85 	bl	8008b70 <f_open>
 8000666:	4603      	mov	r3, r0
 8000668:	461a      	mov	r2, r3
 800066a:	4b0f      	ldr	r3, [pc, #60]	; (80006a8 <create_file+0x54>)
 800066c:	701a      	strb	r2, [r3, #0]
 800066e:	4b0e      	ldr	r3, [pc, #56]	; (80006a8 <create_file+0x54>)
 8000670:	781b      	ldrb	r3, [r3, #0]
 8000672:	2b00      	cmp	r3, #0
 8000674:	d003      	beq.n	800067e <create_file+0x2a>
	{
		printf("touch command error !\r\n ");
 8000676:	480d      	ldr	r0, [pc, #52]	; (80006ac <create_file+0x58>)
 8000678:	f00d fa12 	bl	800daa0 <iprintf>
		return;
 800067c:	e00e      	b.n	800069c <create_file+0x48>
	}
	if ((res = f_close(&fil)) != FR_OK)
 800067e:	4809      	ldr	r0, [pc, #36]	; (80006a4 <create_file+0x50>)
 8000680:	f009 f826 	bl	80096d0 <f_close>
 8000684:	4603      	mov	r3, r0
 8000686:	461a      	mov	r2, r3
 8000688:	4b07      	ldr	r3, [pc, #28]	; (80006a8 <create_file+0x54>)
 800068a:	701a      	strb	r2, [r3, #0]
 800068c:	4b06      	ldr	r3, [pc, #24]	; (80006a8 <create_file+0x54>)
 800068e:	781b      	ldrb	r3, [r3, #0]
 8000690:	2b00      	cmp	r3, #0
 8000692:	d003      	beq.n	800069c <create_file+0x48>
	{
		printf("close error res !\r\n");
 8000694:	4806      	ldr	r0, [pc, #24]	; (80006b0 <create_file+0x5c>)
 8000696:	f00d fa89 	bl	800dbac <puts>
		return;
 800069a:	bf00      	nop
	}
}
 800069c:	3708      	adds	r7, #8
 800069e:	46bd      	mov	sp, r7
 80006a0:	bd80      	pop	{r7, pc}
 80006a2:	bf00      	nop
 80006a4:	200000cc 	.word	0x200000cc
 80006a8:	200010fc 	.word	0x200010fc
 80006ac:	0800e374 	.word	0x0800e374
 80006b0:	0800e390 	.word	0x0800e390

080006b4 <write_file>:
void write_file(char *path, char *str)
{
 80006b4:	b580      	push	{r7, lr}
 80006b6:	b082      	sub	sp, #8
 80006b8:	af00      	add	r7, sp, #0
 80006ba:	6078      	str	r0, [r7, #4]
 80006bc:	6039      	str	r1, [r7, #0]
	if ((res = f_open(&fil, path, FA_OPEN_APPEND | FA_WRITE | FA_READ)) != FR_OK)
 80006be:	2233      	movs	r2, #51	; 0x33
 80006c0:	6879      	ldr	r1, [r7, #4]
 80006c2:	481b      	ldr	r0, [pc, #108]	; (8000730 <write_file+0x7c>)
 80006c4:	f008 fa54 	bl	8008b70 <f_open>
 80006c8:	4603      	mov	r3, r0
 80006ca:	461a      	mov	r2, r3
 80006cc:	4b19      	ldr	r3, [pc, #100]	; (8000734 <write_file+0x80>)
 80006ce:	701a      	strb	r2, [r3, #0]
 80006d0:	4b18      	ldr	r3, [pc, #96]	; (8000734 <write_file+0x80>)
 80006d2:	781b      	ldrb	r3, [r3, #0]
 80006d4:	2b00      	cmp	r3, #0
 80006d6:	d003      	beq.n	80006e0 <write_file+0x2c>
	{
		printf("echo command error ! \r\n ");
 80006d8:	4817      	ldr	r0, [pc, #92]	; (8000738 <write_file+0x84>)
 80006da:	f00d f9e1 	bl	800daa0 <iprintf>
		return;
 80006de:	e023      	b.n	8000728 <write_file+0x74>
	}
	if ((res = f_write(&fil, str, strlen(str), &bw)) != FR_OK)
 80006e0:	6838      	ldr	r0, [r7, #0]
 80006e2:	f7ff fd9f 	bl	8000224 <strlen>
 80006e6:	4602      	mov	r2, r0
 80006e8:	4b14      	ldr	r3, [pc, #80]	; (800073c <write_file+0x88>)
 80006ea:	6839      	ldr	r1, [r7, #0]
 80006ec:	4810      	ldr	r0, [pc, #64]	; (8000730 <write_file+0x7c>)
 80006ee:	f008 fda1 	bl	8009234 <f_write>
 80006f2:	4603      	mov	r3, r0
 80006f4:	461a      	mov	r2, r3
 80006f6:	4b0f      	ldr	r3, [pc, #60]	; (8000734 <write_file+0x80>)
 80006f8:	701a      	strb	r2, [r3, #0]
 80006fa:	4b0e      	ldr	r3, [pc, #56]	; (8000734 <write_file+0x80>)
 80006fc:	781b      	ldrb	r3, [r3, #0]
 80006fe:	2b00      	cmp	r3, #0
 8000700:	d003      	beq.n	800070a <write_file+0x56>
	{
		printf("write file error \r\n ");
 8000702:	480f      	ldr	r0, [pc, #60]	; (8000740 <write_file+0x8c>)
 8000704:	f00d f9cc 	bl	800daa0 <iprintf>
		return;
 8000708:	e00e      	b.n	8000728 <write_file+0x74>
	}
	if ((res = f_close(&fil)) != FR_OK)
 800070a:	4809      	ldr	r0, [pc, #36]	; (8000730 <write_file+0x7c>)
 800070c:	f008 ffe0 	bl	80096d0 <f_close>
 8000710:	4603      	mov	r3, r0
 8000712:	461a      	mov	r2, r3
 8000714:	4b07      	ldr	r3, [pc, #28]	; (8000734 <write_file+0x80>)
 8000716:	701a      	strb	r2, [r3, #0]
 8000718:	4b06      	ldr	r3, [pc, #24]	; (8000734 <write_file+0x80>)
 800071a:	781b      	ldrb	r3, [r3, #0]
 800071c:	2b00      	cmp	r3, #0
 800071e:	d003      	beq.n	8000728 <write_file+0x74>
	{
		printf("close error res \r\n");
 8000720:	4808      	ldr	r0, [pc, #32]	; (8000744 <write_file+0x90>)
 8000722:	f00d fa43 	bl	800dbac <puts>
		return;
 8000726:	bf00      	nop
	}
}
 8000728:	3708      	adds	r7, #8
 800072a:	46bd      	mov	sp, r7
 800072c:	bd80      	pop	{r7, pc}
 800072e:	bf00      	nop
 8000730:	200000cc 	.word	0x200000cc
 8000734:	200010fc 	.word	0x200010fc
 8000738:	0800e3a4 	.word	0x0800e3a4
 800073c:	20002340 	.word	0x20002340
 8000740:	0800e3c0 	.word	0x0800e3c0
 8000744:	0800e3d8 	.word	0x0800e3d8

08000748 <read_file>:

void read_file(char *path)
{
 8000748:	b580      	push	{r7, lr}
 800074a:	b082      	sub	sp, #8
 800074c:	af00      	add	r7, sp, #0
 800074e:	6078      	str	r0, [r7, #4]
	if ((res = f_open(&fil, path, FA_READ)) != FR_OK)
 8000750:	2201      	movs	r2, #1
 8000752:	6879      	ldr	r1, [r7, #4]
 8000754:	4822      	ldr	r0, [pc, #136]	; (80007e0 <read_file+0x98>)
 8000756:	f008 fa0b 	bl	8008b70 <f_open>
 800075a:	4603      	mov	r3, r0
 800075c:	461a      	mov	r2, r3
 800075e:	4b21      	ldr	r3, [pc, #132]	; (80007e4 <read_file+0x9c>)
 8000760:	701a      	strb	r2, [r3, #0]
 8000762:	4b20      	ldr	r3, [pc, #128]	; (80007e4 <read_file+0x9c>)
 8000764:	781b      	ldrb	r3, [r3, #0]
 8000766:	2b00      	cmp	r3, #0
 8000768:	d003      	beq.n	8000772 <read_file+0x2a>
	{
		printf("cat command error !\r\n");
 800076a:	481f      	ldr	r0, [pc, #124]	; (80007e8 <read_file+0xa0>)
 800076c:	f00d fa1e 	bl	800dbac <puts>
		return;
 8000770:	e033      	b.n	80007da <read_file+0x92>
	}
	for (;;)
	{
		if ((res = f_read(&fil, buff, cnt, &br)) != FR_OK) /* Read a chunk of data from the source file */
 8000772:	4b1e      	ldr	r3, [pc, #120]	; (80007ec <read_file+0xa4>)
 8000774:	681a      	ldr	r2, [r3, #0]
 8000776:	4b1e      	ldr	r3, [pc, #120]	; (80007f0 <read_file+0xa8>)
 8000778:	491e      	ldr	r1, [pc, #120]	; (80007f4 <read_file+0xac>)
 800077a:	4819      	ldr	r0, [pc, #100]	; (80007e0 <read_file+0x98>)
 800077c:	f008 fbcc 	bl	8008f18 <f_read>
 8000780:	4603      	mov	r3, r0
 8000782:	461a      	mov	r2, r3
 8000784:	4b17      	ldr	r3, [pc, #92]	; (80007e4 <read_file+0x9c>)
 8000786:	701a      	strb	r2, [r3, #0]
 8000788:	4b16      	ldr	r3, [pc, #88]	; (80007e4 <read_file+0x9c>)
 800078a:	781b      	ldrb	r3, [r3, #0]
 800078c:	2b00      	cmp	r3, #0
 800078e:	d006      	beq.n	800079e <read_file+0x56>
		{
			printf("cat command error !%d\r\n", res);
 8000790:	4b14      	ldr	r3, [pc, #80]	; (80007e4 <read_file+0x9c>)
 8000792:	781b      	ldrb	r3, [r3, #0]
 8000794:	4619      	mov	r1, r3
 8000796:	4818      	ldr	r0, [pc, #96]	; (80007f8 <read_file+0xb0>)
 8000798:	f00d f982 	bl	800daa0 <iprintf>
			return;
 800079c:	e01d      	b.n	80007da <read_file+0x92>
		}

		if (br != cnt)
 800079e:	4b14      	ldr	r3, [pc, #80]	; (80007f0 <read_file+0xa8>)
 80007a0:	681a      	ldr	r2, [r3, #0]
 80007a2:	4b12      	ldr	r3, [pc, #72]	; (80007ec <read_file+0xa4>)
 80007a4:	681b      	ldr	r3, [r3, #0]
 80007a6:	429a      	cmp	r2, r3
 80007a8:	d012      	beq.n	80007d0 <read_file+0x88>
		{
			printf("%s", buff);
 80007aa:	4912      	ldr	r1, [pc, #72]	; (80007f4 <read_file+0xac>)
 80007ac:	4813      	ldr	r0, [pc, #76]	; (80007fc <read_file+0xb4>)
 80007ae:	f00d f977 	bl	800daa0 <iprintf>
			break;
 80007b2:	bf00      	nop
		}
		else
			printf("%s", buff);
	}
	f_close(&fil);
 80007b4:	480a      	ldr	r0, [pc, #40]	; (80007e0 <read_file+0x98>)
 80007b6:	f008 ff8b 	bl	80096d0 <f_close>
	printf("\r\n");
 80007ba:	4811      	ldr	r0, [pc, #68]	; (8000800 <read_file+0xb8>)
 80007bc:	f00d f9f6 	bl	800dbac <puts>
	memset(buff, 0, cnt);
 80007c0:	4b0a      	ldr	r3, [pc, #40]	; (80007ec <read_file+0xa4>)
 80007c2:	681b      	ldr	r3, [r3, #0]
 80007c4:	461a      	mov	r2, r3
 80007c6:	2100      	movs	r1, #0
 80007c8:	480a      	ldr	r0, [pc, #40]	; (80007f4 <read_file+0xac>)
 80007ca:	f00c fd93 	bl	800d2f4 <memset>
	return;
 80007ce:	e004      	b.n	80007da <read_file+0x92>
			printf("%s", buff);
 80007d0:	4908      	ldr	r1, [pc, #32]	; (80007f4 <read_file+0xac>)
 80007d2:	480a      	ldr	r0, [pc, #40]	; (80007fc <read_file+0xb4>)
 80007d4:	f00d f964 	bl	800daa0 <iprintf>
		if ((res = f_read(&fil, buff, cnt, &br)) != FR_OK) /* Read a chunk of data from the source file */
 80007d8:	e7cb      	b.n	8000772 <read_file+0x2a>
}
 80007da:	3708      	adds	r7, #8
 80007dc:	46bd      	mov	sp, r7
 80007de:	bd80      	pop	{r7, pc}
 80007e0:	200000cc 	.word	0x200000cc
 80007e4:	200010fc 	.word	0x200010fc
 80007e8:	0800e3ec 	.word	0x0800e3ec
 80007ec:	20000000 	.word	0x20000000
 80007f0:	2000233c 	.word	0x2000233c
 80007f4:	2000213c 	.word	0x2000213c
 80007f8:	0800e404 	.word	0x0800e404
 80007fc:	0800e41c 	.word	0x0800e41c
 8000800:	0800e420 	.word	0x0800e420

08000804 <read_file_line>:

uint8_t read_file_line(char *path)
{
 8000804:	b580      	push	{r7, lr}
 8000806:	b084      	sub	sp, #16
 8000808:	af00      	add	r7, sp, #0
 800080a:	6078      	str	r0, [r7, #4]
	uint8_t couter_line = 0;
 800080c:	2300      	movs	r3, #0
 800080e:	73fb      	strb	r3, [r7, #15]
	if ((res = f_open(&fil, path, FA_READ)) != FR_OK)
 8000810:	2201      	movs	r2, #1
 8000812:	6879      	ldr	r1, [r7, #4]
 8000814:	4819      	ldr	r0, [pc, #100]	; (800087c <read_file_line+0x78>)
 8000816:	f008 f9ab 	bl	8008b70 <f_open>
 800081a:	4603      	mov	r3, r0
 800081c:	461a      	mov	r2, r3
 800081e:	4b18      	ldr	r3, [pc, #96]	; (8000880 <read_file_line+0x7c>)
 8000820:	701a      	strb	r2, [r3, #0]
 8000822:	4b17      	ldr	r3, [pc, #92]	; (8000880 <read_file_line+0x7c>)
 8000824:	781b      	ldrb	r3, [r3, #0]
 8000826:	2b00      	cmp	r3, #0
 8000828:	d012      	beq.n	8000850 <read_file_line+0x4c>
	{
		printf("cat command error !\r\n");
 800082a:	4816      	ldr	r0, [pc, #88]	; (8000884 <read_file_line+0x80>)
 800082c:	f00d f9be 	bl	800dbac <puts>
		return 0;
 8000830:	2300      	movs	r3, #0
 8000832:	e01e      	b.n	8000872 <read_file_line+0x6e>
	}

	while(!f_eof(&fil))
	{
		TCHAR *result = f_gets( buff, cnt,&fil);
 8000834:	4b14      	ldr	r3, [pc, #80]	; (8000888 <read_file_line+0x84>)
 8000836:	681b      	ldr	r3, [r3, #0]
 8000838:	4a10      	ldr	r2, [pc, #64]	; (800087c <read_file_line+0x78>)
 800083a:	4619      	mov	r1, r3
 800083c:	4813      	ldr	r0, [pc, #76]	; (800088c <read_file_line+0x88>)
 800083e:	f009 fdc3 	bl	800a3c8 <f_gets>
 8000842:	60b8      	str	r0, [r7, #8]
		if (result != NULL)
 8000844:	68bb      	ldr	r3, [r7, #8]
 8000846:	2b00      	cmp	r3, #0
 8000848:	d002      	beq.n	8000850 <read_file_line+0x4c>
		{
			couter_line ++;
 800084a:	7bfb      	ldrb	r3, [r7, #15]
 800084c:	3301      	adds	r3, #1
 800084e:	73fb      	strb	r3, [r7, #15]
	while(!f_eof(&fil))
 8000850:	4b0a      	ldr	r3, [pc, #40]	; (800087c <read_file_line+0x78>)
 8000852:	699a      	ldr	r2, [r3, #24]
 8000854:	4b09      	ldr	r3, [pc, #36]	; (800087c <read_file_line+0x78>)
 8000856:	68db      	ldr	r3, [r3, #12]
 8000858:	429a      	cmp	r2, r3
 800085a:	d1eb      	bne.n	8000834 <read_file_line+0x30>
//		        {
//			couter_line --;
//		        }

	}
	f_close(&fil);
 800085c:	4807      	ldr	r0, [pc, #28]	; (800087c <read_file_line+0x78>)
 800085e:	f008 ff37 	bl	80096d0 <f_close>
	memset(buff, 0, cnt);
 8000862:	4b09      	ldr	r3, [pc, #36]	; (8000888 <read_file_line+0x84>)
 8000864:	681b      	ldr	r3, [r3, #0]
 8000866:	461a      	mov	r2, r3
 8000868:	2100      	movs	r1, #0
 800086a:	4808      	ldr	r0, [pc, #32]	; (800088c <read_file_line+0x88>)
 800086c:	f00c fd42 	bl	800d2f4 <memset>
	return couter_line;
 8000870:	7bfb      	ldrb	r3, [r7, #15]
}
 8000872:	4618      	mov	r0, r3
 8000874:	3710      	adds	r7, #16
 8000876:	46bd      	mov	sp, r7
 8000878:	bd80      	pop	{r7, pc}
 800087a:	bf00      	nop
 800087c:	200000cc 	.word	0x200000cc
 8000880:	200010fc 	.word	0x200010fc
 8000884:	0800e3ec 	.word	0x0800e3ec
 8000888:	20000000 	.word	0x20000000
 800088c:	2000213c 	.word	0x2000213c

08000890 <read_file_head>:
uint8_t read_file_head(char *path, uint8_t number_of_line)
{
 8000890:	b580      	push	{r7, lr}
 8000892:	b084      	sub	sp, #16
 8000894:	af00      	add	r7, sp, #0
 8000896:	6078      	str	r0, [r7, #4]
 8000898:	460b      	mov	r3, r1
 800089a:	70fb      	strb	r3, [r7, #3]
	uint8_t couter_line = 0;
 800089c:	2300      	movs	r3, #0
 800089e:	73fb      	strb	r3, [r7, #15]
	if ((res = f_open(&fil, path, FA_READ)) != FR_OK)
 80008a0:	2201      	movs	r2, #1
 80008a2:	6879      	ldr	r1, [r7, #4]
 80008a4:	4822      	ldr	r0, [pc, #136]	; (8000930 <read_file_head+0xa0>)
 80008a6:	f008 f963 	bl	8008b70 <f_open>
 80008aa:	4603      	mov	r3, r0
 80008ac:	461a      	mov	r2, r3
 80008ae:	4b21      	ldr	r3, [pc, #132]	; (8000934 <read_file_head+0xa4>)
 80008b0:	701a      	strb	r2, [r3, #0]
 80008b2:	4b20      	ldr	r3, [pc, #128]	; (8000934 <read_file_head+0xa4>)
 80008b4:	781b      	ldrb	r3, [r3, #0]
 80008b6:	2b00      	cmp	r3, #0
 80008b8:	d01d      	beq.n	80008f6 <read_file_head+0x66>
	{
		printf("cat command error !\r\n");
 80008ba:	481f      	ldr	r0, [pc, #124]	; (8000938 <read_file_head+0xa8>)
 80008bc:	f00d f976 	bl	800dbac <puts>
		return 0;
 80008c0:	2300      	movs	r3, #0
 80008c2:	e030      	b.n	8000926 <read_file_head+0x96>
	}

	while((!f_eof(&fil)) && (couter_line < number_of_line))
	{
		memset(buff, 0, cnt);
 80008c4:	4b1d      	ldr	r3, [pc, #116]	; (800093c <read_file_head+0xac>)
 80008c6:	681b      	ldr	r3, [r3, #0]
 80008c8:	461a      	mov	r2, r3
 80008ca:	2100      	movs	r1, #0
 80008cc:	481c      	ldr	r0, [pc, #112]	; (8000940 <read_file_head+0xb0>)
 80008ce:	f00c fd11 	bl	800d2f4 <memset>
		TCHAR *result = f_gets( buff, cnt,&fil);
 80008d2:	4b1a      	ldr	r3, [pc, #104]	; (800093c <read_file_head+0xac>)
 80008d4:	681b      	ldr	r3, [r3, #0]
 80008d6:	4a16      	ldr	r2, [pc, #88]	; (8000930 <read_file_head+0xa0>)
 80008d8:	4619      	mov	r1, r3
 80008da:	4819      	ldr	r0, [pc, #100]	; (8000940 <read_file_head+0xb0>)
 80008dc:	f009 fd74 	bl	800a3c8 <f_gets>
 80008e0:	60b8      	str	r0, [r7, #8]
		if (result != NULL)
 80008e2:	68bb      	ldr	r3, [r7, #8]
 80008e4:	2b00      	cmp	r3, #0
 80008e6:	d006      	beq.n	80008f6 <read_file_head+0x66>
		{
			couter_line ++;
 80008e8:	7bfb      	ldrb	r3, [r7, #15]
 80008ea:	3301      	adds	r3, #1
 80008ec:	73fb      	strb	r3, [r7, #15]
			printf("%s\r", buff);
 80008ee:	4914      	ldr	r1, [pc, #80]	; (8000940 <read_file_head+0xb0>)
 80008f0:	4814      	ldr	r0, [pc, #80]	; (8000944 <read_file_head+0xb4>)
 80008f2:	f00d f8d5 	bl	800daa0 <iprintf>
	while((!f_eof(&fil)) && (couter_line < number_of_line))
 80008f6:	4b0e      	ldr	r3, [pc, #56]	; (8000930 <read_file_head+0xa0>)
 80008f8:	699a      	ldr	r2, [r3, #24]
 80008fa:	4b0d      	ldr	r3, [pc, #52]	; (8000930 <read_file_head+0xa0>)
 80008fc:	68db      	ldr	r3, [r3, #12]
 80008fe:	429a      	cmp	r2, r3
 8000900:	d003      	beq.n	800090a <read_file_head+0x7a>
 8000902:	7bfa      	ldrb	r2, [r7, #15]
 8000904:	78fb      	ldrb	r3, [r7, #3]
 8000906:	429a      	cmp	r2, r3
 8000908:	d3dc      	bcc.n	80008c4 <read_file_head+0x34>
//		        {
//			couter_line --;
//		        }

	}
	printf("\r\n");
 800090a:	480f      	ldr	r0, [pc, #60]	; (8000948 <read_file_head+0xb8>)
 800090c:	f00d f94e 	bl	800dbac <puts>
	f_close(&fil);
 8000910:	4807      	ldr	r0, [pc, #28]	; (8000930 <read_file_head+0xa0>)
 8000912:	f008 fedd 	bl	80096d0 <f_close>
	memset(buff, 0, cnt);
 8000916:	4b09      	ldr	r3, [pc, #36]	; (800093c <read_file_head+0xac>)
 8000918:	681b      	ldr	r3, [r3, #0]
 800091a:	461a      	mov	r2, r3
 800091c:	2100      	movs	r1, #0
 800091e:	4808      	ldr	r0, [pc, #32]	; (8000940 <read_file_head+0xb0>)
 8000920:	f00c fce8 	bl	800d2f4 <memset>
	return couter_line;
 8000924:	7bfb      	ldrb	r3, [r7, #15]
}
 8000926:	4618      	mov	r0, r3
 8000928:	3710      	adds	r7, #16
 800092a:	46bd      	mov	sp, r7
 800092c:	bd80      	pop	{r7, pc}
 800092e:	bf00      	nop
 8000930:	200000cc 	.word	0x200000cc
 8000934:	200010fc 	.word	0x200010fc
 8000938:	0800e3ec 	.word	0x0800e3ec
 800093c:	20000000 	.word	0x20000000
 8000940:	2000213c 	.word	0x2000213c
 8000944:	0800e424 	.word	0x0800e424
 8000948:	0800e420 	.word	0x0800e420

0800094c <read_file_tail>:

uint8_t read_file_tail(char *path, uint8_t number_of_line)
{
 800094c:	b580      	push	{r7, lr}
 800094e:	b084      	sub	sp, #16
 8000950:	af00      	add	r7, sp, #0
 8000952:	6078      	str	r0, [r7, #4]
 8000954:	460b      	mov	r3, r1
 8000956:	70fb      	strb	r3, [r7, #3]
	uint8_t couter_line = 0;
 8000958:	2300      	movs	r3, #0
 800095a:	73fb      	strb	r3, [r7, #15]
	uint8_t start_read_line;
	uint8_t wc_cmd_resulf = read_file_line(path);
 800095c:	6878      	ldr	r0, [r7, #4]
 800095e:	f7ff ff51 	bl	8000804 <read_file_line>
 8000962:	4603      	mov	r3, r0
 8000964:	737b      	strb	r3, [r7, #13]
	if (wc_cmd_resulf > number_of_line)
 8000966:	7b7a      	ldrb	r2, [r7, #13]
 8000968:	78fb      	ldrb	r3, [r7, #3]
 800096a:	429a      	cmp	r2, r3
 800096c:	d904      	bls.n	8000978 <read_file_tail+0x2c>
		start_read_line = wc_cmd_resulf - number_of_line ;
 800096e:	7b7a      	ldrb	r2, [r7, #13]
 8000970:	78fb      	ldrb	r3, [r7, #3]
 8000972:	1ad3      	subs	r3, r2, r3
 8000974:	73bb      	strb	r3, [r7, #14]
 8000976:	e001      	b.n	800097c <read_file_tail+0x30>
	else
		start_read_line = 0;
 8000978:	2300      	movs	r3, #0
 800097a:	73bb      	strb	r3, [r7, #14]

	if ((res = f_open(&fil, path, FA_READ)) != FR_OK)
 800097c:	2201      	movs	r2, #1
 800097e:	6879      	ldr	r1, [r7, #4]
 8000980:	4825      	ldr	r0, [pc, #148]	; (8000a18 <read_file_tail+0xcc>)
 8000982:	f008 f8f5 	bl	8008b70 <f_open>
 8000986:	4603      	mov	r3, r0
 8000988:	461a      	mov	r2, r3
 800098a:	4b24      	ldr	r3, [pc, #144]	; (8000a1c <read_file_tail+0xd0>)
 800098c:	701a      	strb	r2, [r3, #0]
 800098e:	4b23      	ldr	r3, [pc, #140]	; (8000a1c <read_file_tail+0xd0>)
 8000990:	781b      	ldrb	r3, [r3, #0]
 8000992:	2b00      	cmp	r3, #0
 8000994:	d028      	beq.n	80009e8 <read_file_tail+0x9c>
	{
		printf("cat command error !\r\n");
 8000996:	4822      	ldr	r0, [pc, #136]	; (8000a20 <read_file_tail+0xd4>)
 8000998:	f00d f908 	bl	800dbac <puts>
		return 0;
 800099c:	2300      	movs	r3, #0
 800099e:	e037      	b.n	8000a10 <read_file_tail+0xc4>
	}
	while(!f_eof(&fil))
	{
		memset(buff, 0, cnt);
 80009a0:	4b20      	ldr	r3, [pc, #128]	; (8000a24 <read_file_tail+0xd8>)
 80009a2:	681b      	ldr	r3, [r3, #0]
 80009a4:	461a      	mov	r2, r3
 80009a6:	2100      	movs	r1, #0
 80009a8:	481f      	ldr	r0, [pc, #124]	; (8000a28 <read_file_tail+0xdc>)
 80009aa:	f00c fca3 	bl	800d2f4 <memset>
		TCHAR *result = f_gets( buff, cnt,&fil);
 80009ae:	4b1d      	ldr	r3, [pc, #116]	; (8000a24 <read_file_tail+0xd8>)
 80009b0:	681b      	ldr	r3, [r3, #0]
 80009b2:	4a19      	ldr	r2, [pc, #100]	; (8000a18 <read_file_tail+0xcc>)
 80009b4:	4619      	mov	r1, r3
 80009b6:	481c      	ldr	r0, [pc, #112]	; (8000a28 <read_file_tail+0xdc>)
 80009b8:	f009 fd06 	bl	800a3c8 <f_gets>
 80009bc:	60b8      	str	r0, [r7, #8]
		if (couter_line < start_read_line)
 80009be:	7bfa      	ldrb	r2, [r7, #15]
 80009c0:	7bbb      	ldrb	r3, [r7, #14]
 80009c2:	429a      	cmp	r2, r3
 80009c4:	d206      	bcs.n	80009d4 <read_file_tail+0x88>
			{
			if (result != NULL)
 80009c6:	68bb      	ldr	r3, [r7, #8]
 80009c8:	2b00      	cmp	r3, #0
 80009ca:	d00d      	beq.n	80009e8 <read_file_tail+0x9c>
					{
						couter_line ++;
 80009cc:	7bfb      	ldrb	r3, [r7, #15]
 80009ce:	3301      	adds	r3, #1
 80009d0:	73fb      	strb	r3, [r7, #15]
 80009d2:	e009      	b.n	80009e8 <read_file_tail+0x9c>
					}
			}
		else
		if (result != NULL)
 80009d4:	68bb      	ldr	r3, [r7, #8]
 80009d6:	2b00      	cmp	r3, #0
 80009d8:	d006      	beq.n	80009e8 <read_file_tail+0x9c>
		{
			couter_line ++;
 80009da:	7bfb      	ldrb	r3, [r7, #15]
 80009dc:	3301      	adds	r3, #1
 80009de:	73fb      	strb	r3, [r7, #15]
			printf("%s\r", result);
 80009e0:	68b9      	ldr	r1, [r7, #8]
 80009e2:	4812      	ldr	r0, [pc, #72]	; (8000a2c <read_file_tail+0xe0>)
 80009e4:	f00d f85c 	bl	800daa0 <iprintf>
	while(!f_eof(&fil))
 80009e8:	4b0b      	ldr	r3, [pc, #44]	; (8000a18 <read_file_tail+0xcc>)
 80009ea:	699a      	ldr	r2, [r3, #24]
 80009ec:	4b0a      	ldr	r3, [pc, #40]	; (8000a18 <read_file_tail+0xcc>)
 80009ee:	68db      	ldr	r3, [r3, #12]
 80009f0:	429a      	cmp	r2, r3
 80009f2:	d1d5      	bne.n	80009a0 <read_file_tail+0x54>
		}
	}
	printf("\r\n");
 80009f4:	480e      	ldr	r0, [pc, #56]	; (8000a30 <read_file_tail+0xe4>)
 80009f6:	f00d f8d9 	bl	800dbac <puts>
	f_close(&fil);
 80009fa:	4807      	ldr	r0, [pc, #28]	; (8000a18 <read_file_tail+0xcc>)
 80009fc:	f008 fe68 	bl	80096d0 <f_close>
	memset(buff, 0, cnt);
 8000a00:	4b08      	ldr	r3, [pc, #32]	; (8000a24 <read_file_tail+0xd8>)
 8000a02:	681b      	ldr	r3, [r3, #0]
 8000a04:	461a      	mov	r2, r3
 8000a06:	2100      	movs	r1, #0
 8000a08:	4807      	ldr	r0, [pc, #28]	; (8000a28 <read_file_tail+0xdc>)
 8000a0a:	f00c fc73 	bl	800d2f4 <memset>
	return couter_line;
 8000a0e:	7bfb      	ldrb	r3, [r7, #15]
}
 8000a10:	4618      	mov	r0, r3
 8000a12:	3710      	adds	r7, #16
 8000a14:	46bd      	mov	sp, r7
 8000a16:	bd80      	pop	{r7, pc}
 8000a18:	200000cc 	.word	0x200000cc
 8000a1c:	200010fc 	.word	0x200010fc
 8000a20:	0800e3ec 	.word	0x0800e3ec
 8000a24:	20000000 	.word	0x20000000
 8000a28:	2000213c 	.word	0x2000213c
 8000a2c:	0800e424 	.word	0x0800e424
 8000a30:	0800e420 	.word	0x0800e420

08000a34 <SELECT>:
static uint8_t CardType;                   /* SD type 0:MMC, 1:SDC, 2:Block addressing */
static uint8_t PowerFlag = 0;              /* Power condition Flag */

/* SPI Chip Select */
static void SELECT(void)
{
 8000a34:	b580      	push	{r7, lr}
 8000a36:	af00      	add	r7, sp, #0
  HAL_GPIO_WritePin(SD_CS_GPIO_Port, SD_CS_Pin, GPIO_PIN_RESET);
 8000a38:	2200      	movs	r2, #0
 8000a3a:	2140      	movs	r1, #64	; 0x40
 8000a3c:	4802      	ldr	r0, [pc, #8]	; (8000a48 <SELECT+0x14>)
 8000a3e:	f003 fabb 	bl	8003fb8 <HAL_GPIO_WritePin>
}
 8000a42:	bf00      	nop
 8000a44:	bd80      	pop	{r7, pc}
 8000a46:	bf00      	nop
 8000a48:	40020400 	.word	0x40020400

08000a4c <DESELECT>:

/* SPI Chip Deselect */
static void DESELECT(void)
{
 8000a4c:	b580      	push	{r7, lr}
 8000a4e:	af00      	add	r7, sp, #0
  HAL_GPIO_WritePin(SD_CS_GPIO_Port, SD_CS_Pin, GPIO_PIN_SET);
 8000a50:	2201      	movs	r2, #1
 8000a52:	2140      	movs	r1, #64	; 0x40
 8000a54:	4802      	ldr	r0, [pc, #8]	; (8000a60 <DESELECT+0x14>)
 8000a56:	f003 faaf 	bl	8003fb8 <HAL_GPIO_WritePin>
}
 8000a5a:	bf00      	nop
 8000a5c:	bd80      	pop	{r7, pc}
 8000a5e:	bf00      	nop
 8000a60:	40020400 	.word	0x40020400

08000a64 <SPI_TxByte>:

/* SPI Transmit*/
static void SPI_TxByte(BYTE data)
{
 8000a64:	b580      	push	{r7, lr}
 8000a66:	b082      	sub	sp, #8
 8000a68:	af00      	add	r7, sp, #0
 8000a6a:	4603      	mov	r3, r0
 8000a6c:	71fb      	strb	r3, [r7, #7]
  while (HAL_SPI_GetState(&hspi1) != HAL_SPI_STATE_READY)
 8000a6e:	bf00      	nop
 8000a70:	4808      	ldr	r0, [pc, #32]	; (8000a94 <SPI_TxByte+0x30>)
 8000a72:	f004 fc3c 	bl	80052ee <HAL_SPI_GetState>
 8000a76:	4603      	mov	r3, r0
 8000a78:	2b01      	cmp	r3, #1
 8000a7a:	d1f9      	bne.n	8000a70 <SPI_TxByte+0xc>
    ;
  HAL_SPI_Transmit(&hspi1, &data, 1, SPI_TIMEOUT);
 8000a7c:	1df9      	adds	r1, r7, #7
 8000a7e:	f44f 737a 	mov.w	r3, #1000	; 0x3e8
 8000a82:	2201      	movs	r2, #1
 8000a84:	4803      	ldr	r0, [pc, #12]	; (8000a94 <SPI_TxByte+0x30>)
 8000a86:	f004 f954 	bl	8004d32 <HAL_SPI_Transmit>
}
 8000a8a:	bf00      	nop
 8000a8c:	3708      	adds	r7, #8
 8000a8e:	46bd      	mov	sp, r7
 8000a90:	bd80      	pop	{r7, pc}
 8000a92:	bf00      	nop
 8000a94:	200026fc 	.word	0x200026fc

08000a98 <SPI_RxByte>:

/* SPI Data send / receive return type function */
static uint8_t SPI_RxByte(void)
{
 8000a98:	b580      	push	{r7, lr}
 8000a9a:	b084      	sub	sp, #16
 8000a9c:	af02      	add	r7, sp, #8
  uint8_t dummy, data;
  dummy = 0xFF;
 8000a9e:	23ff      	movs	r3, #255	; 0xff
 8000aa0:	71fb      	strb	r3, [r7, #7]
  data = 0;
 8000aa2:	2300      	movs	r3, #0
 8000aa4:	71bb      	strb	r3, [r7, #6]

  while ((HAL_SPI_GetState(&hspi1) != HAL_SPI_STATE_READY))
 8000aa6:	bf00      	nop
 8000aa8:	4809      	ldr	r0, [pc, #36]	; (8000ad0 <SPI_RxByte+0x38>)
 8000aaa:	f004 fc20 	bl	80052ee <HAL_SPI_GetState>
 8000aae:	4603      	mov	r3, r0
 8000ab0:	2b01      	cmp	r3, #1
 8000ab2:	d1f9      	bne.n	8000aa8 <SPI_RxByte+0x10>
    ;
  HAL_SPI_TransmitReceive(&hspi1, &dummy, &data, 1, SPI_TIMEOUT);
 8000ab4:	1dba      	adds	r2, r7, #6
 8000ab6:	1df9      	adds	r1, r7, #7
 8000ab8:	f44f 737a 	mov.w	r3, #1000	; 0x3e8
 8000abc:	9300      	str	r3, [sp, #0]
 8000abe:	2301      	movs	r3, #1
 8000ac0:	4803      	ldr	r0, [pc, #12]	; (8000ad0 <SPI_RxByte+0x38>)
 8000ac2:	f004 fa72 	bl	8004faa <HAL_SPI_TransmitReceive>

  return data;
 8000ac6:	79bb      	ldrb	r3, [r7, #6]
}
 8000ac8:	4618      	mov	r0, r3
 8000aca:	3708      	adds	r7, #8
 8000acc:	46bd      	mov	sp, r7
 8000ace:	bd80      	pop	{r7, pc}
 8000ad0:	200026fc 	.word	0x200026fc

08000ad4 <SPI_RxBytePtr>:

/* SPI Data send / receive pointer type function*/
static void SPI_RxBytePtr(uint8_t *buff)
{
 8000ad4:	b580      	push	{r7, lr}
 8000ad6:	b082      	sub	sp, #8
 8000ad8:	af00      	add	r7, sp, #0
 8000ada:	6078      	str	r0, [r7, #4]
  *buff = SPI_RxByte();
 8000adc:	f7ff ffdc 	bl	8000a98 <SPI_RxByte>
 8000ae0:	4603      	mov	r3, r0
 8000ae2:	461a      	mov	r2, r3
 8000ae4:	687b      	ldr	r3, [r7, #4]
 8000ae6:	701a      	strb	r2, [r3, #0]
}
 8000ae8:	bf00      	nop
 8000aea:	3708      	adds	r7, #8
 8000aec:	46bd      	mov	sp, r7
 8000aee:	bd80      	pop	{r7, pc}

08000af0 <SD_ReadyWait>:

/* SD CARD Ready wait */
static uint8_t SD_ReadyWait(void)
{
 8000af0:	b580      	push	{r7, lr}
 8000af2:	b082      	sub	sp, #8
 8000af4:	af00      	add	r7, sp, #0
  uint8_t res;

  /* 500ms Counter preparation*/
  Timer2 = 50;
 8000af6:	4b0b      	ldr	r3, [pc, #44]	; (8000b24 <SD_ReadyWait+0x34>)
 8000af8:	2232      	movs	r2, #50	; 0x32
 8000afa:	701a      	strb	r2, [r3, #0]

  SPI_RxByte();
 8000afc:	f7ff ffcc 	bl	8000a98 <SPI_RxByte>

  do
  {
    /* 0xFF SPI communication until a value is received */
    res = SPI_RxByte();
 8000b00:	f7ff ffca 	bl	8000a98 <SPI_RxByte>
 8000b04:	4603      	mov	r3, r0
 8000b06:	71fb      	strb	r3, [r7, #7]
  } while ((res != 0xFF) && Timer2);
 8000b08:	79fb      	ldrb	r3, [r7, #7]
 8000b0a:	2bff      	cmp	r3, #255	; 0xff
 8000b0c:	d004      	beq.n	8000b18 <SD_ReadyWait+0x28>
 8000b0e:	4b05      	ldr	r3, [pc, #20]	; (8000b24 <SD_ReadyWait+0x34>)
 8000b10:	781b      	ldrb	r3, [r3, #0]
 8000b12:	b2db      	uxtb	r3, r3
 8000b14:	2b00      	cmp	r3, #0
 8000b16:	d1f3      	bne.n	8000b00 <SD_ReadyWait+0x10>

  return res;
 8000b18:	79fb      	ldrb	r3, [r7, #7]
}
 8000b1a:	4618      	mov	r0, r3
 8000b1c:	3708      	adds	r7, #8
 8000b1e:	46bd      	mov	sp, r7
 8000b20:	bd80      	pop	{r7, pc}
 8000b22:	bf00      	nop
 8000b24:	20002a55 	.word	0x20002a55

08000b28 <SD_PowerOn>:

/*Power on*/
static void SD_PowerOn(void)
{
 8000b28:	b580      	push	{r7, lr}
 8000b2a:	b086      	sub	sp, #24
 8000b2c:	af00      	add	r7, sp, #0
  uint8_t cmd_arg[6];
  uint32_t Count = 0x1FFF;
 8000b2e:	f641 73ff 	movw	r3, #8191	; 0x1fff
 8000b32:	617b      	str	r3, [r7, #20]

  DESELECT();
 8000b34:	f7ff ff8a 	bl	8000a4c <DESELECT>

  for (int i = 0; i < 10; i++)
 8000b38:	2300      	movs	r3, #0
 8000b3a:	613b      	str	r3, [r7, #16]
 8000b3c:	e005      	b.n	8000b4a <SD_PowerOn+0x22>
  {
    SPI_TxByte(0xFF);
 8000b3e:	20ff      	movs	r0, #255	; 0xff
 8000b40:	f7ff ff90 	bl	8000a64 <SPI_TxByte>
  for (int i = 0; i < 10; i++)
 8000b44:	693b      	ldr	r3, [r7, #16]
 8000b46:	3301      	adds	r3, #1
 8000b48:	613b      	str	r3, [r7, #16]
 8000b4a:	693b      	ldr	r3, [r7, #16]
 8000b4c:	2b09      	cmp	r3, #9
 8000b4e:	ddf6      	ble.n	8000b3e <SD_PowerOn+0x16>
  }

  /* SPI Chips Select */
  SELECT();
 8000b50:	f7ff ff70 	bl	8000a34 <SELECT>

  /*  GO_IDLE_STATE State transitions*/
  cmd_arg[0] = (CMD0 | 0x40);
 8000b54:	2340      	movs	r3, #64	; 0x40
 8000b56:	713b      	strb	r3, [r7, #4]
  cmd_arg[1] = 0;
 8000b58:	2300      	movs	r3, #0
 8000b5a:	717b      	strb	r3, [r7, #5]
  cmd_arg[2] = 0;
 8000b5c:	2300      	movs	r3, #0
 8000b5e:	71bb      	strb	r3, [r7, #6]
  cmd_arg[3] = 0;
 8000b60:	2300      	movs	r3, #0
 8000b62:	71fb      	strb	r3, [r7, #7]
  cmd_arg[4] = 0;
 8000b64:	2300      	movs	r3, #0
 8000b66:	723b      	strb	r3, [r7, #8]
  cmd_arg[5] = 0x95;
 8000b68:	2395      	movs	r3, #149	; 0x95
 8000b6a:	727b      	strb	r3, [r7, #9]

  /* Command transmission*/
  for (int i = 0; i < 6; i++)
 8000b6c:	2300      	movs	r3, #0
 8000b6e:	60fb      	str	r3, [r7, #12]
 8000b70:	e009      	b.n	8000b86 <SD_PowerOn+0x5e>
  {
    SPI_TxByte(cmd_arg[i]);
 8000b72:	1d3a      	adds	r2, r7, #4
 8000b74:	68fb      	ldr	r3, [r7, #12]
 8000b76:	4413      	add	r3, r2
 8000b78:	781b      	ldrb	r3, [r3, #0]
 8000b7a:	4618      	mov	r0, r3
 8000b7c:	f7ff ff72 	bl	8000a64 <SPI_TxByte>
  for (int i = 0; i < 6; i++)
 8000b80:	68fb      	ldr	r3, [r7, #12]
 8000b82:	3301      	adds	r3, #1
 8000b84:	60fb      	str	r3, [r7, #12]
 8000b86:	68fb      	ldr	r3, [r7, #12]
 8000b88:	2b05      	cmp	r3, #5
 8000b8a:	ddf2      	ble.n	8000b72 <SD_PowerOn+0x4a>
  }

  /* Answer waiting*/
  while ((SPI_RxByte() != 0x01) && Count)
 8000b8c:	e002      	b.n	8000b94 <SD_PowerOn+0x6c>
  {
    Count--;
 8000b8e:	697b      	ldr	r3, [r7, #20]
 8000b90:	3b01      	subs	r3, #1
 8000b92:	617b      	str	r3, [r7, #20]
  while ((SPI_RxByte() != 0x01) && Count)
 8000b94:	f7ff ff80 	bl	8000a98 <SPI_RxByte>
 8000b98:	4603      	mov	r3, r0
 8000b9a:	2b01      	cmp	r3, #1
 8000b9c:	d002      	beq.n	8000ba4 <SD_PowerOn+0x7c>
 8000b9e:	697b      	ldr	r3, [r7, #20]
 8000ba0:	2b00      	cmp	r3, #0
 8000ba2:	d1f4      	bne.n	8000b8e <SD_PowerOn+0x66>
  }

  DESELECT();
 8000ba4:	f7ff ff52 	bl	8000a4c <DESELECT>
  SPI_TxByte(0XFF);
 8000ba8:	20ff      	movs	r0, #255	; 0xff
 8000baa:	f7ff ff5b 	bl	8000a64 <SPI_TxByte>

  PowerFlag = 1;
 8000bae:	4b03      	ldr	r3, [pc, #12]	; (8000bbc <SD_PowerOn+0x94>)
 8000bb0:	2201      	movs	r2, #1
 8000bb2:	701a      	strb	r2, [r3, #0]
}
 8000bb4:	bf00      	nop
 8000bb6:	3718      	adds	r7, #24
 8000bb8:	46bd      	mov	sp, r7
 8000bba:	bd80      	pop	{r7, pc}
 8000bbc:	20002445 	.word	0x20002445

08000bc0 <SD_PowerOff>:

/* 전원 끄기 */
static void SD_PowerOff(void)
{
 8000bc0:	b480      	push	{r7}
 8000bc2:	af00      	add	r7, sp, #0
  PowerFlag = 0;
 8000bc4:	4b03      	ldr	r3, [pc, #12]	; (8000bd4 <SD_PowerOff+0x14>)
 8000bc6:	2200      	movs	r2, #0
 8000bc8:	701a      	strb	r2, [r3, #0]
}
 8000bca:	bf00      	nop
 8000bcc:	46bd      	mov	sp, r7
 8000bce:	f85d 7b04 	ldr.w	r7, [sp], #4
 8000bd2:	4770      	bx	lr
 8000bd4:	20002445 	.word	0x20002445

08000bd8 <SD_CheckPower>:

/* 전원 상태 확인 */
static uint8_t SD_CheckPower(void)
{
 8000bd8:	b480      	push	{r7}
 8000bda:	af00      	add	r7, sp, #0
  /*  0=off, 1=on */
  return PowerFlag;
 8000bdc:	4b03      	ldr	r3, [pc, #12]	; (8000bec <SD_CheckPower+0x14>)
 8000bde:	781b      	ldrb	r3, [r3, #0]
}
 8000be0:	4618      	mov	r0, r3
 8000be2:	46bd      	mov	sp, r7
 8000be4:	f85d 7b04 	ldr.w	r7, [sp], #4
 8000be8:	4770      	bx	lr
 8000bea:	bf00      	nop
 8000bec:	20002445 	.word	0x20002445

08000bf0 <SD_RxDataBlock>:

/* 데이터 패킷 수신 */
static bool SD_RxDataBlock(BYTE *buff, UINT btr)
{
 8000bf0:	b580      	push	{r7, lr}
 8000bf2:	b084      	sub	sp, #16
 8000bf4:	af00      	add	r7, sp, #0
 8000bf6:	6078      	str	r0, [r7, #4]
 8000bf8:	6039      	str	r1, [r7, #0]
  uint8_t token;

  /* 100ms 타이머 */
  Timer1 = 10;
 8000bfa:	4b17      	ldr	r3, [pc, #92]	; (8000c58 <SD_RxDataBlock+0x68>)
 8000bfc:	220a      	movs	r2, #10
 8000bfe:	701a      	strb	r2, [r3, #0]

  /* 응답 대기 */
  do
  {
    token = SPI_RxByte();
 8000c00:	f7ff ff4a 	bl	8000a98 <SPI_RxByte>
 8000c04:	4603      	mov	r3, r0
 8000c06:	73fb      	strb	r3, [r7, #15]
  } while ((token == 0xFF) && Timer1);
 8000c08:	7bfb      	ldrb	r3, [r7, #15]
 8000c0a:	2bff      	cmp	r3, #255	; 0xff
 8000c0c:	d104      	bne.n	8000c18 <SD_RxDataBlock+0x28>
 8000c0e:	4b12      	ldr	r3, [pc, #72]	; (8000c58 <SD_RxDataBlock+0x68>)
 8000c10:	781b      	ldrb	r3, [r3, #0]
 8000c12:	b2db      	uxtb	r3, r3
 8000c14:	2b00      	cmp	r3, #0
 8000c16:	d1f3      	bne.n	8000c00 <SD_RxDataBlock+0x10>

  /* 0xFE 이외 Token 수신 시 에러 처리 */
  if (token != 0xFE)
 8000c18:	7bfb      	ldrb	r3, [r7, #15]
 8000c1a:	2bfe      	cmp	r3, #254	; 0xfe
 8000c1c:	d001      	beq.n	8000c22 <SD_RxDataBlock+0x32>
    return FALSE;
 8000c1e:	2300      	movs	r3, #0
 8000c20:	e016      	b.n	8000c50 <SD_RxDataBlock+0x60>

  /* 버퍼에 데이터 수신 */
  do
  {
    SPI_RxBytePtr(buff++);
 8000c22:	687b      	ldr	r3, [r7, #4]
 8000c24:	1c5a      	adds	r2, r3, #1
 8000c26:	607a      	str	r2, [r7, #4]
 8000c28:	4618      	mov	r0, r3
 8000c2a:	f7ff ff53 	bl	8000ad4 <SPI_RxBytePtr>
    SPI_RxBytePtr(buff++);
 8000c2e:	687b      	ldr	r3, [r7, #4]
 8000c30:	1c5a      	adds	r2, r3, #1
 8000c32:	607a      	str	r2, [r7, #4]
 8000c34:	4618      	mov	r0, r3
 8000c36:	f7ff ff4d 	bl	8000ad4 <SPI_RxBytePtr>
  } while (btr -= 2);
 8000c3a:	683b      	ldr	r3, [r7, #0]
 8000c3c:	3b02      	subs	r3, #2
 8000c3e:	603b      	str	r3, [r7, #0]
 8000c40:	683b      	ldr	r3, [r7, #0]
 8000c42:	2b00      	cmp	r3, #0
 8000c44:	d1ed      	bne.n	8000c22 <SD_RxDataBlock+0x32>

  SPI_RxByte(); /* CRC 무시 */
 8000c46:	f7ff ff27 	bl	8000a98 <SPI_RxByte>
  SPI_RxByte();
 8000c4a:	f7ff ff25 	bl	8000a98 <SPI_RxByte>

  return TRUE;
 8000c4e:	2301      	movs	r3, #1
}
 8000c50:	4618      	mov	r0, r3
 8000c52:	3710      	adds	r7, #16
 8000c54:	46bd      	mov	sp, r7
 8000c56:	bd80      	pop	{r7, pc}
 8000c58:	20002a54 	.word	0x20002a54

08000c5c <SD_TxDataBlock>:

/* 데이터 전송 패킷 */
#if _READONLY == 0
static bool SD_TxDataBlock(const BYTE *buff, BYTE token)
{
 8000c5c:	b580      	push	{r7, lr}
 8000c5e:	b084      	sub	sp, #16
 8000c60:	af00      	add	r7, sp, #0
 8000c62:	6078      	str	r0, [r7, #4]
 8000c64:	460b      	mov	r3, r1
 8000c66:	70fb      	strb	r3, [r7, #3]
  uint8_t resp, wc;
  uint8_t i = 0;
 8000c68:	2300      	movs	r3, #0
 8000c6a:	737b      	strb	r3, [r7, #13]

  /* SD카드 준비 대기 */
  if (SD_ReadyWait() != 0xFF)
 8000c6c:	f7ff ff40 	bl	8000af0 <SD_ReadyWait>
 8000c70:	4603      	mov	r3, r0
 8000c72:	2bff      	cmp	r3, #255	; 0xff
 8000c74:	d001      	beq.n	8000c7a <SD_TxDataBlock+0x1e>
    return FALSE;
 8000c76:	2300      	movs	r3, #0
 8000c78:	e040      	b.n	8000cfc <SD_TxDataBlock+0xa0>

  /* 토큰 전송 */
  SPI_TxByte(token);
 8000c7a:	78fb      	ldrb	r3, [r7, #3]
 8000c7c:	4618      	mov	r0, r3
 8000c7e:	f7ff fef1 	bl	8000a64 <SPI_TxByte>

  /* 데이터 토큰인 경우 */
  if (token != 0xFD)
 8000c82:	78fb      	ldrb	r3, [r7, #3]
 8000c84:	2bfd      	cmp	r3, #253	; 0xfd
 8000c86:	d031      	beq.n	8000cec <SD_TxDataBlock+0x90>
  {
    wc = 0;
 8000c88:	2300      	movs	r3, #0
 8000c8a:	73bb      	strb	r3, [r7, #14]

    /* 512 바이트 데이터 전송 */
    do
    {
      SPI_TxByte(*buff++);
 8000c8c:	687b      	ldr	r3, [r7, #4]
 8000c8e:	1c5a      	adds	r2, r3, #1
 8000c90:	607a      	str	r2, [r7, #4]
 8000c92:	781b      	ldrb	r3, [r3, #0]
 8000c94:	4618      	mov	r0, r3
 8000c96:	f7ff fee5 	bl	8000a64 <SPI_TxByte>
      SPI_TxByte(*buff++);
 8000c9a:	687b      	ldr	r3, [r7, #4]
 8000c9c:	1c5a      	adds	r2, r3, #1
 8000c9e:	607a      	str	r2, [r7, #4]
 8000ca0:	781b      	ldrb	r3, [r3, #0]
 8000ca2:	4618      	mov	r0, r3
 8000ca4:	f7ff fede 	bl	8000a64 <SPI_TxByte>
    } while (--wc);
 8000ca8:	7bbb      	ldrb	r3, [r7, #14]
 8000caa:	3b01      	subs	r3, #1
 8000cac:	73bb      	strb	r3, [r7, #14]
 8000cae:	7bbb      	ldrb	r3, [r7, #14]
 8000cb0:	2b00      	cmp	r3, #0
 8000cb2:	d1eb      	bne.n	8000c8c <SD_TxDataBlock+0x30>

    SPI_RxByte(); /* CRC 무시 */
 8000cb4:	f7ff fef0 	bl	8000a98 <SPI_RxByte>
    SPI_RxByte();
 8000cb8:	f7ff feee 	bl	8000a98 <SPI_RxByte>

    /* 데이트 응답 수신 */
    while (i <= 64)
 8000cbc:	e00b      	b.n	8000cd6 <SD_TxDataBlock+0x7a>
    {
      resp = SPI_RxByte();
 8000cbe:	f7ff feeb 	bl	8000a98 <SPI_RxByte>
 8000cc2:	4603      	mov	r3, r0
 8000cc4:	73fb      	strb	r3, [r7, #15]

      /* 에러 응답 처리 */
      if ((resp & 0x1F) == 0x05)
 8000cc6:	7bfb      	ldrb	r3, [r7, #15]
 8000cc8:	f003 031f 	and.w	r3, r3, #31
 8000ccc:	2b05      	cmp	r3, #5
 8000cce:	d006      	beq.n	8000cde <SD_TxDataBlock+0x82>
        break;

      i++;
 8000cd0:	7b7b      	ldrb	r3, [r7, #13]
 8000cd2:	3301      	adds	r3, #1
 8000cd4:	737b      	strb	r3, [r7, #13]
    while (i <= 64)
 8000cd6:	7b7b      	ldrb	r3, [r7, #13]
 8000cd8:	2b40      	cmp	r3, #64	; 0x40
 8000cda:	d9f0      	bls.n	8000cbe <SD_TxDataBlock+0x62>
 8000cdc:	e000      	b.n	8000ce0 <SD_TxDataBlock+0x84>
        break;
 8000cde:	bf00      	nop
    }

    /* SPI 수신 버퍼 Clear */
    while (SPI_RxByte() == 0)
 8000ce0:	bf00      	nop
 8000ce2:	f7ff fed9 	bl	8000a98 <SPI_RxByte>
 8000ce6:	4603      	mov	r3, r0
 8000ce8:	2b00      	cmp	r3, #0
 8000cea:	d0fa      	beq.n	8000ce2 <SD_TxDataBlock+0x86>
      ;
  }

  if ((resp & 0x1F) == 0x05)
 8000cec:	7bfb      	ldrb	r3, [r7, #15]
 8000cee:	f003 031f 	and.w	r3, r3, #31
 8000cf2:	2b05      	cmp	r3, #5
 8000cf4:	d101      	bne.n	8000cfa <SD_TxDataBlock+0x9e>
    return TRUE;
 8000cf6:	2301      	movs	r3, #1
 8000cf8:	e000      	b.n	8000cfc <SD_TxDataBlock+0xa0>
  else
    return FALSE;
 8000cfa:	2300      	movs	r3, #0
}
 8000cfc:	4618      	mov	r0, r3
 8000cfe:	3710      	adds	r7, #16
 8000d00:	46bd      	mov	sp, r7
 8000d02:	bd80      	pop	{r7, pc}

08000d04 <SD_SendCmd>:
#endif /* _READONLY */

/* CMD 패킷 전송 */
static BYTE SD_SendCmd(BYTE cmd, DWORD arg)
{
 8000d04:	b580      	push	{r7, lr}
 8000d06:	b084      	sub	sp, #16
 8000d08:	af00      	add	r7, sp, #0
 8000d0a:	4603      	mov	r3, r0
 8000d0c:	6039      	str	r1, [r7, #0]
 8000d0e:	71fb      	strb	r3, [r7, #7]
  uint8_t crc, res;

  /* SD카드 대기 */
  if (SD_ReadyWait() != 0xFF)
 8000d10:	f7ff feee 	bl	8000af0 <SD_ReadyWait>
 8000d14:	4603      	mov	r3, r0
 8000d16:	2bff      	cmp	r3, #255	; 0xff
 8000d18:	d001      	beq.n	8000d1e <SD_SendCmd+0x1a>
    return 0xFF;
 8000d1a:	23ff      	movs	r3, #255	; 0xff
 8000d1c:	e040      	b.n	8000da0 <SD_SendCmd+0x9c>

  /* 명령 패킷 전송 */
  SPI_TxByte(cmd);               /* Command */
 8000d1e:	79fb      	ldrb	r3, [r7, #7]
 8000d20:	4618      	mov	r0, r3
 8000d22:	f7ff fe9f 	bl	8000a64 <SPI_TxByte>
  SPI_TxByte((BYTE)(arg >> 24)); /* Argument[31..24] */
 8000d26:	683b      	ldr	r3, [r7, #0]
 8000d28:	0e1b      	lsrs	r3, r3, #24
 8000d2a:	b2db      	uxtb	r3, r3
 8000d2c:	4618      	mov	r0, r3
 8000d2e:	f7ff fe99 	bl	8000a64 <SPI_TxByte>
  SPI_TxByte((BYTE)(arg >> 16)); /* Argument[23..16] */
 8000d32:	683b      	ldr	r3, [r7, #0]
 8000d34:	0c1b      	lsrs	r3, r3, #16
 8000d36:	b2db      	uxtb	r3, r3
 8000d38:	4618      	mov	r0, r3
 8000d3a:	f7ff fe93 	bl	8000a64 <SPI_TxByte>
  SPI_TxByte((BYTE)(arg >> 8));  /* Argument[15..8] */
 8000d3e:	683b      	ldr	r3, [r7, #0]
 8000d40:	0a1b      	lsrs	r3, r3, #8
 8000d42:	b2db      	uxtb	r3, r3
 8000d44:	4618      	mov	r0, r3
 8000d46:	f7ff fe8d 	bl	8000a64 <SPI_TxByte>
  SPI_TxByte((BYTE)arg);         /* Argument[7..0] */
 8000d4a:	683b      	ldr	r3, [r7, #0]
 8000d4c:	b2db      	uxtb	r3, r3
 8000d4e:	4618      	mov	r0, r3
 8000d50:	f7ff fe88 	bl	8000a64 <SPI_TxByte>

  /* 명령별 CRC 준비 */
  crc = 0;
 8000d54:	2300      	movs	r3, #0
 8000d56:	73fb      	strb	r3, [r7, #15]
  if (cmd == CMD0)
 8000d58:	79fb      	ldrb	r3, [r7, #7]
 8000d5a:	2b40      	cmp	r3, #64	; 0x40
 8000d5c:	d101      	bne.n	8000d62 <SD_SendCmd+0x5e>
    crc = 0x95; /* CRC for CMD0(0) */
 8000d5e:	2395      	movs	r3, #149	; 0x95
 8000d60:	73fb      	strb	r3, [r7, #15]

  if (cmd == CMD8)
 8000d62:	79fb      	ldrb	r3, [r7, #7]
 8000d64:	2b48      	cmp	r3, #72	; 0x48
 8000d66:	d101      	bne.n	8000d6c <SD_SendCmd+0x68>
    crc = 0x87; /* CRC for CMD8(0x1AA) */
 8000d68:	2387      	movs	r3, #135	; 0x87
 8000d6a:	73fb      	strb	r3, [r7, #15]

  /* CRC 전송 */
  SPI_TxByte(crc);
 8000d6c:	7bfb      	ldrb	r3, [r7, #15]
 8000d6e:	4618      	mov	r0, r3
 8000d70:	f7ff fe78 	bl	8000a64 <SPI_TxByte>

  /* CMD12 Stop Reading 명령인 경우에는 응답 바이트 하나를 버린다 */
  if (cmd == CMD12)
 8000d74:	79fb      	ldrb	r3, [r7, #7]
 8000d76:	2b4c      	cmp	r3, #76	; 0x4c
 8000d78:	d101      	bne.n	8000d7e <SD_SendCmd+0x7a>
    SPI_RxByte();
 8000d7a:	f7ff fe8d 	bl	8000a98 <SPI_RxByte>

  /* 10회 내에 정상 데이터를 수신한다. */
  uint8_t n = 10;
 8000d7e:	230a      	movs	r3, #10
 8000d80:	73bb      	strb	r3, [r7, #14]
  do
  {
    res = SPI_RxByte();
 8000d82:	f7ff fe89 	bl	8000a98 <SPI_RxByte>
 8000d86:	4603      	mov	r3, r0
 8000d88:	737b      	strb	r3, [r7, #13]
  } while ((res & 0x80) && --n);
 8000d8a:	f997 300d 	ldrsb.w	r3, [r7, #13]
 8000d8e:	2b00      	cmp	r3, #0
 8000d90:	da05      	bge.n	8000d9e <SD_SendCmd+0x9a>
 8000d92:	7bbb      	ldrb	r3, [r7, #14]
 8000d94:	3b01      	subs	r3, #1
 8000d96:	73bb      	strb	r3, [r7, #14]
 8000d98:	7bbb      	ldrb	r3, [r7, #14]
 8000d9a:	2b00      	cmp	r3, #0
 8000d9c:	d1f1      	bne.n	8000d82 <SD_SendCmd+0x7e>

  return res;
 8000d9e:	7b7b      	ldrb	r3, [r7, #13]
}
 8000da0:	4618      	mov	r0, r3
 8000da2:	3710      	adds	r7, #16
 8000da4:	46bd      	mov	sp, r7
 8000da6:	bd80      	pop	{r7, pc}

08000da8 <SD_disk_initialize>:
  user_diskio.c 파일에서 사용된다.
-----------------------------------------------------------------------*/

/* SD카드 초기화 */
DSTATUS SD_disk_initialize(BYTE drv)
{
 8000da8:	b590      	push	{r4, r7, lr}
 8000daa:	b085      	sub	sp, #20
 8000dac:	af00      	add	r7, sp, #0
 8000dae:	4603      	mov	r3, r0
 8000db0:	71fb      	strb	r3, [r7, #7]
  uint8_t n, type, ocr[4];

  /* 한종류의 드라이브만 지원 */
  if (drv)
 8000db2:	79fb      	ldrb	r3, [r7, #7]
 8000db4:	2b00      	cmp	r3, #0
 8000db6:	d001      	beq.n	8000dbc <SD_disk_initialize+0x14>
    return STA_NOINIT;
 8000db8:	2301      	movs	r3, #1
 8000dba:	e0d5      	b.n	8000f68 <SD_disk_initialize+0x1c0>

  /* SD카드 미삽입 */
  if (Stat & STA_NODISK)
 8000dbc:	4b6c      	ldr	r3, [pc, #432]	; (8000f70 <SD_disk_initialize+0x1c8>)
 8000dbe:	781b      	ldrb	r3, [r3, #0]
 8000dc0:	b2db      	uxtb	r3, r3
 8000dc2:	f003 0302 	and.w	r3, r3, #2
 8000dc6:	2b00      	cmp	r3, #0
 8000dc8:	d003      	beq.n	8000dd2 <SD_disk_initialize+0x2a>
    return Stat;
 8000dca:	4b69      	ldr	r3, [pc, #420]	; (8000f70 <SD_disk_initialize+0x1c8>)
 8000dcc:	781b      	ldrb	r3, [r3, #0]
 8000dce:	b2db      	uxtb	r3, r3
 8000dd0:	e0ca      	b.n	8000f68 <SD_disk_initialize+0x1c0>

  /* SD카드 Power On */
  SD_PowerOn();
 8000dd2:	f7ff fea9 	bl	8000b28 <SD_PowerOn>

  /* SPI 통신을 위해 Chip Select */
  SELECT();
 8000dd6:	f7ff fe2d 	bl	8000a34 <SELECT>

  /* SD카드 타입변수 초기화 */
  type = 0;
 8000dda:	2300      	movs	r3, #0
 8000ddc:	73bb      	strb	r3, [r7, #14]

  /* Idle 상태 진입 */
  if (SD_SendCmd(CMD0, 0) == 1)
 8000dde:	2100      	movs	r1, #0
 8000de0:	2040      	movs	r0, #64	; 0x40
 8000de2:	f7ff ff8f 	bl	8000d04 <SD_SendCmd>
 8000de6:	4603      	mov	r3, r0
 8000de8:	2b01      	cmp	r3, #1
 8000dea:	f040 80a5 	bne.w	8000f38 <SD_disk_initialize+0x190>
  {
    /* 타이머 1초 설정 */
    Timer1 = 100;
 8000dee:	4b61      	ldr	r3, [pc, #388]	; (8000f74 <SD_disk_initialize+0x1cc>)
 8000df0:	2264      	movs	r2, #100	; 0x64
 8000df2:	701a      	strb	r2, [r3, #0]

    /* SD 인터페이스 동작 조건 확인 */
    if (SD_SendCmd(CMD8, 0x1AA) == 1)
 8000df4:	f44f 71d5 	mov.w	r1, #426	; 0x1aa
 8000df8:	2048      	movs	r0, #72	; 0x48
 8000dfa:	f7ff ff83 	bl	8000d04 <SD_SendCmd>
 8000dfe:	4603      	mov	r3, r0
 8000e00:	2b01      	cmp	r3, #1
 8000e02:	d158      	bne.n	8000eb6 <SD_disk_initialize+0x10e>
    {
      /* SDC Ver2+ */
      for (n = 0; n < 4; n++)
 8000e04:	2300      	movs	r3, #0
 8000e06:	73fb      	strb	r3, [r7, #15]
 8000e08:	e00c      	b.n	8000e24 <SD_disk_initialize+0x7c>
      {
        ocr[n] = SPI_RxByte();
 8000e0a:	7bfc      	ldrb	r4, [r7, #15]
 8000e0c:	f7ff fe44 	bl	8000a98 <SPI_RxByte>
 8000e10:	4603      	mov	r3, r0
 8000e12:	461a      	mov	r2, r3
 8000e14:	f104 0310 	add.w	r3, r4, #16
 8000e18:	443b      	add	r3, r7
 8000e1a:	f803 2c08 	strb.w	r2, [r3, #-8]
      for (n = 0; n < 4; n++)
 8000e1e:	7bfb      	ldrb	r3, [r7, #15]
 8000e20:	3301      	adds	r3, #1
 8000e22:	73fb      	strb	r3, [r7, #15]
 8000e24:	7bfb      	ldrb	r3, [r7, #15]
 8000e26:	2b03      	cmp	r3, #3
 8000e28:	d9ef      	bls.n	8000e0a <SD_disk_initialize+0x62>
      }

      if (ocr[2] == 0x01 && ocr[3] == 0xAA)
 8000e2a:	7abb      	ldrb	r3, [r7, #10]
 8000e2c:	2b01      	cmp	r3, #1
 8000e2e:	f040 8083 	bne.w	8000f38 <SD_disk_initialize+0x190>
 8000e32:	7afb      	ldrb	r3, [r7, #11]
 8000e34:	2baa      	cmp	r3, #170	; 0xaa
 8000e36:	d17f      	bne.n	8000f38 <SD_disk_initialize+0x190>
      {
        /* 2.7-3.6V 전압범위 동작 */
        do
        {
          if (SD_SendCmd(CMD55, 0) <= 1 && SD_SendCmd(CMD41, 1UL << 30) == 0)
 8000e38:	2100      	movs	r1, #0
 8000e3a:	2077      	movs	r0, #119	; 0x77
 8000e3c:	f7ff ff62 	bl	8000d04 <SD_SendCmd>
 8000e40:	4603      	mov	r3, r0
 8000e42:	2b01      	cmp	r3, #1
 8000e44:	d807      	bhi.n	8000e56 <SD_disk_initialize+0xae>
 8000e46:	f04f 4180 	mov.w	r1, #1073741824	; 0x40000000
 8000e4a:	2069      	movs	r0, #105	; 0x69
 8000e4c:	f7ff ff5a 	bl	8000d04 <SD_SendCmd>
 8000e50:	4603      	mov	r3, r0
 8000e52:	2b00      	cmp	r3, #0
 8000e54:	d005      	beq.n	8000e62 <SD_disk_initialize+0xba>
            break; /* ACMD41 with HCS bit */
        } while (Timer1);
 8000e56:	4b47      	ldr	r3, [pc, #284]	; (8000f74 <SD_disk_initialize+0x1cc>)
 8000e58:	781b      	ldrb	r3, [r3, #0]
 8000e5a:	b2db      	uxtb	r3, r3
 8000e5c:	2b00      	cmp	r3, #0
 8000e5e:	d1eb      	bne.n	8000e38 <SD_disk_initialize+0x90>
 8000e60:	e000      	b.n	8000e64 <SD_disk_initialize+0xbc>
            break; /* ACMD41 with HCS bit */
 8000e62:	bf00      	nop

        if (Timer1 && SD_SendCmd(CMD58, 0) == 0)
 8000e64:	4b43      	ldr	r3, [pc, #268]	; (8000f74 <SD_disk_initialize+0x1cc>)
 8000e66:	781b      	ldrb	r3, [r3, #0]
 8000e68:	b2db      	uxtb	r3, r3
 8000e6a:	2b00      	cmp	r3, #0
 8000e6c:	d064      	beq.n	8000f38 <SD_disk_initialize+0x190>
 8000e6e:	2100      	movs	r1, #0
 8000e70:	207a      	movs	r0, #122	; 0x7a
 8000e72:	f7ff ff47 	bl	8000d04 <SD_SendCmd>
 8000e76:	4603      	mov	r3, r0
 8000e78:	2b00      	cmp	r3, #0
 8000e7a:	d15d      	bne.n	8000f38 <SD_disk_initialize+0x190>
        {
          /* Check CCS bit */
          for (n = 0; n < 4; n++)
 8000e7c:	2300      	movs	r3, #0
 8000e7e:	73fb      	strb	r3, [r7, #15]
 8000e80:	e00c      	b.n	8000e9c <SD_disk_initialize+0xf4>
          {
            ocr[n] = SPI_RxByte();
 8000e82:	7bfc      	ldrb	r4, [r7, #15]
 8000e84:	f7ff fe08 	bl	8000a98 <SPI_RxByte>
 8000e88:	4603      	mov	r3, r0
 8000e8a:	461a      	mov	r2, r3
 8000e8c:	f104 0310 	add.w	r3, r4, #16
 8000e90:	443b      	add	r3, r7
 8000e92:	f803 2c08 	strb.w	r2, [r3, #-8]
          for (n = 0; n < 4; n++)
 8000e96:	7bfb      	ldrb	r3, [r7, #15]
 8000e98:	3301      	adds	r3, #1
 8000e9a:	73fb      	strb	r3, [r7, #15]
 8000e9c:	7bfb      	ldrb	r3, [r7, #15]
 8000e9e:	2b03      	cmp	r3, #3
 8000ea0:	d9ef      	bls.n	8000e82 <SD_disk_initialize+0xda>
          }

          type = (ocr[0] & 0x40) ? 6 : 2;
 8000ea2:	7a3b      	ldrb	r3, [r7, #8]
 8000ea4:	f003 0340 	and.w	r3, r3, #64	; 0x40
 8000ea8:	2b00      	cmp	r3, #0
 8000eaa:	d001      	beq.n	8000eb0 <SD_disk_initialize+0x108>
 8000eac:	2306      	movs	r3, #6
 8000eae:	e000      	b.n	8000eb2 <SD_disk_initialize+0x10a>
 8000eb0:	2302      	movs	r3, #2
 8000eb2:	73bb      	strb	r3, [r7, #14]
 8000eb4:	e040      	b.n	8000f38 <SD_disk_initialize+0x190>
      }
    }
    else
    {
      /* SDC Ver1 or MMC */
      type = (SD_SendCmd(CMD55, 0) <= 1 && SD_SendCmd(CMD41, 0) <= 1) ? 2 : 1; /* SDC : MMC */
 8000eb6:	2100      	movs	r1, #0
 8000eb8:	2077      	movs	r0, #119	; 0x77
 8000eba:	f7ff ff23 	bl	8000d04 <SD_SendCmd>
 8000ebe:	4603      	mov	r3, r0
 8000ec0:	2b01      	cmp	r3, #1
 8000ec2:	d808      	bhi.n	8000ed6 <SD_disk_initialize+0x12e>
 8000ec4:	2100      	movs	r1, #0
 8000ec6:	2069      	movs	r0, #105	; 0x69
 8000ec8:	f7ff ff1c 	bl	8000d04 <SD_SendCmd>
 8000ecc:	4603      	mov	r3, r0
 8000ece:	2b01      	cmp	r3, #1
 8000ed0:	d801      	bhi.n	8000ed6 <SD_disk_initialize+0x12e>
 8000ed2:	2302      	movs	r3, #2
 8000ed4:	e000      	b.n	8000ed8 <SD_disk_initialize+0x130>
 8000ed6:	2301      	movs	r3, #1
 8000ed8:	73bb      	strb	r3, [r7, #14]

      do
      {
        if (type == 2)
 8000eda:	7bbb      	ldrb	r3, [r7, #14]
 8000edc:	2b02      	cmp	r3, #2
 8000ede:	d10e      	bne.n	8000efe <SD_disk_initialize+0x156>
        {
          if (SD_SendCmd(CMD55, 0) <= 1 && SD_SendCmd(CMD41, 0) == 0)
 8000ee0:	2100      	movs	r1, #0
 8000ee2:	2077      	movs	r0, #119	; 0x77
 8000ee4:	f7ff ff0e 	bl	8000d04 <SD_SendCmd>
 8000ee8:	4603      	mov	r3, r0
 8000eea:	2b01      	cmp	r3, #1
 8000eec:	d80e      	bhi.n	8000f0c <SD_disk_initialize+0x164>
 8000eee:	2100      	movs	r1, #0
 8000ef0:	2069      	movs	r0, #105	; 0x69
 8000ef2:	f7ff ff07 	bl	8000d04 <SD_SendCmd>
 8000ef6:	4603      	mov	r3, r0
 8000ef8:	2b00      	cmp	r3, #0
 8000efa:	d107      	bne.n	8000f0c <SD_disk_initialize+0x164>
            break; /* ACMD41 */
 8000efc:	e00d      	b.n	8000f1a <SD_disk_initialize+0x172>
        }
        else
        {
          if (SD_SendCmd(CMD1, 0) == 0)
 8000efe:	2100      	movs	r1, #0
 8000f00:	2041      	movs	r0, #65	; 0x41
 8000f02:	f7ff feff 	bl	8000d04 <SD_SendCmd>
 8000f06:	4603      	mov	r3, r0
 8000f08:	2b00      	cmp	r3, #0
 8000f0a:	d005      	beq.n	8000f18 <SD_disk_initialize+0x170>
            break; /* CMD1 */
        }
      } while (Timer1);
 8000f0c:	4b19      	ldr	r3, [pc, #100]	; (8000f74 <SD_disk_initialize+0x1cc>)
 8000f0e:	781b      	ldrb	r3, [r3, #0]
 8000f10:	b2db      	uxtb	r3, r3
 8000f12:	2b00      	cmp	r3, #0
 8000f14:	d1e1      	bne.n	8000eda <SD_disk_initialize+0x132>
 8000f16:	e000      	b.n	8000f1a <SD_disk_initialize+0x172>
            break; /* CMD1 */
 8000f18:	bf00      	nop

      if (!Timer1 || SD_SendCmd(CMD16, 512) != 0)
 8000f1a:	4b16      	ldr	r3, [pc, #88]	; (8000f74 <SD_disk_initialize+0x1cc>)
 8000f1c:	781b      	ldrb	r3, [r3, #0]
 8000f1e:	b2db      	uxtb	r3, r3
 8000f20:	2b00      	cmp	r3, #0
 8000f22:	d007      	beq.n	8000f34 <SD_disk_initialize+0x18c>
 8000f24:	f44f 7100 	mov.w	r1, #512	; 0x200
 8000f28:	2050      	movs	r0, #80	; 0x50
 8000f2a:	f7ff feeb 	bl	8000d04 <SD_SendCmd>
 8000f2e:	4603      	mov	r3, r0
 8000f30:	2b00      	cmp	r3, #0
 8000f32:	d001      	beq.n	8000f38 <SD_disk_initialize+0x190>
      {
        /* 블럭 길이 선택 */
        type = 0;
 8000f34:	2300      	movs	r3, #0
 8000f36:	73bb      	strb	r3, [r7, #14]
      }
    }
  }

  CardType = type;
 8000f38:	4a0f      	ldr	r2, [pc, #60]	; (8000f78 <SD_disk_initialize+0x1d0>)
 8000f3a:	7bbb      	ldrb	r3, [r7, #14]
 8000f3c:	7013      	strb	r3, [r2, #0]

  DESELECT();
 8000f3e:	f7ff fd85 	bl	8000a4c <DESELECT>

  SPI_RxByte(); /* Idle 상태 전환 (Release DO) */
 8000f42:	f7ff fda9 	bl	8000a98 <SPI_RxByte>

  if (type)
 8000f46:	7bbb      	ldrb	r3, [r7, #14]
 8000f48:	2b00      	cmp	r3, #0
 8000f4a:	d008      	beq.n	8000f5e <SD_disk_initialize+0x1b6>
  {
    /* Clear STA_NOINIT */
    Stat &= ~STA_NOINIT;
 8000f4c:	4b08      	ldr	r3, [pc, #32]	; (8000f70 <SD_disk_initialize+0x1c8>)
 8000f4e:	781b      	ldrb	r3, [r3, #0]
 8000f50:	b2db      	uxtb	r3, r3
 8000f52:	f023 0301 	bic.w	r3, r3, #1
 8000f56:	b2da      	uxtb	r2, r3
 8000f58:	4b05      	ldr	r3, [pc, #20]	; (8000f70 <SD_disk_initialize+0x1c8>)
 8000f5a:	701a      	strb	r2, [r3, #0]
 8000f5c:	e001      	b.n	8000f62 <SD_disk_initialize+0x1ba>
  }
  else
  {
    /* Initialization failed */
    SD_PowerOff();
 8000f5e:	f7ff fe2f 	bl	8000bc0 <SD_PowerOff>
  }

  return Stat;
 8000f62:	4b03      	ldr	r3, [pc, #12]	; (8000f70 <SD_disk_initialize+0x1c8>)
 8000f64:	781b      	ldrb	r3, [r3, #0]
 8000f66:	b2db      	uxtb	r3, r3
}
 8000f68:	4618      	mov	r0, r3
 8000f6a:	3714      	adds	r7, #20
 8000f6c:	46bd      	mov	sp, r7
 8000f6e:	bd90      	pop	{r4, r7, pc}
 8000f70:	20000004 	.word	0x20000004
 8000f74:	20002a54 	.word	0x20002a54
 8000f78:	20002444 	.word	0x20002444

08000f7c <SD_disk_status>:

/* 디스크 상태 확인 */
DSTATUS SD_disk_status(BYTE drv)
{
 8000f7c:	b480      	push	{r7}
 8000f7e:	b083      	sub	sp, #12
 8000f80:	af00      	add	r7, sp, #0
 8000f82:	4603      	mov	r3, r0
 8000f84:	71fb      	strb	r3, [r7, #7]
  if (drv)
 8000f86:	79fb      	ldrb	r3, [r7, #7]
 8000f88:	2b00      	cmp	r3, #0
 8000f8a:	d001      	beq.n	8000f90 <SD_disk_status+0x14>
    return STA_NOINIT;
 8000f8c:	2301      	movs	r3, #1
 8000f8e:	e002      	b.n	8000f96 <SD_disk_status+0x1a>

  return Stat;
 8000f90:	4b04      	ldr	r3, [pc, #16]	; (8000fa4 <SD_disk_status+0x28>)
 8000f92:	781b      	ldrb	r3, [r3, #0]
 8000f94:	b2db      	uxtb	r3, r3
}
 8000f96:	4618      	mov	r0, r3
 8000f98:	370c      	adds	r7, #12
 8000f9a:	46bd      	mov	sp, r7
 8000f9c:	f85d 7b04 	ldr.w	r7, [sp], #4
 8000fa0:	4770      	bx	lr
 8000fa2:	bf00      	nop
 8000fa4:	20000004 	.word	0x20000004

08000fa8 <SD_disk_read>:

/* 섹터 읽기 */
DRESULT SD_disk_read(BYTE pdrv, BYTE *buff, DWORD sector, UINT count)
{
 8000fa8:	b580      	push	{r7, lr}
 8000faa:	b084      	sub	sp, #16
 8000fac:	af00      	add	r7, sp, #0
 8000fae:	60b9      	str	r1, [r7, #8]
 8000fb0:	607a      	str	r2, [r7, #4]
 8000fb2:	603b      	str	r3, [r7, #0]
 8000fb4:	4603      	mov	r3, r0
 8000fb6:	73fb      	strb	r3, [r7, #15]
  if (pdrv || !count)
 8000fb8:	7bfb      	ldrb	r3, [r7, #15]
 8000fba:	2b00      	cmp	r3, #0
 8000fbc:	d102      	bne.n	8000fc4 <SD_disk_read+0x1c>
 8000fbe:	683b      	ldr	r3, [r7, #0]
 8000fc0:	2b00      	cmp	r3, #0
 8000fc2:	d101      	bne.n	8000fc8 <SD_disk_read+0x20>
    return RES_PARERR;
 8000fc4:	2304      	movs	r3, #4
 8000fc6:	e051      	b.n	800106c <SD_disk_read+0xc4>

  if (Stat & STA_NOINIT)
 8000fc8:	4b2a      	ldr	r3, [pc, #168]	; (8001074 <SD_disk_read+0xcc>)
 8000fca:	781b      	ldrb	r3, [r3, #0]
 8000fcc:	b2db      	uxtb	r3, r3
 8000fce:	f003 0301 	and.w	r3, r3, #1
 8000fd2:	2b00      	cmp	r3, #0
 8000fd4:	d001      	beq.n	8000fda <SD_disk_read+0x32>
    return RES_NOTRDY;
 8000fd6:	2303      	movs	r3, #3
 8000fd8:	e048      	b.n	800106c <SD_disk_read+0xc4>

  if (!(CardType & 4))
 8000fda:	4b27      	ldr	r3, [pc, #156]	; (8001078 <SD_disk_read+0xd0>)
 8000fdc:	781b      	ldrb	r3, [r3, #0]
 8000fde:	f003 0304 	and.w	r3, r3, #4
 8000fe2:	2b00      	cmp	r3, #0
 8000fe4:	d102      	bne.n	8000fec <SD_disk_read+0x44>
    sector *= 512; /* 지정 sector를 Byte addressing 단위로 변경 */
 8000fe6:	687b      	ldr	r3, [r7, #4]
 8000fe8:	025b      	lsls	r3, r3, #9
 8000fea:	607b      	str	r3, [r7, #4]

  SELECT();
 8000fec:	f7ff fd22 	bl	8000a34 <SELECT>

  if (count == 1)
 8000ff0:	683b      	ldr	r3, [r7, #0]
 8000ff2:	2b01      	cmp	r3, #1
 8000ff4:	d111      	bne.n	800101a <SD_disk_read+0x72>
  {
    /* 싱글 블록 읽기 */
    if ((SD_SendCmd(CMD17, sector) == 0) && SD_RxDataBlock(buff, 512))
 8000ff6:	6879      	ldr	r1, [r7, #4]
 8000ff8:	2051      	movs	r0, #81	; 0x51
 8000ffa:	f7ff fe83 	bl	8000d04 <SD_SendCmd>
 8000ffe:	4603      	mov	r3, r0
 8001000:	2b00      	cmp	r3, #0
 8001002:	d129      	bne.n	8001058 <SD_disk_read+0xb0>
 8001004:	f44f 7100 	mov.w	r1, #512	; 0x200
 8001008:	68b8      	ldr	r0, [r7, #8]
 800100a:	f7ff fdf1 	bl	8000bf0 <SD_RxDataBlock>
 800100e:	4603      	mov	r3, r0
 8001010:	2b00      	cmp	r3, #0
 8001012:	d021      	beq.n	8001058 <SD_disk_read+0xb0>
      count = 0;
 8001014:	2300      	movs	r3, #0
 8001016:	603b      	str	r3, [r7, #0]
 8001018:	e01e      	b.n	8001058 <SD_disk_read+0xb0>
  }
  else
  {
    /* 다중 블록 읽기 */
    if (SD_SendCmd(CMD18, sector) == 0)
 800101a:	6879      	ldr	r1, [r7, #4]
 800101c:	2052      	movs	r0, #82	; 0x52
 800101e:	f7ff fe71 	bl	8000d04 <SD_SendCmd>
 8001022:	4603      	mov	r3, r0
 8001024:	2b00      	cmp	r3, #0
 8001026:	d117      	bne.n	8001058 <SD_disk_read+0xb0>
    {
      do
      {
        if (!SD_RxDataBlock(buff, 512))
 8001028:	f44f 7100 	mov.w	r1, #512	; 0x200
 800102c:	68b8      	ldr	r0, [r7, #8]
 800102e:	f7ff fddf 	bl	8000bf0 <SD_RxDataBlock>
 8001032:	4603      	mov	r3, r0
 8001034:	2b00      	cmp	r3, #0
 8001036:	d00a      	beq.n	800104e <SD_disk_read+0xa6>
          break;

        buff += 512;
 8001038:	68bb      	ldr	r3, [r7, #8]
 800103a:	f503 7300 	add.w	r3, r3, #512	; 0x200
 800103e:	60bb      	str	r3, [r7, #8]
      } while (--count);
 8001040:	683b      	ldr	r3, [r7, #0]
 8001042:	3b01      	subs	r3, #1
 8001044:	603b      	str	r3, [r7, #0]
 8001046:	683b      	ldr	r3, [r7, #0]
 8001048:	2b00      	cmp	r3, #0
 800104a:	d1ed      	bne.n	8001028 <SD_disk_read+0x80>
 800104c:	e000      	b.n	8001050 <SD_disk_read+0xa8>
          break;
 800104e:	bf00      	nop

      /* STOP_TRANSMISSION, 모든 블럭을 다 읽은 후, 전송 중지 요청 */
      SD_SendCmd(CMD12, 0);
 8001050:	2100      	movs	r1, #0
 8001052:	204c      	movs	r0, #76	; 0x4c
 8001054:	f7ff fe56 	bl	8000d04 <SD_SendCmd>
    }
  }

  DESELECT();
 8001058:	f7ff fcf8 	bl	8000a4c <DESELECT>
  SPI_RxByte(); /* Idle 상태(Release DO) */
 800105c:	f7ff fd1c 	bl	8000a98 <SPI_RxByte>

  return count ? RES_ERROR : RES_OK;
 8001060:	683b      	ldr	r3, [r7, #0]
 8001062:	2b00      	cmp	r3, #0
 8001064:	bf14      	ite	ne
 8001066:	2301      	movne	r3, #1
 8001068:	2300      	moveq	r3, #0
 800106a:	b2db      	uxtb	r3, r3
}
 800106c:	4618      	mov	r0, r3
 800106e:	3710      	adds	r7, #16
 8001070:	46bd      	mov	sp, r7
 8001072:	bd80      	pop	{r7, pc}
 8001074:	20000004 	.word	0x20000004
 8001078:	20002444 	.word	0x20002444

0800107c <SD_disk_write>:

/* 섹터 쓰기 */
#if _READONLY == 0
DRESULT SD_disk_write(BYTE pdrv, const BYTE *buff, DWORD sector, UINT count)
{
 800107c:	b580      	push	{r7, lr}
 800107e:	b084      	sub	sp, #16
 8001080:	af00      	add	r7, sp, #0
 8001082:	60b9      	str	r1, [r7, #8]
 8001084:	607a      	str	r2, [r7, #4]
 8001086:	603b      	str	r3, [r7, #0]
 8001088:	4603      	mov	r3, r0
 800108a:	73fb      	strb	r3, [r7, #15]
  if (pdrv || !count)
 800108c:	7bfb      	ldrb	r3, [r7, #15]
 800108e:	2b00      	cmp	r3, #0
 8001090:	d102      	bne.n	8001098 <SD_disk_write+0x1c>
 8001092:	683b      	ldr	r3, [r7, #0]
 8001094:	2b00      	cmp	r3, #0
 8001096:	d101      	bne.n	800109c <SD_disk_write+0x20>
    return RES_PARERR;
 8001098:	2304      	movs	r3, #4
 800109a:	e06b      	b.n	8001174 <SD_disk_write+0xf8>

  if (Stat & STA_NOINIT)
 800109c:	4b37      	ldr	r3, [pc, #220]	; (800117c <SD_disk_write+0x100>)
 800109e:	781b      	ldrb	r3, [r3, #0]
 80010a0:	b2db      	uxtb	r3, r3
 80010a2:	f003 0301 	and.w	r3, r3, #1
 80010a6:	2b00      	cmp	r3, #0
 80010a8:	d001      	beq.n	80010ae <SD_disk_write+0x32>
    return RES_NOTRDY;
 80010aa:	2303      	movs	r3, #3
 80010ac:	e062      	b.n	8001174 <SD_disk_write+0xf8>

  if (Stat & STA_PROTECT)
 80010ae:	4b33      	ldr	r3, [pc, #204]	; (800117c <SD_disk_write+0x100>)
 80010b0:	781b      	ldrb	r3, [r3, #0]
 80010b2:	b2db      	uxtb	r3, r3
 80010b4:	f003 0304 	and.w	r3, r3, #4
 80010b8:	2b00      	cmp	r3, #0
 80010ba:	d001      	beq.n	80010c0 <SD_disk_write+0x44>
    return RES_WRPRT;
 80010bc:	2302      	movs	r3, #2
 80010be:	e059      	b.n	8001174 <SD_disk_write+0xf8>

  if (!(CardType & 4))
 80010c0:	4b2f      	ldr	r3, [pc, #188]	; (8001180 <SD_disk_write+0x104>)
 80010c2:	781b      	ldrb	r3, [r3, #0]
 80010c4:	f003 0304 	and.w	r3, r3, #4
 80010c8:	2b00      	cmp	r3, #0
 80010ca:	d102      	bne.n	80010d2 <SD_disk_write+0x56>
    sector *= 512; /* 지정 sector를 Byte addressing 단위로 변경 */
 80010cc:	687b      	ldr	r3, [r7, #4]
 80010ce:	025b      	lsls	r3, r3, #9
 80010d0:	607b      	str	r3, [r7, #4]

  SELECT();
 80010d2:	f7ff fcaf 	bl	8000a34 <SELECT>

  if (count == 1)
 80010d6:	683b      	ldr	r3, [r7, #0]
 80010d8:	2b01      	cmp	r3, #1
 80010da:	d110      	bne.n	80010fe <SD_disk_write+0x82>
  {
    /* 싱글 블록 쓰기 */
    if ((SD_SendCmd(CMD24, sector) == 0) && SD_TxDataBlock(buff, 0xFE))
 80010dc:	6879      	ldr	r1, [r7, #4]
 80010de:	2058      	movs	r0, #88	; 0x58
 80010e0:	f7ff fe10 	bl	8000d04 <SD_SendCmd>
 80010e4:	4603      	mov	r3, r0
 80010e6:	2b00      	cmp	r3, #0
 80010e8:	d13a      	bne.n	8001160 <SD_disk_write+0xe4>
 80010ea:	21fe      	movs	r1, #254	; 0xfe
 80010ec:	68b8      	ldr	r0, [r7, #8]
 80010ee:	f7ff fdb5 	bl	8000c5c <SD_TxDataBlock>
 80010f2:	4603      	mov	r3, r0
 80010f4:	2b00      	cmp	r3, #0
 80010f6:	d033      	beq.n	8001160 <SD_disk_write+0xe4>
      count = 0;
 80010f8:	2300      	movs	r3, #0
 80010fa:	603b      	str	r3, [r7, #0]
 80010fc:	e030      	b.n	8001160 <SD_disk_write+0xe4>
  }
  else
  {
    /* 다중 블록 쓰기 */
    if (CardType & 2)
 80010fe:	4b20      	ldr	r3, [pc, #128]	; (8001180 <SD_disk_write+0x104>)
 8001100:	781b      	ldrb	r3, [r3, #0]
 8001102:	f003 0302 	and.w	r3, r3, #2
 8001106:	2b00      	cmp	r3, #0
 8001108:	d007      	beq.n	800111a <SD_disk_write+0x9e>
    {
      SD_SendCmd(CMD55, 0);
 800110a:	2100      	movs	r1, #0
 800110c:	2077      	movs	r0, #119	; 0x77
 800110e:	f7ff fdf9 	bl	8000d04 <SD_SendCmd>
      SD_SendCmd(CMD23, count); /* ACMD23 */
 8001112:	6839      	ldr	r1, [r7, #0]
 8001114:	2057      	movs	r0, #87	; 0x57
 8001116:	f7ff fdf5 	bl	8000d04 <SD_SendCmd>
    }

    if (SD_SendCmd(CMD25, sector) == 0)
 800111a:	6879      	ldr	r1, [r7, #4]
 800111c:	2059      	movs	r0, #89	; 0x59
 800111e:	f7ff fdf1 	bl	8000d04 <SD_SendCmd>
 8001122:	4603      	mov	r3, r0
 8001124:	2b00      	cmp	r3, #0
 8001126:	d11b      	bne.n	8001160 <SD_disk_write+0xe4>
    {
      do
      {
        if (!SD_TxDataBlock(buff, 0xFC))
 8001128:	21fc      	movs	r1, #252	; 0xfc
 800112a:	68b8      	ldr	r0, [r7, #8]
 800112c:	f7ff fd96 	bl	8000c5c <SD_TxDataBlock>
 8001130:	4603      	mov	r3, r0
 8001132:	2b00      	cmp	r3, #0
 8001134:	d00a      	beq.n	800114c <SD_disk_write+0xd0>
          break;

        buff += 512;
 8001136:	68bb      	ldr	r3, [r7, #8]
 8001138:	f503 7300 	add.w	r3, r3, #512	; 0x200
 800113c:	60bb      	str	r3, [r7, #8]
      } while (--count);
 800113e:	683b      	ldr	r3, [r7, #0]
 8001140:	3b01      	subs	r3, #1
 8001142:	603b      	str	r3, [r7, #0]
 8001144:	683b      	ldr	r3, [r7, #0]
 8001146:	2b00      	cmp	r3, #0
 8001148:	d1ee      	bne.n	8001128 <SD_disk_write+0xac>
 800114a:	e000      	b.n	800114e <SD_disk_write+0xd2>
          break;
 800114c:	bf00      	nop

      if (!SD_TxDataBlock(0, 0xFD))
 800114e:	21fd      	movs	r1, #253	; 0xfd
 8001150:	2000      	movs	r0, #0
 8001152:	f7ff fd83 	bl	8000c5c <SD_TxDataBlock>
 8001156:	4603      	mov	r3, r0
 8001158:	2b00      	cmp	r3, #0
 800115a:	d101      	bne.n	8001160 <SD_disk_write+0xe4>
      {
        count = 1;
 800115c:	2301      	movs	r3, #1
 800115e:	603b      	str	r3, [r7, #0]
      }
    }
  }

  DESELECT();
 8001160:	f7ff fc74 	bl	8000a4c <DESELECT>
  SPI_RxByte();
 8001164:	f7ff fc98 	bl	8000a98 <SPI_RxByte>

  return count ? RES_ERROR : RES_OK;
 8001168:	683b      	ldr	r3, [r7, #0]
 800116a:	2b00      	cmp	r3, #0
 800116c:	bf14      	ite	ne
 800116e:	2301      	movne	r3, #1
 8001170:	2300      	moveq	r3, #0
 8001172:	b2db      	uxtb	r3, r3
}
 8001174:	4618      	mov	r0, r3
 8001176:	3710      	adds	r7, #16
 8001178:	46bd      	mov	sp, r7
 800117a:	bd80      	pop	{r7, pc}
 800117c:	20000004 	.word	0x20000004
 8001180:	20002444 	.word	0x20002444

08001184 <SD_disk_ioctl>:
#endif /* _READONLY */

/* 기타 함수 */
DRESULT SD_disk_ioctl(BYTE drv, BYTE ctrl, void *buff)
{
 8001184:	b590      	push	{r4, r7, lr}
 8001186:	b08b      	sub	sp, #44	; 0x2c
 8001188:	af00      	add	r7, sp, #0
 800118a:	4603      	mov	r3, r0
 800118c:	603a      	str	r2, [r7, #0]
 800118e:	71fb      	strb	r3, [r7, #7]
 8001190:	460b      	mov	r3, r1
 8001192:	71bb      	strb	r3, [r7, #6]
  DRESULT res;
  BYTE n, csd[16], *ptr = buff;
 8001194:	683b      	ldr	r3, [r7, #0]
 8001196:	623b      	str	r3, [r7, #32]
  WORD csize;

  if (drv)
 8001198:	79fb      	ldrb	r3, [r7, #7]
 800119a:	2b00      	cmp	r3, #0
 800119c:	d001      	beq.n	80011a2 <SD_disk_ioctl+0x1e>
    return RES_PARERR;
 800119e:	2304      	movs	r3, #4
 80011a0:	e11b      	b.n	80013da <SD_disk_ioctl+0x256>

  res = RES_ERROR;
 80011a2:	2301      	movs	r3, #1
 80011a4:	f887 3027 	strb.w	r3, [r7, #39]	; 0x27

  if (ctrl == CTRL_POWER)
 80011a8:	79bb      	ldrb	r3, [r7, #6]
 80011aa:	2b05      	cmp	r3, #5
 80011ac:	d129      	bne.n	8001202 <SD_disk_ioctl+0x7e>
  {
    switch (*ptr)
 80011ae:	6a3b      	ldr	r3, [r7, #32]
 80011b0:	781b      	ldrb	r3, [r3, #0]
 80011b2:	2b02      	cmp	r3, #2
 80011b4:	d017      	beq.n	80011e6 <SD_disk_ioctl+0x62>
 80011b6:	2b02      	cmp	r3, #2
 80011b8:	dc1f      	bgt.n	80011fa <SD_disk_ioctl+0x76>
 80011ba:	2b00      	cmp	r3, #0
 80011bc:	d002      	beq.n	80011c4 <SD_disk_ioctl+0x40>
 80011be:	2b01      	cmp	r3, #1
 80011c0:	d00b      	beq.n	80011da <SD_disk_ioctl+0x56>
 80011c2:	e01a      	b.n	80011fa <SD_disk_ioctl+0x76>
    {
    case 0:
      if (SD_CheckPower())
 80011c4:	f7ff fd08 	bl	8000bd8 <SD_CheckPower>
 80011c8:	4603      	mov	r3, r0
 80011ca:	2b00      	cmp	r3, #0
 80011cc:	d001      	beq.n	80011d2 <SD_disk_ioctl+0x4e>
        SD_PowerOff(); /* Power Off */
 80011ce:	f7ff fcf7 	bl	8000bc0 <SD_PowerOff>
      res = RES_OK;
 80011d2:	2300      	movs	r3, #0
 80011d4:	f887 3027 	strb.w	r3, [r7, #39]	; 0x27
      break;
 80011d8:	e0fd      	b.n	80013d6 <SD_disk_ioctl+0x252>
    case 1:
      SD_PowerOn(); /* Power On */
 80011da:	f7ff fca5 	bl	8000b28 <SD_PowerOn>
      res = RES_OK;
 80011de:	2300      	movs	r3, #0
 80011e0:	f887 3027 	strb.w	r3, [r7, #39]	; 0x27
      break;
 80011e4:	e0f7      	b.n	80013d6 <SD_disk_ioctl+0x252>
    case 2:
      *(ptr + 1) = (BYTE)SD_CheckPower();
 80011e6:	6a3b      	ldr	r3, [r7, #32]
 80011e8:	1c5c      	adds	r4, r3, #1
 80011ea:	f7ff fcf5 	bl	8000bd8 <SD_CheckPower>
 80011ee:	4603      	mov	r3, r0
 80011f0:	7023      	strb	r3, [r4, #0]
      res = RES_OK; /* Power Check */
 80011f2:	2300      	movs	r3, #0
 80011f4:	f887 3027 	strb.w	r3, [r7, #39]	; 0x27
      break;
 80011f8:	e0ed      	b.n	80013d6 <SD_disk_ioctl+0x252>
    default:
      res = RES_PARERR;
 80011fa:	2304      	movs	r3, #4
 80011fc:	f887 3027 	strb.w	r3, [r7, #39]	; 0x27
 8001200:	e0e9      	b.n	80013d6 <SD_disk_ioctl+0x252>
    }
  }
  else
  {
    if (Stat & STA_NOINIT)
 8001202:	4b78      	ldr	r3, [pc, #480]	; (80013e4 <SD_disk_ioctl+0x260>)
 8001204:	781b      	ldrb	r3, [r3, #0]
 8001206:	b2db      	uxtb	r3, r3
 8001208:	f003 0301 	and.w	r3, r3, #1
 800120c:	2b00      	cmp	r3, #0
 800120e:	d001      	beq.n	8001214 <SD_disk_ioctl+0x90>
      return RES_NOTRDY;
 8001210:	2303      	movs	r3, #3
 8001212:	e0e2      	b.n	80013da <SD_disk_ioctl+0x256>

    SELECT();
 8001214:	f7ff fc0e 	bl	8000a34 <SELECT>

    switch (ctrl)
 8001218:	79bb      	ldrb	r3, [r7, #6]
 800121a:	2b0d      	cmp	r3, #13
 800121c:	f200 80cc 	bhi.w	80013b8 <SD_disk_ioctl+0x234>
 8001220:	a201      	add	r2, pc, #4	; (adr r2, 8001228 <SD_disk_ioctl+0xa4>)
 8001222:	f852 f023 	ldr.w	pc, [r2, r3, lsl #2]
 8001226:	bf00      	nop
 8001228:	08001323 	.word	0x08001323
 800122c:	08001261 	.word	0x08001261
 8001230:	08001313 	.word	0x08001313
 8001234:	080013b9 	.word	0x080013b9
 8001238:	080013b9 	.word	0x080013b9
 800123c:	080013b9 	.word	0x080013b9
 8001240:	080013b9 	.word	0x080013b9
 8001244:	080013b9 	.word	0x080013b9
 8001248:	080013b9 	.word	0x080013b9
 800124c:	080013b9 	.word	0x080013b9
 8001250:	080013b9 	.word	0x080013b9
 8001254:	08001335 	.word	0x08001335
 8001258:	08001359 	.word	0x08001359
 800125c:	0800137d 	.word	0x0800137d
    {
    case GET_SECTOR_COUNT:
      /* SD카드 내 Sector의 개수 (DWORD) */
      if ((SD_SendCmd(CMD9, 0) == 0) && SD_RxDataBlock(csd, 16))
 8001260:	2100      	movs	r1, #0
 8001262:	2049      	movs	r0, #73	; 0x49
 8001264:	f7ff fd4e 	bl	8000d04 <SD_SendCmd>
 8001268:	4603      	mov	r3, r0
 800126a:	2b00      	cmp	r3, #0
 800126c:	f040 80a8 	bne.w	80013c0 <SD_disk_ioctl+0x23c>
 8001270:	f107 030c 	add.w	r3, r7, #12
 8001274:	2110      	movs	r1, #16
 8001276:	4618      	mov	r0, r3
 8001278:	f7ff fcba 	bl	8000bf0 <SD_RxDataBlock>
 800127c:	4603      	mov	r3, r0
 800127e:	2b00      	cmp	r3, #0
 8001280:	f000 809e 	beq.w	80013c0 <SD_disk_ioctl+0x23c>
      {
        if ((csd[0] >> 6) == 1)
 8001284:	7b3b      	ldrb	r3, [r7, #12]
 8001286:	099b      	lsrs	r3, r3, #6
 8001288:	b2db      	uxtb	r3, r3
 800128a:	2b01      	cmp	r3, #1
 800128c:	d10e      	bne.n	80012ac <SD_disk_ioctl+0x128>
        {
          /* SDC ver 2.00 */
          csize = csd[9] + ((WORD)csd[8] << 8) + 1;
 800128e:	7d7b      	ldrb	r3, [r7, #21]
 8001290:	b29a      	uxth	r2, r3
 8001292:	7d3b      	ldrb	r3, [r7, #20]
 8001294:	b29b      	uxth	r3, r3
 8001296:	021b      	lsls	r3, r3, #8
 8001298:	b29b      	uxth	r3, r3
 800129a:	4413      	add	r3, r2
 800129c:	b29b      	uxth	r3, r3
 800129e:	3301      	adds	r3, #1
 80012a0:	83fb      	strh	r3, [r7, #30]
          *(DWORD *)buff = (DWORD)csize << 10;
 80012a2:	8bfb      	ldrh	r3, [r7, #30]
 80012a4:	029a      	lsls	r2, r3, #10
 80012a6:	683b      	ldr	r3, [r7, #0]
 80012a8:	601a      	str	r2, [r3, #0]
 80012aa:	e02e      	b.n	800130a <SD_disk_ioctl+0x186>
        }
        else
        {
          /* MMC or SDC ver 1.XX */
          n = (csd[5] & 15) + ((csd[10] & 128) >> 7) + ((csd[9] & 3) << 1) + 2;
 80012ac:	7c7b      	ldrb	r3, [r7, #17]
 80012ae:	f003 030f 	and.w	r3, r3, #15
 80012b2:	b2da      	uxtb	r2, r3
 80012b4:	7dbb      	ldrb	r3, [r7, #22]
 80012b6:	09db      	lsrs	r3, r3, #7
 80012b8:	b2db      	uxtb	r3, r3
 80012ba:	4413      	add	r3, r2
 80012bc:	b2da      	uxtb	r2, r3
 80012be:	7d7b      	ldrb	r3, [r7, #21]
 80012c0:	005b      	lsls	r3, r3, #1
 80012c2:	b2db      	uxtb	r3, r3
 80012c4:	f003 0306 	and.w	r3, r3, #6
 80012c8:	b2db      	uxtb	r3, r3
 80012ca:	4413      	add	r3, r2
 80012cc:	b2db      	uxtb	r3, r3
 80012ce:	3302      	adds	r3, #2
 80012d0:	f887 3026 	strb.w	r3, [r7, #38]	; 0x26
          csize = (csd[8] >> 6) + ((WORD)csd[7] << 2) + ((WORD)(csd[6] & 3) << 10) + 1;
 80012d4:	7d3b      	ldrb	r3, [r7, #20]
 80012d6:	099b      	lsrs	r3, r3, #6
 80012d8:	b2db      	uxtb	r3, r3
 80012da:	b29a      	uxth	r2, r3
 80012dc:	7cfb      	ldrb	r3, [r7, #19]
 80012de:	b29b      	uxth	r3, r3
 80012e0:	009b      	lsls	r3, r3, #2
 80012e2:	b29b      	uxth	r3, r3
 80012e4:	4413      	add	r3, r2
 80012e6:	b29a      	uxth	r2, r3
 80012e8:	7cbb      	ldrb	r3, [r7, #18]
 80012ea:	029b      	lsls	r3, r3, #10
 80012ec:	b29b      	uxth	r3, r3
 80012ee:	f403 6340 	and.w	r3, r3, #3072	; 0xc00
 80012f2:	b29b      	uxth	r3, r3
 80012f4:	4413      	add	r3, r2
 80012f6:	b29b      	uxth	r3, r3
 80012f8:	3301      	adds	r3, #1
 80012fa:	83fb      	strh	r3, [r7, #30]
          *(DWORD *)buff = (DWORD)csize << (n - 9);
 80012fc:	8bfa      	ldrh	r2, [r7, #30]
 80012fe:	f897 3026 	ldrb.w	r3, [r7, #38]	; 0x26
 8001302:	3b09      	subs	r3, #9
 8001304:	409a      	lsls	r2, r3
 8001306:	683b      	ldr	r3, [r7, #0]
 8001308:	601a      	str	r2, [r3, #0]
        }

        res = RES_OK;
 800130a:	2300      	movs	r3, #0
 800130c:	f887 3027 	strb.w	r3, [r7, #39]	; 0x27
      }
      break;
 8001310:	e056      	b.n	80013c0 <SD_disk_ioctl+0x23c>

    case GET_SECTOR_SIZE:
      /* 섹터의 단위 크기 (WORD) */
      *(WORD *)buff = 512;
 8001312:	683b      	ldr	r3, [r7, #0]
 8001314:	f44f 7200 	mov.w	r2, #512	; 0x200
 8001318:	801a      	strh	r2, [r3, #0]
      res = RES_OK;
 800131a:	2300      	movs	r3, #0
 800131c:	f887 3027 	strb.w	r3, [r7, #39]	; 0x27
      break;
 8001320:	e055      	b.n	80013ce <SD_disk_ioctl+0x24a>

    case CTRL_SYNC:
      /* 쓰기 동기화 */
      if (SD_ReadyWait() == 0xFF)
 8001322:	f7ff fbe5 	bl	8000af0 <SD_ReadyWait>
 8001326:	4603      	mov	r3, r0
 8001328:	2bff      	cmp	r3, #255	; 0xff
 800132a:	d14b      	bne.n	80013c4 <SD_disk_ioctl+0x240>
        res = RES_OK;
 800132c:	2300      	movs	r3, #0
 800132e:	f887 3027 	strb.w	r3, [r7, #39]	; 0x27
      break;
 8001332:	e047      	b.n	80013c4 <SD_disk_ioctl+0x240>

    case MMC_GET_CSD:
      /* CSD 정보 수신 (16 bytes) */
      if (SD_SendCmd(CMD9, 0) == 0 && SD_RxDataBlock(ptr, 16))
 8001334:	2100      	movs	r1, #0
 8001336:	2049      	movs	r0, #73	; 0x49
 8001338:	f7ff fce4 	bl	8000d04 <SD_SendCmd>
 800133c:	4603      	mov	r3, r0
 800133e:	2b00      	cmp	r3, #0
 8001340:	d142      	bne.n	80013c8 <SD_disk_ioctl+0x244>
 8001342:	2110      	movs	r1, #16
 8001344:	6a38      	ldr	r0, [r7, #32]
 8001346:	f7ff fc53 	bl	8000bf0 <SD_RxDataBlock>
 800134a:	4603      	mov	r3, r0
 800134c:	2b00      	cmp	r3, #0
 800134e:	d03b      	beq.n	80013c8 <SD_disk_ioctl+0x244>
        res = RES_OK;
 8001350:	2300      	movs	r3, #0
 8001352:	f887 3027 	strb.w	r3, [r7, #39]	; 0x27
      break;
 8001356:	e037      	b.n	80013c8 <SD_disk_ioctl+0x244>

    case MMC_GET_CID:
      /* CID 정보 수신 (16 bytes) */
      if (SD_SendCmd(CMD10, 0) == 0 && SD_RxDataBlock(ptr, 16))
 8001358:	2100      	movs	r1, #0
 800135a:	204a      	movs	r0, #74	; 0x4a
 800135c:	f7ff fcd2 	bl	8000d04 <SD_SendCmd>
 8001360:	4603      	mov	r3, r0
 8001362:	2b00      	cmp	r3, #0
 8001364:	d132      	bne.n	80013cc <SD_disk_ioctl+0x248>
 8001366:	2110      	movs	r1, #16
 8001368:	6a38      	ldr	r0, [r7, #32]
 800136a:	f7ff fc41 	bl	8000bf0 <SD_RxDataBlock>
 800136e:	4603      	mov	r3, r0
 8001370:	2b00      	cmp	r3, #0
 8001372:	d02b      	beq.n	80013cc <SD_disk_ioctl+0x248>
        res = RES_OK;
 8001374:	2300      	movs	r3, #0
 8001376:	f887 3027 	strb.w	r3, [r7, #39]	; 0x27
      break;
 800137a:	e027      	b.n	80013cc <SD_disk_ioctl+0x248>

    case MMC_GET_OCR:
      /* OCR 정보 수신 (4 bytes) */
      if (SD_SendCmd(CMD58, 0) == 0)
 800137c:	2100      	movs	r1, #0
 800137e:	207a      	movs	r0, #122	; 0x7a
 8001380:	f7ff fcc0 	bl	8000d04 <SD_SendCmd>
 8001384:	4603      	mov	r3, r0
 8001386:	2b00      	cmp	r3, #0
 8001388:	d116      	bne.n	80013b8 <SD_disk_ioctl+0x234>
      {
        for (n = 0; n < 4; n++)
 800138a:	2300      	movs	r3, #0
 800138c:	f887 3026 	strb.w	r3, [r7, #38]	; 0x26
 8001390:	e00b      	b.n	80013aa <SD_disk_ioctl+0x226>
        {
          *ptr++ = SPI_RxByte();
 8001392:	6a3c      	ldr	r4, [r7, #32]
 8001394:	1c63      	adds	r3, r4, #1
 8001396:	623b      	str	r3, [r7, #32]
 8001398:	f7ff fb7e 	bl	8000a98 <SPI_RxByte>
 800139c:	4603      	mov	r3, r0
 800139e:	7023      	strb	r3, [r4, #0]
        for (n = 0; n < 4; n++)
 80013a0:	f897 3026 	ldrb.w	r3, [r7, #38]	; 0x26
 80013a4:	3301      	adds	r3, #1
 80013a6:	f887 3026 	strb.w	r3, [r7, #38]	; 0x26
 80013aa:	f897 3026 	ldrb.w	r3, [r7, #38]	; 0x26
 80013ae:	2b03      	cmp	r3, #3
 80013b0:	d9ef      	bls.n	8001392 <SD_disk_ioctl+0x20e>
        }

        res = RES_OK;
 80013b2:	2300      	movs	r3, #0
 80013b4:	f887 3027 	strb.w	r3, [r7, #39]	; 0x27
      }

    default:
      res = RES_PARERR;
 80013b8:	2304      	movs	r3, #4
 80013ba:	f887 3027 	strb.w	r3, [r7, #39]	; 0x27
 80013be:	e006      	b.n	80013ce <SD_disk_ioctl+0x24a>
      break;
 80013c0:	bf00      	nop
 80013c2:	e004      	b.n	80013ce <SD_disk_ioctl+0x24a>
      break;
 80013c4:	bf00      	nop
 80013c6:	e002      	b.n	80013ce <SD_disk_ioctl+0x24a>
      break;
 80013c8:	bf00      	nop
 80013ca:	e000      	b.n	80013ce <SD_disk_ioctl+0x24a>
      break;
 80013cc:	bf00      	nop
    }

    DESELECT();
 80013ce:	f7ff fb3d 	bl	8000a4c <DESELECT>
    SPI_RxByte();
 80013d2:	f7ff fb61 	bl	8000a98 <SPI_RxByte>
  }

  return res;
 80013d6:	f897 3027 	ldrb.w	r3, [r7, #39]	; 0x27
}
 80013da:	4618      	mov	r0, r3
 80013dc:	372c      	adds	r7, #44	; 0x2c
 80013de:	46bd      	mov	sp, r7
 80013e0:	bd90      	pop	{r4, r7, pc}
 80013e2:	bf00      	nop
 80013e4:	20000004 	.word	0x20000004

080013e8 <vApplicationGetIdleTaskMemory>:
/* USER CODE BEGIN GET_IDLE_TASK_MEMORY */
static StaticTask_t xIdleTaskTCBBuffer;
static StackType_t xIdleStack[configMINIMAL_STACK_SIZE];

void vApplicationGetIdleTaskMemory( StaticTask_t **ppxIdleTaskTCBBuffer, StackType_t **ppxIdleTaskStackBuffer, uint32_t *pulIdleTaskStackSize )
{
 80013e8:	b480      	push	{r7}
 80013ea:	b085      	sub	sp, #20
 80013ec:	af00      	add	r7, sp, #0
 80013ee:	60f8      	str	r0, [r7, #12]
 80013f0:	60b9      	str	r1, [r7, #8]
 80013f2:	607a      	str	r2, [r7, #4]
  *ppxIdleTaskTCBBuffer = &xIdleTaskTCBBuffer;
 80013f4:	68fb      	ldr	r3, [r7, #12]
 80013f6:	4a07      	ldr	r2, [pc, #28]	; (8001414 <vApplicationGetIdleTaskMemory+0x2c>)
 80013f8:	601a      	str	r2, [r3, #0]
  *ppxIdleTaskStackBuffer = &xIdleStack[0];
 80013fa:	68bb      	ldr	r3, [r7, #8]
 80013fc:	4a06      	ldr	r2, [pc, #24]	; (8001418 <vApplicationGetIdleTaskMemory+0x30>)
 80013fe:	601a      	str	r2, [r3, #0]
  *pulIdleTaskStackSize = configMINIMAL_STACK_SIZE;
 8001400:	687b      	ldr	r3, [r7, #4]
 8001402:	2280      	movs	r2, #128	; 0x80
 8001404:	601a      	str	r2, [r3, #0]
  /* place for user code */
}
 8001406:	bf00      	nop
 8001408:	3714      	adds	r7, #20
 800140a:	46bd      	mov	sp, r7
 800140c:	f85d 7b04 	ldr.w	r7, [sp], #4
 8001410:	4770      	bx	lr
 8001412:	bf00      	nop
 8001414:	20002448 	.word	0x20002448
 8001418:	200024fc 	.word	0x200024fc

0800141c <_write>:
static int write_char(struct ush_object *self, char ch);
static int read_char(struct ush_object *self, char *ch);

#if defined(__GNUC__) /*define to use printf fuction*/
int _write(int fd, char *ptr, int len)
{
 800141c:	b580      	push	{r7, lr}
 800141e:	b084      	sub	sp, #16
 8001420:	af00      	add	r7, sp, #0
 8001422:	60f8      	str	r0, [r7, #12]
 8001424:	60b9      	str	r1, [r7, #8]
 8001426:	607a      	str	r2, [r7, #4]
  HAL_UART_Transmit(&huart2, (uint8_t *)ptr, len, HAL_MAX_DELAY);
 8001428:	687b      	ldr	r3, [r7, #4]
 800142a:	b29a      	uxth	r2, r3
 800142c:	f04f 33ff 	mov.w	r3, #4294967295
 8001430:	68b9      	ldr	r1, [r7, #8]
 8001432:	4804      	ldr	r0, [pc, #16]	; (8001444 <_write+0x28>)
 8001434:	f004 fb2f 	bl	8005a96 <HAL_UART_Transmit>
  return len;
 8001438:	687b      	ldr	r3, [r7, #4]
}
 800143a:	4618      	mov	r0, r3
 800143c:	3710      	adds	r7, #16
 800143e:	46bd      	mov	sp, r7
 8001440:	bd80      	pop	{r7, pc}
 8001442:	bf00      	nop
 8001444:	20002754 	.word	0x20002754

08001448 <cmd_task>:
//		ush_service(&g_ush);
//		vTaskDelay(10);
//	}
//}
void cmd_task()
{
 8001448:	b598      	push	{r3, r4, r7, lr}
 800144a:	af00      	add	r7, sp, #0
  while (1)
  {
//	  printf("hello \r\n");
    g_ush.file->exec(&g_ush, g_ush.file, g_ush.argc, g_ush.argv);
 800144c:	4b09      	ldr	r3, [pc, #36]	; (8001474 <cmd_task+0x2c>)
 800144e:	6c5b      	ldr	r3, [r3, #68]	; 0x44
 8001450:	68dc      	ldr	r4, [r3, #12]
 8001452:	4b08      	ldr	r3, [pc, #32]	; (8001474 <cmd_task+0x2c>)
 8001454:	6c59      	ldr	r1, [r3, #68]	; 0x44
 8001456:	4b07      	ldr	r3, [pc, #28]	; (8001474 <cmd_task+0x2c>)
 8001458:	6a5a      	ldr	r2, [r3, #36]	; 0x24
 800145a:	4b06      	ldr	r3, [pc, #24]	; (8001474 <cmd_task+0x2c>)
 800145c:	6a9b      	ldr	r3, [r3, #40]	; 0x28
 800145e:	4805      	ldr	r0, [pc, #20]	; (8001474 <cmd_task+0x2c>)
 8001460:	47a0      	blx	r4
//        vTaskDelay(10);
//	  vTaskPrioritySet(cmd_Task_Hnadler, uxTaskPriorityGet(ush_taskHandle) - 1);
//    vTaskPrioritySet(cmd_Task_Hnadler, 0);
	  vTaskSuspend(cmd_Task_Hnadler);
 8001462:	4b05      	ldr	r3, [pc, #20]	; (8001478 <cmd_task+0x30>)
 8001464:	681b      	ldr	r3, [r3, #0]
 8001466:	4618      	mov	r0, r3
 8001468:	f00a fa4c 	bl	800b904 <vTaskSuspend>
	  g_ush.state = USH_STATE_RESET_PROMPT;
 800146c:	4b01      	ldr	r3, [pc, #4]	; (8001474 <cmd_task+0x2c>)
 800146e:	2201      	movs	r2, #1
 8001470:	711a      	strb	r2, [r3, #4]
    g_ush.file->exec(&g_ush, g_ush.file, g_ush.argc, g_ush.argv);
 8001472:	e7eb      	b.n	800144c <cmd_task+0x4>
 8001474:	200029b4 	.word	0x200029b4
 8001478:	20002a08 	.word	0x20002a08

0800147c <main>:
/**
  * @brief  The application entry point.
  * @retval int
  */
int main(void)
{
 800147c:	b5b0      	push	{r4, r5, r7, lr}
 800147e:	b088      	sub	sp, #32
 8001480:	af00      	add	r7, sp, #0
  /* USER CODE END 1 */

  /* MCU Configuration--------------------------------------------------------*/

  /* Reset of all peripherals, Initializes the Flash interface and the Systick. */
  HAL_Init();
 8001482:	f002 fa4f 	bl	8003924 <HAL_Init>
  /* USER CODE BEGIN Init */

  /* USER CODE END Init */

  /* Configure the system clock */
  SystemClock_Config();
 8001486:	f000 f833 	bl	80014f0 <SystemClock_Config>
  /* USER CODE BEGIN SysInit */

  /* USER CODE END SysInit */

  /* Initialize all configured peripherals */
  MX_GPIO_Init();
 800148a:	f000 f8fd 	bl	8001688 <MX_GPIO_Init>
  MX_USART2_UART_Init();
 800148e:	f000 f8d1 	bl	8001634 <MX_USART2_UART_Init>
  MX_SPI1_Init();
 8001492:	f000 f899 	bl	80015c8 <MX_SPI1_Init>
  MX_FATFS_Init();
 8001496:	f005 fb29 	bl	8006aec <MX_FATFS_Init>
  /* USER CODE BEGIN 2 */

  shell_init();
 800149a:	f000 f9b9 	bl	8001810 <shell_init>
//    reboot();
  HAL_UART_Transmit(&huart2, tx_data, sizeof(tx_data), 100);
 800149e:	2364      	movs	r3, #100	; 0x64
 80014a0:	221e      	movs	r2, #30
 80014a2:	490e      	ldr	r1, [pc, #56]	; (80014dc <main+0x60>)
 80014a4:	480e      	ldr	r0, [pc, #56]	; (80014e0 <main+0x64>)
 80014a6:	f004 faf6 	bl	8005a96 <HAL_UART_Transmit>
  HAL_UART_Receive_IT(&huart2, &rx_data, 1);
 80014aa:	2201      	movs	r2, #1
 80014ac:	490d      	ldr	r1, [pc, #52]	; (80014e4 <main+0x68>)
 80014ae:	480c      	ldr	r0, [pc, #48]	; (80014e0 <main+0x64>)
 80014b0:	f004 fb83 	bl	8005bba <HAL_UART_Receive_IT>
  /* add queues, ... */
  /* USER CODE END RTOS_QUEUES */

  /* Create the thread(s) */
  /* definition and creation of ush_task */
  osThreadDef(ush_task, start_ush_task, osPriorityNormal, 0, 128);
 80014b4:	4b0c      	ldr	r3, [pc, #48]	; (80014e8 <main+0x6c>)
 80014b6:	1d3c      	adds	r4, r7, #4
 80014b8:	461d      	mov	r5, r3
 80014ba:	cd0f      	ldmia	r5!, {r0, r1, r2, r3}
 80014bc:	c40f      	stmia	r4!, {r0, r1, r2, r3}
 80014be:	e895 0007 	ldmia.w	r5, {r0, r1, r2}
 80014c2:	e884 0007 	stmia.w	r4, {r0, r1, r2}
  ush_taskHandle = osThreadCreate(osThread(ush_task), NULL);
 80014c6:	1d3b      	adds	r3, r7, #4
 80014c8:	2100      	movs	r1, #0
 80014ca:	4618      	mov	r0, r3
 80014cc:	f009 f891 	bl	800a5f2 <osThreadCreate>
 80014d0:	4603      	mov	r3, r0
 80014d2:	4a06      	ldr	r2, [pc, #24]	; (80014ec <main+0x70>)
 80014d4:	6013      	str	r3, [r2, #0]
  /* USER CODE BEGIN RTOS_THREADS */
  /* add threads, ... */
  /* USER CODE END RTOS_THREADS */

  /* Start scheduler */
  osKernelStart();
 80014d6:	f009 f885 	bl	800a5e4 <osKernelStart>
  /* We should never get here as control is now taken by the scheduler */
  /* Infinite loop */
  /* USER CODE BEGIN WHILE */
  while (1)
 80014da:	e7fe      	b.n	80014da <main+0x5e>
 80014dc:	20000008 	.word	0x20000008
 80014e0:	20002754 	.word	0x20002754
 80014e4:	2000279c 	.word	0x2000279c
 80014e8:	0800e43c 	.word	0x0800e43c
 80014ec:	20002798 	.word	0x20002798

080014f0 <SystemClock_Config>:
/**
  * @brief System Clock Configuration
  * @retval None
  */
void SystemClock_Config(void)
{
 80014f0:	b580      	push	{r7, lr}
 80014f2:	b094      	sub	sp, #80	; 0x50
 80014f4:	af00      	add	r7, sp, #0
  RCC_OscInitTypeDef RCC_OscInitStruct = {0};
 80014f6:	f107 031c 	add.w	r3, r7, #28
 80014fa:	2234      	movs	r2, #52	; 0x34
 80014fc:	2100      	movs	r1, #0
 80014fe:	4618      	mov	r0, r3
 8001500:	f00b fef8 	bl	800d2f4 <memset>
  RCC_ClkInitTypeDef RCC_ClkInitStruct = {0};
 8001504:	f107 0308 	add.w	r3, r7, #8
 8001508:	2200      	movs	r2, #0
 800150a:	601a      	str	r2, [r3, #0]
 800150c:	605a      	str	r2, [r3, #4]
 800150e:	609a      	str	r2, [r3, #8]
 8001510:	60da      	str	r2, [r3, #12]
 8001512:	611a      	str	r2, [r3, #16]

  /** Configure the main internal regulator output voltage
  */
  __HAL_RCC_PWR_CLK_ENABLE();
 8001514:	2300      	movs	r3, #0
 8001516:	607b      	str	r3, [r7, #4]
 8001518:	4b29      	ldr	r3, [pc, #164]	; (80015c0 <SystemClock_Config+0xd0>)
 800151a:	6c1b      	ldr	r3, [r3, #64]	; 0x40
 800151c:	4a28      	ldr	r2, [pc, #160]	; (80015c0 <SystemClock_Config+0xd0>)
 800151e:	f043 5380 	orr.w	r3, r3, #268435456	; 0x10000000
 8001522:	6413      	str	r3, [r2, #64]	; 0x40
 8001524:	4b26      	ldr	r3, [pc, #152]	; (80015c0 <SystemClock_Config+0xd0>)
 8001526:	6c1b      	ldr	r3, [r3, #64]	; 0x40
 8001528:	f003 5380 	and.w	r3, r3, #268435456	; 0x10000000
 800152c:	607b      	str	r3, [r7, #4]
 800152e:	687b      	ldr	r3, [r7, #4]
  __HAL_PWR_VOLTAGESCALING_CONFIG(PWR_REGULATOR_VOLTAGE_SCALE3);
 8001530:	2300      	movs	r3, #0
 8001532:	603b      	str	r3, [r7, #0]
 8001534:	4b23      	ldr	r3, [pc, #140]	; (80015c4 <SystemClock_Config+0xd4>)
 8001536:	681b      	ldr	r3, [r3, #0]
 8001538:	f423 4340 	bic.w	r3, r3, #49152	; 0xc000
 800153c:	4a21      	ldr	r2, [pc, #132]	; (80015c4 <SystemClock_Config+0xd4>)
 800153e:	f443 4380 	orr.w	r3, r3, #16384	; 0x4000
 8001542:	6013      	str	r3, [r2, #0]
 8001544:	4b1f      	ldr	r3, [pc, #124]	; (80015c4 <SystemClock_Config+0xd4>)
 8001546:	681b      	ldr	r3, [r3, #0]
 8001548:	f403 4340 	and.w	r3, r3, #49152	; 0xc000
 800154c:	603b      	str	r3, [r7, #0]
 800154e:	683b      	ldr	r3, [r7, #0]

  /** Initializes the RCC Oscillators according to the specified parameters
  * in the RCC_OscInitTypeDef structure.
  */
  RCC_OscInitStruct.OscillatorType = RCC_OSCILLATORTYPE_HSI;
 8001550:	2302      	movs	r3, #2
 8001552:	61fb      	str	r3, [r7, #28]
  RCC_OscInitStruct.HSIState = RCC_HSI_ON;
 8001554:	2301      	movs	r3, #1
 8001556:	62bb      	str	r3, [r7, #40]	; 0x28
  RCC_OscInitStruct.HSICalibrationValue = RCC_HSICALIBRATION_DEFAULT;
 8001558:	2310      	movs	r3, #16
 800155a:	62fb      	str	r3, [r7, #44]	; 0x2c
  RCC_OscInitStruct.PLL.PLLState = RCC_PLL_ON;
 800155c:	2302      	movs	r3, #2
 800155e:	637b      	str	r3, [r7, #52]	; 0x34
  RCC_OscInitStruct.PLL.PLLSource = RCC_PLLSOURCE_HSI;
 8001560:	2300      	movs	r3, #0
 8001562:	63bb      	str	r3, [r7, #56]	; 0x38
  RCC_OscInitStruct.PLL.PLLM = 8;
 8001564:	2308      	movs	r3, #8
 8001566:	63fb      	str	r3, [r7, #60]	; 0x3c
  RCC_OscInitStruct.PLL.PLLN = 60;
 8001568:	233c      	movs	r3, #60	; 0x3c
 800156a:	643b      	str	r3, [r7, #64]	; 0x40
  RCC_OscInitStruct.PLL.PLLP = RCC_PLLP_DIV2;
 800156c:	2302      	movs	r3, #2
 800156e:	647b      	str	r3, [r7, #68]	; 0x44
  RCC_OscInitStruct.PLL.PLLQ = 2;
 8001570:	2302      	movs	r3, #2
 8001572:	64bb      	str	r3, [r7, #72]	; 0x48
  RCC_OscInitStruct.PLL.PLLR = 2;
 8001574:	2302      	movs	r3, #2
 8001576:	64fb      	str	r3, [r7, #76]	; 0x4c
  if (HAL_RCC_OscConfig(&RCC_OscInitStruct) != HAL_OK)
 8001578:	f107 031c 	add.w	r3, r7, #28
 800157c:	4618      	mov	r0, r3
 800157e:	f003 f8b1 	bl	80046e4 <HAL_RCC_OscConfig>
 8001582:	4603      	mov	r3, r0
 8001584:	2b00      	cmp	r3, #0
 8001586:	d001      	beq.n	800158c <SystemClock_Config+0x9c>
  {
    Error_Handler();
 8001588:	f000 f9be 	bl	8001908 <Error_Handler>
  }

  /** Initializes the CPU, AHB and APB buses clocks
  */
  RCC_ClkInitStruct.ClockType = RCC_CLOCKTYPE_HCLK|RCC_CLOCKTYPE_SYSCLK
 800158c:	230f      	movs	r3, #15
 800158e:	60bb      	str	r3, [r7, #8]
                              |RCC_CLOCKTYPE_PCLK1|RCC_CLOCKTYPE_PCLK2;
  RCC_ClkInitStruct.SYSCLKSource = RCC_SYSCLKSOURCE_PLLCLK;
 8001590:	2302      	movs	r3, #2
 8001592:	60fb      	str	r3, [r7, #12]
  RCC_ClkInitStruct.AHBCLKDivider = RCC_SYSCLK_DIV1;
 8001594:	2300      	movs	r3, #0
 8001596:	613b      	str	r3, [r7, #16]
  RCC_ClkInitStruct.APB1CLKDivider = RCC_HCLK_DIV2;
 8001598:	f44f 5380 	mov.w	r3, #4096	; 0x1000
 800159c:	617b      	str	r3, [r7, #20]
  RCC_ClkInitStruct.APB2CLKDivider = RCC_HCLK_DIV1;
 800159e:	2300      	movs	r3, #0
 80015a0:	61bb      	str	r3, [r7, #24]

  if (HAL_RCC_ClockConfig(&RCC_ClkInitStruct, FLASH_LATENCY_1) != HAL_OK)
 80015a2:	f107 0308 	add.w	r3, r7, #8
 80015a6:	2101      	movs	r1, #1
 80015a8:	4618      	mov	r0, r3
 80015aa:	f002 fd1f 	bl	8003fec <HAL_RCC_ClockConfig>
 80015ae:	4603      	mov	r3, r0
 80015b0:	2b00      	cmp	r3, #0
 80015b2:	d001      	beq.n	80015b8 <SystemClock_Config+0xc8>
  {
    Error_Handler();
 80015b4:	f000 f9a8 	bl	8001908 <Error_Handler>
  }
}
 80015b8:	bf00      	nop
 80015ba:	3750      	adds	r7, #80	; 0x50
 80015bc:	46bd      	mov	sp, r7
 80015be:	bd80      	pop	{r7, pc}
 80015c0:	40023800 	.word	0x40023800
 80015c4:	40007000 	.word	0x40007000

080015c8 <MX_SPI1_Init>:
  * @brief SPI1 Initialization Function
  * @param None
  * @retval None
  */
static void MX_SPI1_Init(void)
{
 80015c8:	b580      	push	{r7, lr}
 80015ca:	af00      	add	r7, sp, #0

  /* USER CODE BEGIN SPI1_Init 1 */

  /* USER CODE END SPI1_Init 1 */
  /* SPI1 parameter configuration*/
  hspi1.Instance = SPI1;
 80015cc:	4b17      	ldr	r3, [pc, #92]	; (800162c <MX_SPI1_Init+0x64>)
 80015ce:	4a18      	ldr	r2, [pc, #96]	; (8001630 <MX_SPI1_Init+0x68>)
 80015d0:	601a      	str	r2, [r3, #0]
  hspi1.Init.Mode = SPI_MODE_MASTER;
 80015d2:	4b16      	ldr	r3, [pc, #88]	; (800162c <MX_SPI1_Init+0x64>)
 80015d4:	f44f 7282 	mov.w	r2, #260	; 0x104
 80015d8:	605a      	str	r2, [r3, #4]
  hspi1.Init.Direction = SPI_DIRECTION_2LINES;
 80015da:	4b14      	ldr	r3, [pc, #80]	; (800162c <MX_SPI1_Init+0x64>)
 80015dc:	2200      	movs	r2, #0
 80015de:	609a      	str	r2, [r3, #8]
  hspi1.Init.DataSize = SPI_DATASIZE_8BIT;
 80015e0:	4b12      	ldr	r3, [pc, #72]	; (800162c <MX_SPI1_Init+0x64>)
 80015e2:	2200      	movs	r2, #0
 80015e4:	60da      	str	r2, [r3, #12]
  hspi1.Init.CLKPolarity = SPI_POLARITY_LOW;
 80015e6:	4b11      	ldr	r3, [pc, #68]	; (800162c <MX_SPI1_Init+0x64>)
 80015e8:	2200      	movs	r2, #0
 80015ea:	611a      	str	r2, [r3, #16]
  hspi1.Init.CLKPhase = SPI_PHASE_1EDGE;
 80015ec:	4b0f      	ldr	r3, [pc, #60]	; (800162c <MX_SPI1_Init+0x64>)
 80015ee:	2200      	movs	r2, #0
 80015f0:	615a      	str	r2, [r3, #20]
  hspi1.Init.NSS = SPI_NSS_SOFT;
 80015f2:	4b0e      	ldr	r3, [pc, #56]	; (800162c <MX_SPI1_Init+0x64>)
 80015f4:	f44f 7200 	mov.w	r2, #512	; 0x200
 80015f8:	619a      	str	r2, [r3, #24]
  hspi1.Init.BaudRatePrescaler = SPI_BAUDRATEPRESCALER_8;
 80015fa:	4b0c      	ldr	r3, [pc, #48]	; (800162c <MX_SPI1_Init+0x64>)
 80015fc:	2210      	movs	r2, #16
 80015fe:	61da      	str	r2, [r3, #28]
  hspi1.Init.FirstBit = SPI_FIRSTBIT_MSB;
 8001600:	4b0a      	ldr	r3, [pc, #40]	; (800162c <MX_SPI1_Init+0x64>)
 8001602:	2200      	movs	r2, #0
 8001604:	621a      	str	r2, [r3, #32]
  hspi1.Init.TIMode = SPI_TIMODE_DISABLE;
 8001606:	4b09      	ldr	r3, [pc, #36]	; (800162c <MX_SPI1_Init+0x64>)
 8001608:	2200      	movs	r2, #0
 800160a:	625a      	str	r2, [r3, #36]	; 0x24
  hspi1.Init.CRCCalculation = SPI_CRCCALCULATION_DISABLE;
 800160c:	4b07      	ldr	r3, [pc, #28]	; (800162c <MX_SPI1_Init+0x64>)
 800160e:	2200      	movs	r2, #0
 8001610:	629a      	str	r2, [r3, #40]	; 0x28
  hspi1.Init.CRCPolynomial = 10;
 8001612:	4b06      	ldr	r3, [pc, #24]	; (800162c <MX_SPI1_Init+0x64>)
 8001614:	220a      	movs	r2, #10
 8001616:	62da      	str	r2, [r3, #44]	; 0x2c
  if (HAL_SPI_Init(&hspi1) != HAL_OK)
 8001618:	4804      	ldr	r0, [pc, #16]	; (800162c <MX_SPI1_Init+0x64>)
 800161a:	f003 fb01 	bl	8004c20 <HAL_SPI_Init>
 800161e:	4603      	mov	r3, r0
 8001620:	2b00      	cmp	r3, #0
 8001622:	d001      	beq.n	8001628 <MX_SPI1_Init+0x60>
  {
    Error_Handler();
 8001624:	f000 f970 	bl	8001908 <Error_Handler>
  }
  /* USER CODE BEGIN SPI1_Init 2 */

  /* USER CODE END SPI1_Init 2 */

}
 8001628:	bf00      	nop
 800162a:	bd80      	pop	{r7, pc}
 800162c:	200026fc 	.word	0x200026fc
 8001630:	40013000 	.word	0x40013000

08001634 <MX_USART2_UART_Init>:
  * @brief USART2 Initialization Function
  * @param None
  * @retval None
  */
static void MX_USART2_UART_Init(void)
{
 8001634:	b580      	push	{r7, lr}
 8001636:	af00      	add	r7, sp, #0
  /* USER CODE END USART2_Init 0 */

  /* USER CODE BEGIN USART2_Init 1 */

  /* USER CODE END USART2_Init 1 */
  huart2.Instance = USART2;
 8001638:	4b11      	ldr	r3, [pc, #68]	; (8001680 <MX_USART2_UART_Init+0x4c>)
 800163a:	4a12      	ldr	r2, [pc, #72]	; (8001684 <MX_USART2_UART_Init+0x50>)
 800163c:	601a      	str	r2, [r3, #0]
  huart2.Init.BaudRate = 115200;
 800163e:	4b10      	ldr	r3, [pc, #64]	; (8001680 <MX_USART2_UART_Init+0x4c>)
 8001640:	f44f 32e1 	mov.w	r2, #115200	; 0x1c200
 8001644:	605a      	str	r2, [r3, #4]
  huart2.Init.WordLength = UART_WORDLENGTH_8B;
 8001646:	4b0e      	ldr	r3, [pc, #56]	; (8001680 <MX_USART2_UART_Init+0x4c>)
 8001648:	2200      	movs	r2, #0
 800164a:	609a      	str	r2, [r3, #8]
  huart2.Init.StopBits = UART_STOPBITS_1;
 800164c:	4b0c      	ldr	r3, [pc, #48]	; (8001680 <MX_USART2_UART_Init+0x4c>)
 800164e:	2200      	movs	r2, #0
 8001650:	60da      	str	r2, [r3, #12]
  huart2.Init.Parity = UART_PARITY_NONE;
 8001652:	4b0b      	ldr	r3, [pc, #44]	; (8001680 <MX_USART2_UART_Init+0x4c>)
 8001654:	2200      	movs	r2, #0
 8001656:	611a      	str	r2, [r3, #16]
  huart2.Init.Mode = UART_MODE_TX_RX;
 8001658:	4b09      	ldr	r3, [pc, #36]	; (8001680 <MX_USART2_UART_Init+0x4c>)
 800165a:	220c      	movs	r2, #12
 800165c:	615a      	str	r2, [r3, #20]
  huart2.Init.HwFlowCtl = UART_HWCONTROL_NONE;
 800165e:	4b08      	ldr	r3, [pc, #32]	; (8001680 <MX_USART2_UART_Init+0x4c>)
 8001660:	2200      	movs	r2, #0
 8001662:	619a      	str	r2, [r3, #24]
  huart2.Init.OverSampling = UART_OVERSAMPLING_16;
 8001664:	4b06      	ldr	r3, [pc, #24]	; (8001680 <MX_USART2_UART_Init+0x4c>)
 8001666:	2200      	movs	r2, #0
 8001668:	61da      	str	r2, [r3, #28]
  if (HAL_UART_Init(&huart2) != HAL_OK)
 800166a:	4805      	ldr	r0, [pc, #20]	; (8001680 <MX_USART2_UART_Init+0x4c>)
 800166c:	f004 f9c6 	bl	80059fc <HAL_UART_Init>
 8001670:	4603      	mov	r3, r0
 8001672:	2b00      	cmp	r3, #0
 8001674:	d001      	beq.n	800167a <MX_USART2_UART_Init+0x46>
  {
    Error_Handler();
 8001676:	f000 f947 	bl	8001908 <Error_Handler>
  }
  /* USER CODE BEGIN USART2_Init 2 */

  /* USER CODE END USART2_Init 2 */

}
 800167a:	bf00      	nop
 800167c:	bd80      	pop	{r7, pc}
 800167e:	bf00      	nop
 8001680:	20002754 	.word	0x20002754
 8001684:	40004400 	.word	0x40004400

08001688 <MX_GPIO_Init>:
  * @brief GPIO Initialization Function
  * @param None
  * @retval None
  */
static void MX_GPIO_Init(void)
{
 8001688:	b580      	push	{r7, lr}
 800168a:	b08a      	sub	sp, #40	; 0x28
 800168c:	af00      	add	r7, sp, #0
  GPIO_InitTypeDef GPIO_InitStruct = {0};
 800168e:	f107 0314 	add.w	r3, r7, #20
 8001692:	2200      	movs	r2, #0
 8001694:	601a      	str	r2, [r3, #0]
 8001696:	605a      	str	r2, [r3, #4]
 8001698:	609a      	str	r2, [r3, #8]
 800169a:	60da      	str	r2, [r3, #12]
 800169c:	611a      	str	r2, [r3, #16]
/* USER CODE BEGIN MX_GPIO_Init_1 */
/* USER CODE END MX_GPIO_Init_1 */

  /* GPIO Ports Clock Enable */
  __HAL_RCC_GPIOC_CLK_ENABLE();
 800169e:	2300      	movs	r3, #0
 80016a0:	613b      	str	r3, [r7, #16]
 80016a2:	4b2d      	ldr	r3, [pc, #180]	; (8001758 <MX_GPIO_Init+0xd0>)
 80016a4:	6b1b      	ldr	r3, [r3, #48]	; 0x30
 80016a6:	4a2c      	ldr	r2, [pc, #176]	; (8001758 <MX_GPIO_Init+0xd0>)
 80016a8:	f043 0304 	orr.w	r3, r3, #4
 80016ac:	6313      	str	r3, [r2, #48]	; 0x30
 80016ae:	4b2a      	ldr	r3, [pc, #168]	; (8001758 <MX_GPIO_Init+0xd0>)
 80016b0:	6b1b      	ldr	r3, [r3, #48]	; 0x30
 80016b2:	f003 0304 	and.w	r3, r3, #4
 80016b6:	613b      	str	r3, [r7, #16]
 80016b8:	693b      	ldr	r3, [r7, #16]
  __HAL_RCC_GPIOH_CLK_ENABLE();
 80016ba:	2300      	movs	r3, #0
 80016bc:	60fb      	str	r3, [r7, #12]
 80016be:	4b26      	ldr	r3, [pc, #152]	; (8001758 <MX_GPIO_Init+0xd0>)
 80016c0:	6b1b      	ldr	r3, [r3, #48]	; 0x30
 80016c2:	4a25      	ldr	r2, [pc, #148]	; (8001758 <MX_GPIO_Init+0xd0>)
 80016c4:	f043 0380 	orr.w	r3, r3, #128	; 0x80
 80016c8:	6313      	str	r3, [r2, #48]	; 0x30
 80016ca:	4b23      	ldr	r3, [pc, #140]	; (8001758 <MX_GPIO_Init+0xd0>)
 80016cc:	6b1b      	ldr	r3, [r3, #48]	; 0x30
 80016ce:	f003 0380 	and.w	r3, r3, #128	; 0x80
 80016d2:	60fb      	str	r3, [r7, #12]
 80016d4:	68fb      	ldr	r3, [r7, #12]
  __HAL_RCC_GPIOA_CLK_ENABLE();
 80016d6:	2300      	movs	r3, #0
 80016d8:	60bb      	str	r3, [r7, #8]
 80016da:	4b1f      	ldr	r3, [pc, #124]	; (8001758 <MX_GPIO_Init+0xd0>)
 80016dc:	6b1b      	ldr	r3, [r3, #48]	; 0x30
 80016de:	4a1e      	ldr	r2, [pc, #120]	; (8001758 <MX_GPIO_Init+0xd0>)
 80016e0:	f043 0301 	orr.w	r3, r3, #1
 80016e4:	6313      	str	r3, [r2, #48]	; 0x30
 80016e6:	4b1c      	ldr	r3, [pc, #112]	; (8001758 <MX_GPIO_Init+0xd0>)
 80016e8:	6b1b      	ldr	r3, [r3, #48]	; 0x30
 80016ea:	f003 0301 	and.w	r3, r3, #1
 80016ee:	60bb      	str	r3, [r7, #8]
 80016f0:	68bb      	ldr	r3, [r7, #8]
  __HAL_RCC_GPIOB_CLK_ENABLE();
 80016f2:	2300      	movs	r3, #0
 80016f4:	607b      	str	r3, [r7, #4]
 80016f6:	4b18      	ldr	r3, [pc, #96]	; (8001758 <MX_GPIO_Init+0xd0>)
 80016f8:	6b1b      	ldr	r3, [r3, #48]	; 0x30
 80016fa:	4a17      	ldr	r2, [pc, #92]	; (8001758 <MX_GPIO_Init+0xd0>)
 80016fc:	f043 0302 	orr.w	r3, r3, #2
 8001700:	6313      	str	r3, [r2, #48]	; 0x30
 8001702:	4b15      	ldr	r3, [pc, #84]	; (8001758 <MX_GPIO_Init+0xd0>)
 8001704:	6b1b      	ldr	r3, [r3, #48]	; 0x30
 8001706:	f003 0302 	and.w	r3, r3, #2
 800170a:	607b      	str	r3, [r7, #4]
 800170c:	687b      	ldr	r3, [r7, #4]

  /*Configure GPIO pin Output Level */
  HAL_GPIO_WritePin(GPIOB, GPIO_PIN_6, GPIO_PIN_RESET);
 800170e:	2200      	movs	r2, #0
 8001710:	2140      	movs	r1, #64	; 0x40
 8001712:	4812      	ldr	r0, [pc, #72]	; (800175c <MX_GPIO_Init+0xd4>)
 8001714:	f002 fc50 	bl	8003fb8 <HAL_GPIO_WritePin>

  /*Configure GPIO pin : B1_Pin */
  GPIO_InitStruct.Pin = B1_Pin;
 8001718:	f44f 5300 	mov.w	r3, #8192	; 0x2000
 800171c:	617b      	str	r3, [r7, #20]
  GPIO_InitStruct.Mode = GPIO_MODE_IT_FALLING;
 800171e:	f44f 1304 	mov.w	r3, #2162688	; 0x210000
 8001722:	61bb      	str	r3, [r7, #24]
  GPIO_InitStruct.Pull = GPIO_NOPULL;
 8001724:	2300      	movs	r3, #0
 8001726:	61fb      	str	r3, [r7, #28]
  HAL_GPIO_Init(B1_GPIO_Port, &GPIO_InitStruct);
 8001728:	f107 0314 	add.w	r3, r7, #20
 800172c:	4619      	mov	r1, r3
 800172e:	480c      	ldr	r0, [pc, #48]	; (8001760 <MX_GPIO_Init+0xd8>)
 8001730:	f002 faae 	bl	8003c90 <HAL_GPIO_Init>

  /*Configure GPIO pin : PB6 */
  GPIO_InitStruct.Pin = GPIO_PIN_6;
 8001734:	2340      	movs	r3, #64	; 0x40
 8001736:	617b      	str	r3, [r7, #20]
  GPIO_InitStruct.Mode = GPIO_MODE_OUTPUT_PP;
 8001738:	2301      	movs	r3, #1
 800173a:	61bb      	str	r3, [r7, #24]
  GPIO_InitStruct.Pull = GPIO_NOPULL;
 800173c:	2300      	movs	r3, #0
 800173e:	61fb      	str	r3, [r7, #28]
  GPIO_InitStruct.Speed = GPIO_SPEED_FREQ_LOW;
 8001740:	2300      	movs	r3, #0
 8001742:	623b      	str	r3, [r7, #32]
  HAL_GPIO_Init(GPIOB, &GPIO_InitStruct);
 8001744:	f107 0314 	add.w	r3, r7, #20
 8001748:	4619      	mov	r1, r3
 800174a:	4804      	ldr	r0, [pc, #16]	; (800175c <MX_GPIO_Init+0xd4>)
 800174c:	f002 faa0 	bl	8003c90 <HAL_GPIO_Init>

/* USER CODE BEGIN MX_GPIO_Init_2 */
/* USER CODE END MX_GPIO_Init_2 */
}
 8001750:	bf00      	nop
 8001752:	3728      	adds	r7, #40	; 0x28
 8001754:	46bd      	mov	sp, r7
 8001756:	bd80      	pop	{r7, pc}
 8001758:	40023800 	.word	0x40023800
 800175c:	40020400 	.word	0x40020400
 8001760:	40020800 	.word	0x40020800

08001764 <HAL_UART_RxCpltCallback>:

/* USER CODE BEGIN 4 */
void HAL_UART_RxCpltCallback(UART_HandleTypeDef *huart)
{
 8001764:	b580      	push	{r7, lr}
 8001766:	b082      	sub	sp, #8
 8001768:	af00      	add	r7, sp, #0
 800176a:	6078      	str	r0, [r7, #4]
  if (huart->Instance == USART2)
 800176c:	687b      	ldr	r3, [r7, #4]
 800176e:	681b      	ldr	r3, [r3, #0]
 8001770:	4a07      	ldr	r2, [pc, #28]	; (8001790 <HAL_UART_RxCpltCallback+0x2c>)
 8001772:	4293      	cmp	r3, r2
 8001774:	d108      	bne.n	8001788 <HAL_UART_RxCpltCallback+0x24>
  {
    flag = 1; // This flag indicates received data
 8001776:	4b07      	ldr	r3, [pc, #28]	; (8001794 <HAL_UART_RxCpltCallback+0x30>)
 8001778:	2201      	movs	r2, #1
 800177a:	701a      	strb	r2, [r3, #0]
    read_char(&g_ush, rx_data);
 800177c:	4b06      	ldr	r3, [pc, #24]	; (8001798 <HAL_UART_RxCpltCallback+0x34>)
 800177e:	781b      	ldrb	r3, [r3, #0]
 8001780:	4619      	mov	r1, r3
 8001782:	4806      	ldr	r0, [pc, #24]	; (800179c <HAL_UART_RxCpltCallback+0x38>)
 8001784:	f000 f824 	bl	80017d0 <read_char>
  }
}
 8001788:	bf00      	nop
 800178a:	3708      	adds	r7, #8
 800178c:	46bd      	mov	sp, r7
 800178e:	bd80      	pop	{r7, pc}
 8001790:	40004400 	.word	0x40004400
 8001794:	20000026 	.word	0x20000026
 8001798:	2000279c 	.word	0x2000279c
 800179c:	200029b4 	.word	0x200029b4

080017a0 <write_char>:

static int write_char(struct ush_object *self, char ch) /*function to write char from shell to uart*/
{
 80017a0:	b580      	push	{r7, lr}
 80017a2:	b082      	sub	sp, #8
 80017a4:	af00      	add	r7, sp, #0
 80017a6:	6078      	str	r0, [r7, #4]
 80017a8:	460b      	mov	r3, r1
 80017aa:	70fb      	strb	r3, [r7, #3]
  (void)self;

  HAL_UART_Transmit(&huart2, &ch, sizeof(ch), 50);
 80017ac:	1cf9      	adds	r1, r7, #3
 80017ae:	2332      	movs	r3, #50	; 0x32
 80017b0:	2201      	movs	r2, #1
 80017b2:	4805      	ldr	r0, [pc, #20]	; (80017c8 <write_char+0x28>)
 80017b4:	f004 f96f 	bl	8005a96 <HAL_UART_Transmit>
  flag = 0; // After transmission, turn off the flag and wait for the next data reception
 80017b8:	4b04      	ldr	r3, [pc, #16]	; (80017cc <write_char+0x2c>)
 80017ba:	2200      	movs	r2, #0
 80017bc:	701a      	strb	r2, [r3, #0]
  return 1;
 80017be:	2301      	movs	r3, #1
}
 80017c0:	4618      	mov	r0, r3
 80017c2:	3708      	adds	r7, #8
 80017c4:	46bd      	mov	sp, r7
 80017c6:	bd80      	pop	{r7, pc}
 80017c8:	20002754 	.word	0x20002754
 80017cc:	20000026 	.word	0x20000026

080017d0 <read_char>:

static int read_char(struct ush_object *self, char *ch) /*function to read char from uart to shell*/
{
 80017d0:	b580      	push	{r7, lr}
 80017d2:	b082      	sub	sp, #8
 80017d4:	af00      	add	r7, sp, #0
 80017d6:	6078      	str	r0, [r7, #4]
 80017d8:	6039      	str	r1, [r7, #0]
  (void)self;
  if (flag == 1)
 80017da:	4b0a      	ldr	r3, [pc, #40]	; (8001804 <read_char+0x34>)
 80017dc:	781b      	ldrb	r3, [r3, #0]
 80017de:	2b01      	cmp	r3, #1
 80017e0:	d10a      	bne.n	80017f8 <read_char+0x28>
  { // If there is data received from uart, read it
    HAL_UART_Receive_IT(&huart2, &rx_data, sizeof(rx_data));
 80017e2:	2201      	movs	r2, #1
 80017e4:	4908      	ldr	r1, [pc, #32]	; (8001808 <read_char+0x38>)
 80017e6:	4809      	ldr	r0, [pc, #36]	; (800180c <read_char+0x3c>)
 80017e8:	f004 f9e7 	bl	8005bba <HAL_UART_Receive_IT>
    *ch = rx_data;
 80017ec:	4b06      	ldr	r3, [pc, #24]	; (8001808 <read_char+0x38>)
 80017ee:	781a      	ldrb	r2, [r3, #0]
 80017f0:	683b      	ldr	r3, [r7, #0]
 80017f2:	701a      	strb	r2, [r3, #0]
    return 1;
 80017f4:	2301      	movs	r3, #1
 80017f6:	e000      	b.n	80017fa <read_char+0x2a>
  }
  else
    return 0;
 80017f8:	2300      	movs	r3, #0
}
 80017fa:	4618      	mov	r0, r3
 80017fc:	3708      	adds	r7, #8
 80017fe:	46bd      	mov	sp, r7
 8001800:	bd80      	pop	{r7, pc}
 8001802:	bf00      	nop
 8001804:	20000026 	.word	0x20000026
 8001808:	2000279c 	.word	0x2000279c
 800180c:	20002754 	.word	0x20002754

08001810 <shell_init>:
    .output_buffer_size = sizeof(g_output_buffer),
    .path_max_length = SHELL_WORK_BUFFER_SIZE,
    .hostname = g_hostname_data,
};
void shell_init(void)
{
 8001810:	b580      	push	{r7, lr}
 8001812:	af00      	add	r7, sp, #0
  if (SD_mount())
 8001814:	f7fe fee6 	bl	80005e4 <SD_mount>
 8001818:	4603      	mov	r3, r0
 800181a:	2b00      	cmp	r3, #0
 800181c:	d00c      	beq.n	8001838 <shell_init+0x28>
	    USH_ASSERT(false);
 800181e:	4b0d      	ldr	r3, [pc, #52]	; (8001854 <shell_init+0x44>)
 8001820:	681b      	ldr	r3, [r3, #0]
 8001822:	68d8      	ldr	r0, [r3, #12]
 8001824:	f44f 73cf 	mov.w	r3, #414	; 0x19e
 8001828:	4a0b      	ldr	r2, [pc, #44]	; (8001858 <shell_init+0x48>)
 800182a:	490c      	ldr	r1, [pc, #48]	; (800185c <shell_init+0x4c>)
 800182c:	f00b fcea 	bl	800d204 <fiprintf>
 8001830:	f04f 30ff 	mov.w	r0, #4294967295
 8001834:	f00b fbfc 	bl	800d030 <exit>
  strcpy(g_hostname_data, "FETEL");
 8001838:	4b09      	ldr	r3, [pc, #36]	; (8001860 <shell_init+0x50>)
 800183a:	4a0a      	ldr	r2, [pc, #40]	; (8001864 <shell_init+0x54>)
 800183c:	e892 0003 	ldmia.w	r2, {r0, r1}
 8001840:	6018      	str	r0, [r3, #0]
 8001842:	3304      	adds	r3, #4
 8001844:	8019      	strh	r1, [r3, #0]
  ush_init(&g_ush, &g_ush_desc);
 8001846:	4908      	ldr	r1, [pc, #32]	; (8001868 <shell_init+0x58>)
 8001848:	4808      	ldr	r0, [pc, #32]	; (800186c <shell_init+0x5c>)
 800184a:	f000 ffdf 	bl	800280c <ush_init>

}
 800184e:	bf00      	nop
 8001850:	bd80      	pop	{r7, pc}
 8001852:	bf00      	nop
 8001854:	2000004c 	.word	0x2000004c
 8001858:	0800e458 	.word	0x0800e458
 800185c:	0800e46c 	.word	0x0800e46c
 8001860:	200027a0 	.word	0x200027a0
 8001864:	0800e47c 	.word	0x0800e47c
 8001868:	0800edf8 	.word	0x0800edf8
 800186c:	200029b4 	.word	0x200029b4

08001870 <create_task>:
{
  strncpy(g_hostname_data, hostname, sizeof(g_hostname_data));
  g_hostname_data[sizeof(g_hostname_data) - 1] = 0;
}
void create_task()
{
 8001870:	b580      	push	{r7, lr}
 8001872:	b082      	sub	sp, #8
 8001874:	af02      	add	r7, sp, #8
//	vTaskResume(cmd_Task_Hnadler);
//	vTaskPrioritySet(cmd_Task_Hnadler, uxTaskPriorityGet(ush_taskHandle) + 1);
//	vTaskDelete(cmd_Task_Hnadler);
	if (ush_1 != true)
 8001876:	4b11      	ldr	r3, [pc, #68]	; (80018bc <create_task+0x4c>)
 8001878:	781b      	ldrb	r3, [r3, #0]
 800187a:	f083 0301 	eor.w	r3, r3, #1
 800187e:	b2db      	uxtb	r3, r3
 8001880:	2b00      	cmp	r3, #0
 8001882:	d010      	beq.n	80018a6 <create_task+0x36>
  xTaskCreate(cmd_task, "cmd_task", 128, NULL, uxTaskPriorityGet(ush_taskHandle) + 1, &cmd_Task_Hnadler);
 8001884:	4b0e      	ldr	r3, [pc, #56]	; (80018c0 <create_task+0x50>)
 8001886:	681b      	ldr	r3, [r3, #0]
 8001888:	4618      	mov	r0, r3
 800188a:	f00a f821 	bl	800b8d0 <uxTaskPriorityGet>
 800188e:	4603      	mov	r3, r0
 8001890:	3301      	adds	r3, #1
 8001892:	4a0c      	ldr	r2, [pc, #48]	; (80018c4 <create_task+0x54>)
 8001894:	9201      	str	r2, [sp, #4]
 8001896:	9300      	str	r3, [sp, #0]
 8001898:	2300      	movs	r3, #0
 800189a:	2280      	movs	r2, #128	; 0x80
 800189c:	490a      	ldr	r1, [pc, #40]	; (80018c8 <create_task+0x58>)
 800189e:	480b      	ldr	r0, [pc, #44]	; (80018cc <create_task+0x5c>)
 80018a0:	f009 fec9 	bl	800b636 <xTaskCreate>
 80018a4:	e004      	b.n	80018b0 <create_task+0x40>
	else
	{
//		vTaskPrioritySet(cmd_Task_Hnadler, uxTaskPriorityGet(ush_taskHandle) + 1);
		vTaskResume(cmd_Task_Hnadler);}
 80018a6:	4b07      	ldr	r3, [pc, #28]	; (80018c4 <create_task+0x54>)
 80018a8:	681b      	ldr	r3, [r3, #0]
 80018aa:	4618      	mov	r0, r3
 80018ac:	f00a f8ee 	bl	800ba8c <vTaskResume>
		ush_1 = true;
 80018b0:	4b02      	ldr	r3, [pc, #8]	; (80018bc <create_task+0x4c>)
 80018b2:	2201      	movs	r2, #1
 80018b4:	701a      	strb	r2, [r3, #0]
//			xTaskCreate(test_task, "test_task", 128, NULL, uxTaskPriorityGet(ush_taskHandle) + 1, &test_Task_Hnadler);
//		else
//			vTaskResume(test_Task_Hnadler);
//			ush_2 = true;
//  vTaskSuspend(ush_taskHandle);
}
 80018b6:	bf00      	nop
 80018b8:	46bd      	mov	sp, r7
 80018ba:	bd80      	pop	{r7, pc}
 80018bc:	2000279d 	.word	0x2000279d
 80018c0:	20002798 	.word	0x20002798
 80018c4:	20002a08 	.word	0x20002a08
 80018c8:	0800e484 	.word	0x0800e484
 80018cc:	08001449 	.word	0x08001449

080018d0 <start_ush_task>:
 * @param  argument: Not used
 * @retval None
 */
/* USER CODE END Header_start_ush_task */
void start_ush_task(void const * argument)
{
 80018d0:	b580      	push	{r7, lr}
 80018d2:	b082      	sub	sp, #8
 80018d4:	af00      	add	r7, sp, #0
 80018d6:	6078      	str	r0, [r7, #4]
  /* USER CODE BEGIN 5 */
  /* Infinite loop */
  for (;;)
  {
    ush_service(&g_ush);
 80018d8:	4801      	ldr	r0, [pc, #4]	; (80018e0 <start_ush_task+0x10>)
 80018da:	f001 f86d 	bl	80029b8 <ush_service>
 80018de:	e7fb      	b.n	80018d8 <start_ush_task+0x8>
 80018e0:	200029b4 	.word	0x200029b4

080018e4 <HAL_TIM_PeriodElapsedCallback>:
  * a global variable "uwTick" used as application time base.
  * @param  htim : TIM handle
  * @retval None
  */
void HAL_TIM_PeriodElapsedCallback(TIM_HandleTypeDef *htim)
{
 80018e4:	b580      	push	{r7, lr}
 80018e6:	b082      	sub	sp, #8
 80018e8:	af00      	add	r7, sp, #0
 80018ea:	6078      	str	r0, [r7, #4]
  /* USER CODE BEGIN Callback 0 */

  /* USER CODE END Callback 0 */
  if (htim->Instance == TIM6) {
 80018ec:	687b      	ldr	r3, [r7, #4]
 80018ee:	681b      	ldr	r3, [r3, #0]
 80018f0:	4a04      	ldr	r2, [pc, #16]	; (8001904 <HAL_TIM_PeriodElapsedCallback+0x20>)
 80018f2:	4293      	cmp	r3, r2
 80018f4:	d101      	bne.n	80018fa <HAL_TIM_PeriodElapsedCallback+0x16>
    HAL_IncTick();
 80018f6:	f002 f837 	bl	8003968 <HAL_IncTick>
  }
  /* USER CODE BEGIN Callback 1 */

  /* USER CODE END Callback 1 */
}
 80018fa:	bf00      	nop
 80018fc:	3708      	adds	r7, #8
 80018fe:	46bd      	mov	sp, r7
 8001900:	bd80      	pop	{r7, pc}
 8001902:	bf00      	nop
 8001904:	40001000 	.word	0x40001000

08001908 <Error_Handler>:
/**
  * @brief  This function is executed in case of error occurrence.
  * @retval None
  */
void Error_Handler(void)
{
 8001908:	b480      	push	{r7}
 800190a:	af00      	add	r7, sp, #0
  \details Disables IRQ interrupts by setting the I-bit in the CPSR.
           Can only be executed in Privileged modes.
 */
__STATIC_FORCEINLINE void __disable_irq(void)
{
  __ASM volatile ("cpsid i" : : : "memory");
 800190c:	b672      	cpsid	i
}
 800190e:	bf00      	nop
  /* USER CODE BEGIN Error_Handler_Debug */
  /* User can add his own implementation to report the HAL error return state */
  __disable_irq();
  while (1)
 8001910:	e7fe      	b.n	8001910 <Error_Handler+0x8>
	...

08001914 <HAL_MspInit>:
/* USER CODE END 0 */
/**
  * Initializes the Global MSP.
  */
void HAL_MspInit(void)
{
 8001914:	b580      	push	{r7, lr}
 8001916:	b082      	sub	sp, #8
 8001918:	af00      	add	r7, sp, #0
  /* USER CODE BEGIN MspInit 0 */

  /* USER CODE END MspInit 0 */

  __HAL_RCC_SYSCFG_CLK_ENABLE();
 800191a:	2300      	movs	r3, #0
 800191c:	607b      	str	r3, [r7, #4]
 800191e:	4b12      	ldr	r3, [pc, #72]	; (8001968 <HAL_MspInit+0x54>)
 8001920:	6c5b      	ldr	r3, [r3, #68]	; 0x44
 8001922:	4a11      	ldr	r2, [pc, #68]	; (8001968 <HAL_MspInit+0x54>)
 8001924:	f443 4380 	orr.w	r3, r3, #16384	; 0x4000
 8001928:	6453      	str	r3, [r2, #68]	; 0x44
 800192a:	4b0f      	ldr	r3, [pc, #60]	; (8001968 <HAL_MspInit+0x54>)
 800192c:	6c5b      	ldr	r3, [r3, #68]	; 0x44
 800192e:	f403 4380 	and.w	r3, r3, #16384	; 0x4000
 8001932:	607b      	str	r3, [r7, #4]
 8001934:	687b      	ldr	r3, [r7, #4]
  __HAL_RCC_PWR_CLK_ENABLE();
 8001936:	2300      	movs	r3, #0
 8001938:	603b      	str	r3, [r7, #0]
 800193a:	4b0b      	ldr	r3, [pc, #44]	; (8001968 <HAL_MspInit+0x54>)
 800193c:	6c1b      	ldr	r3, [r3, #64]	; 0x40
 800193e:	4a0a      	ldr	r2, [pc, #40]	; (8001968 <HAL_MspInit+0x54>)
 8001940:	f043 5380 	orr.w	r3, r3, #268435456	; 0x10000000
 8001944:	6413      	str	r3, [r2, #64]	; 0x40
 8001946:	4b08      	ldr	r3, [pc, #32]	; (8001968 <HAL_MspInit+0x54>)
 8001948:	6c1b      	ldr	r3, [r3, #64]	; 0x40
 800194a:	f003 5380 	and.w	r3, r3, #268435456	; 0x10000000
 800194e:	603b      	str	r3, [r7, #0]
 8001950:	683b      	ldr	r3, [r7, #0]

  /* System interrupt init*/
  /* PendSV_IRQn interrupt configuration */
  HAL_NVIC_SetPriority(PendSV_IRQn, 15, 0);
 8001952:	2200      	movs	r2, #0
 8001954:	210f      	movs	r1, #15
 8001956:	f06f 0001 	mvn.w	r0, #1
 800195a:	f002 f8dd 	bl	8003b18 <HAL_NVIC_SetPriority>

  /* USER CODE BEGIN MspInit 1 */

  /* USER CODE END MspInit 1 */
}
 800195e:	bf00      	nop
 8001960:	3708      	adds	r7, #8
 8001962:	46bd      	mov	sp, r7
 8001964:	bd80      	pop	{r7, pc}
 8001966:	bf00      	nop
 8001968:	40023800 	.word	0x40023800

0800196c <HAL_SPI_MspInit>:
* This function configures the hardware resources used in this example
* @param hspi: SPI handle pointer
* @retval None
*/
void HAL_SPI_MspInit(SPI_HandleTypeDef* hspi)
{
 800196c:	b580      	push	{r7, lr}
 800196e:	b08a      	sub	sp, #40	; 0x28
 8001970:	af00      	add	r7, sp, #0
 8001972:	6078      	str	r0, [r7, #4]
  GPIO_InitTypeDef GPIO_InitStruct = {0};
 8001974:	f107 0314 	add.w	r3, r7, #20
 8001978:	2200      	movs	r2, #0
 800197a:	601a      	str	r2, [r3, #0]
 800197c:	605a      	str	r2, [r3, #4]
 800197e:	609a      	str	r2, [r3, #8]
 8001980:	60da      	str	r2, [r3, #12]
 8001982:	611a      	str	r2, [r3, #16]
  if(hspi->Instance==SPI1)
 8001984:	687b      	ldr	r3, [r7, #4]
 8001986:	681b      	ldr	r3, [r3, #0]
 8001988:	4a19      	ldr	r2, [pc, #100]	; (80019f0 <HAL_SPI_MspInit+0x84>)
 800198a:	4293      	cmp	r3, r2
 800198c:	d12b      	bne.n	80019e6 <HAL_SPI_MspInit+0x7a>
  {
  /* USER CODE BEGIN SPI1_MspInit 0 */

  /* USER CODE END SPI1_MspInit 0 */
    /* Peripheral clock enable */
    __HAL_RCC_SPI1_CLK_ENABLE();
 800198e:	2300      	movs	r3, #0
 8001990:	613b      	str	r3, [r7, #16]
 8001992:	4b18      	ldr	r3, [pc, #96]	; (80019f4 <HAL_SPI_MspInit+0x88>)
 8001994:	6c5b      	ldr	r3, [r3, #68]	; 0x44
 8001996:	4a17      	ldr	r2, [pc, #92]	; (80019f4 <HAL_SPI_MspInit+0x88>)
 8001998:	f443 5380 	orr.w	r3, r3, #4096	; 0x1000
 800199c:	6453      	str	r3, [r2, #68]	; 0x44
 800199e:	4b15      	ldr	r3, [pc, #84]	; (80019f4 <HAL_SPI_MspInit+0x88>)
 80019a0:	6c5b      	ldr	r3, [r3, #68]	; 0x44
 80019a2:	f403 5380 	and.w	r3, r3, #4096	; 0x1000
 80019a6:	613b      	str	r3, [r7, #16]
 80019a8:	693b      	ldr	r3, [r7, #16]

    __HAL_RCC_GPIOA_CLK_ENABLE();
 80019aa:	2300      	movs	r3, #0
 80019ac:	60fb      	str	r3, [r7, #12]
 80019ae:	4b11      	ldr	r3, [pc, #68]	; (80019f4 <HAL_SPI_MspInit+0x88>)
 80019b0:	6b1b      	ldr	r3, [r3, #48]	; 0x30
 80019b2:	4a10      	ldr	r2, [pc, #64]	; (80019f4 <HAL_SPI_MspInit+0x88>)
 80019b4:	f043 0301 	orr.w	r3, r3, #1
 80019b8:	6313      	str	r3, [r2, #48]	; 0x30
 80019ba:	4b0e      	ldr	r3, [pc, #56]	; (80019f4 <HAL_SPI_MspInit+0x88>)
 80019bc:	6b1b      	ldr	r3, [r3, #48]	; 0x30
 80019be:	f003 0301 	and.w	r3, r3, #1
 80019c2:	60fb      	str	r3, [r7, #12]
 80019c4:	68fb      	ldr	r3, [r7, #12]
    /**SPI1 GPIO Configuration
    PA5     ------> SPI1_SCK
    PA6     ------> SPI1_MISO
    PA7     ------> SPI1_MOSI
    */
    GPIO_InitStruct.Pin = GPIO_PIN_5|GPIO_PIN_6|GPIO_PIN_7;
 80019c6:	23e0      	movs	r3, #224	; 0xe0
 80019c8:	617b      	str	r3, [r7, #20]
    GPIO_InitStruct.Mode = GPIO_MODE_AF_PP;
 80019ca:	2302      	movs	r3, #2
 80019cc:	61bb      	str	r3, [r7, #24]
    GPIO_InitStruct.Pull = GPIO_NOPULL;
 80019ce:	2300      	movs	r3, #0
 80019d0:	61fb      	str	r3, [r7, #28]
    GPIO_InitStruct.Speed = GPIO_SPEED_FREQ_VERY_HIGH;
 80019d2:	2303      	movs	r3, #3
 80019d4:	623b      	str	r3, [r7, #32]
    GPIO_InitStruct.Alternate = GPIO_AF5_SPI1;
 80019d6:	2305      	movs	r3, #5
 80019d8:	627b      	str	r3, [r7, #36]	; 0x24
    HAL_GPIO_Init(GPIOA, &GPIO_InitStruct);
 80019da:	f107 0314 	add.w	r3, r7, #20
 80019de:	4619      	mov	r1, r3
 80019e0:	4805      	ldr	r0, [pc, #20]	; (80019f8 <HAL_SPI_MspInit+0x8c>)
 80019e2:	f002 f955 	bl	8003c90 <HAL_GPIO_Init>
  /* USER CODE BEGIN SPI1_MspInit 1 */

  /* USER CODE END SPI1_MspInit 1 */
  }

}
 80019e6:	bf00      	nop
 80019e8:	3728      	adds	r7, #40	; 0x28
 80019ea:	46bd      	mov	sp, r7
 80019ec:	bd80      	pop	{r7, pc}
 80019ee:	bf00      	nop
 80019f0:	40013000 	.word	0x40013000
 80019f4:	40023800 	.word	0x40023800
 80019f8:	40020000 	.word	0x40020000

080019fc <HAL_UART_MspInit>:
* This function configures the hardware resources used in this example
* @param huart: UART handle pointer
* @retval None
*/
void HAL_UART_MspInit(UART_HandleTypeDef* huart)
{
 80019fc:	b580      	push	{r7, lr}
 80019fe:	b08a      	sub	sp, #40	; 0x28
 8001a00:	af00      	add	r7, sp, #0
 8001a02:	6078      	str	r0, [r7, #4]
  GPIO_InitTypeDef GPIO_InitStruct = {0};
 8001a04:	f107 0314 	add.w	r3, r7, #20
 8001a08:	2200      	movs	r2, #0
 8001a0a:	601a      	str	r2, [r3, #0]
 8001a0c:	605a      	str	r2, [r3, #4]
 8001a0e:	609a      	str	r2, [r3, #8]
 8001a10:	60da      	str	r2, [r3, #12]
 8001a12:	611a      	str	r2, [r3, #16]
  if(huart->Instance==USART2)
 8001a14:	687b      	ldr	r3, [r7, #4]
 8001a16:	681b      	ldr	r3, [r3, #0]
 8001a18:	4a1d      	ldr	r2, [pc, #116]	; (8001a90 <HAL_UART_MspInit+0x94>)
 8001a1a:	4293      	cmp	r3, r2
 8001a1c:	d133      	bne.n	8001a86 <HAL_UART_MspInit+0x8a>
  {
  /* USER CODE BEGIN USART2_MspInit 0 */

  /* USER CODE END USART2_MspInit 0 */
    /* Peripheral clock enable */
    __HAL_RCC_USART2_CLK_ENABLE();
 8001a1e:	2300      	movs	r3, #0
 8001a20:	613b      	str	r3, [r7, #16]
 8001a22:	4b1c      	ldr	r3, [pc, #112]	; (8001a94 <HAL_UART_MspInit+0x98>)
 8001a24:	6c1b      	ldr	r3, [r3, #64]	; 0x40
 8001a26:	4a1b      	ldr	r2, [pc, #108]	; (8001a94 <HAL_UART_MspInit+0x98>)
 8001a28:	f443 3300 	orr.w	r3, r3, #131072	; 0x20000
 8001a2c:	6413      	str	r3, [r2, #64]	; 0x40
 8001a2e:	4b19      	ldr	r3, [pc, #100]	; (8001a94 <HAL_UART_MspInit+0x98>)
 8001a30:	6c1b      	ldr	r3, [r3, #64]	; 0x40
 8001a32:	f403 3300 	and.w	r3, r3, #131072	; 0x20000
 8001a36:	613b      	str	r3, [r7, #16]
 8001a38:	693b      	ldr	r3, [r7, #16]

    __HAL_RCC_GPIOA_CLK_ENABLE();
 8001a3a:	2300      	movs	r3, #0
 8001a3c:	60fb      	str	r3, [r7, #12]
 8001a3e:	4b15      	ldr	r3, [pc, #84]	; (8001a94 <HAL_UART_MspInit+0x98>)
 8001a40:	6b1b      	ldr	r3, [r3, #48]	; 0x30
 8001a42:	4a14      	ldr	r2, [pc, #80]	; (8001a94 <HAL_UART_MspInit+0x98>)
 8001a44:	f043 0301 	orr.w	r3, r3, #1
 8001a48:	6313      	str	r3, [r2, #48]	; 0x30
 8001a4a:	4b12      	ldr	r3, [pc, #72]	; (8001a94 <HAL_UART_MspInit+0x98>)
 8001a4c:	6b1b      	ldr	r3, [r3, #48]	; 0x30
 8001a4e:	f003 0301 	and.w	r3, r3, #1
 8001a52:	60fb      	str	r3, [r7, #12]
 8001a54:	68fb      	ldr	r3, [r7, #12]
    /**USART2 GPIO Configuration
    PA2     ------> USART2_TX
    PA3     ------> USART2_RX
    */
    GPIO_InitStruct.Pin = GPIO_PIN_2|GPIO_PIN_3;
 8001a56:	230c      	movs	r3, #12
 8001a58:	617b      	str	r3, [r7, #20]
    GPIO_InitStruct.Mode = GPIO_MODE_AF_PP;
 8001a5a:	2302      	movs	r3, #2
 8001a5c:	61bb      	str	r3, [r7, #24]
    GPIO_InitStruct.Pull = GPIO_NOPULL;
 8001a5e:	2300      	movs	r3, #0
 8001a60:	61fb      	str	r3, [r7, #28]
    GPIO_InitStruct.Speed = GPIO_SPEED_FREQ_VERY_HIGH;
 8001a62:	2303      	movs	r3, #3
 8001a64:	623b      	str	r3, [r7, #32]
    GPIO_InitStruct.Alternate = GPIO_AF7_USART2;
 8001a66:	2307      	movs	r3, #7
 8001a68:	627b      	str	r3, [r7, #36]	; 0x24
    HAL_GPIO_Init(GPIOA, &GPIO_InitStruct);
 8001a6a:	f107 0314 	add.w	r3, r7, #20
 8001a6e:	4619      	mov	r1, r3
 8001a70:	4809      	ldr	r0, [pc, #36]	; (8001a98 <HAL_UART_MspInit+0x9c>)
 8001a72:	f002 f90d 	bl	8003c90 <HAL_GPIO_Init>

    /* USART2 interrupt Init */
    HAL_NVIC_SetPriority(USART2_IRQn, 5, 0);
 8001a76:	2200      	movs	r2, #0
 8001a78:	2105      	movs	r1, #5
 8001a7a:	2026      	movs	r0, #38	; 0x26
 8001a7c:	f002 f84c 	bl	8003b18 <HAL_NVIC_SetPriority>
    HAL_NVIC_EnableIRQ(USART2_IRQn);
 8001a80:	2026      	movs	r0, #38	; 0x26
 8001a82:	f002 f865 	bl	8003b50 <HAL_NVIC_EnableIRQ>
  /* USER CODE BEGIN USART2_MspInit 1 */

  /* USER CODE END USART2_MspInit 1 */
  }

}
 8001a86:	bf00      	nop
 8001a88:	3728      	adds	r7, #40	; 0x28
 8001a8a:	46bd      	mov	sp, r7
 8001a8c:	bd80      	pop	{r7, pc}
 8001a8e:	bf00      	nop
 8001a90:	40004400 	.word	0x40004400
 8001a94:	40023800 	.word	0x40023800
 8001a98:	40020000 	.word	0x40020000

08001a9c <HAL_InitTick>:
  *         reset by HAL_Init() or at any time when clock is configured, by HAL_RCC_ClockConfig().
  * @param  TickPriority: Tick interrupt priority.
  * @retval HAL status
  */
HAL_StatusTypeDef HAL_InitTick(uint32_t TickPriority)
{
 8001a9c:	b580      	push	{r7, lr}
 8001a9e:	b08e      	sub	sp, #56	; 0x38
 8001aa0:	af00      	add	r7, sp, #0
 8001aa2:	6078      	str	r0, [r7, #4]
  RCC_ClkInitTypeDef    clkconfig;
  uint32_t              uwTimclock, uwAPB1Prescaler = 0U;
 8001aa4:	2300      	movs	r3, #0
 8001aa6:	62fb      	str	r3, [r7, #44]	; 0x2c

  uint32_t              uwPrescalerValue = 0U;
 8001aa8:	2300      	movs	r3, #0
 8001aaa:	62bb      	str	r3, [r7, #40]	; 0x28
  uint32_t              pFLatency;
  HAL_StatusTypeDef     status;

  /* Enable TIM6 clock */
  __HAL_RCC_TIM6_CLK_ENABLE();
 8001aac:	2300      	movs	r3, #0
 8001aae:	60fb      	str	r3, [r7, #12]
 8001ab0:	4b33      	ldr	r3, [pc, #204]	; (8001b80 <HAL_InitTick+0xe4>)
 8001ab2:	6c1b      	ldr	r3, [r3, #64]	; 0x40
 8001ab4:	4a32      	ldr	r2, [pc, #200]	; (8001b80 <HAL_InitTick+0xe4>)
 8001ab6:	f043 0310 	orr.w	r3, r3, #16
 8001aba:	6413      	str	r3, [r2, #64]	; 0x40
 8001abc:	4b30      	ldr	r3, [pc, #192]	; (8001b80 <HAL_InitTick+0xe4>)
 8001abe:	6c1b      	ldr	r3, [r3, #64]	; 0x40
 8001ac0:	f003 0310 	and.w	r3, r3, #16
 8001ac4:	60fb      	str	r3, [r7, #12]
 8001ac6:	68fb      	ldr	r3, [r7, #12]

  /* Get clock configuration */
  HAL_RCC_GetClockConfig(&clkconfig, &pFLatency);
 8001ac8:	f107 0210 	add.w	r2, r7, #16
 8001acc:	f107 0314 	add.w	r3, r7, #20
 8001ad0:	4611      	mov	r1, r2
 8001ad2:	4618      	mov	r0, r3
 8001ad4:	f002 fba4 	bl	8004220 <HAL_RCC_GetClockConfig>

  /* Get APB1 prescaler */
  uwAPB1Prescaler = clkconfig.APB1CLKDivider;
 8001ad8:	6a3b      	ldr	r3, [r7, #32]
 8001ada:	62fb      	str	r3, [r7, #44]	; 0x2c
  /* Compute TIM6 clock */
  if (uwAPB1Prescaler == RCC_HCLK_DIV1)
 8001adc:	6afb      	ldr	r3, [r7, #44]	; 0x2c
 8001ade:	2b00      	cmp	r3, #0
 8001ae0:	d103      	bne.n	8001aea <HAL_InitTick+0x4e>
  {
    uwTimclock = HAL_RCC_GetPCLK1Freq();
 8001ae2:	f002 fb75 	bl	80041d0 <HAL_RCC_GetPCLK1Freq>
 8001ae6:	6378      	str	r0, [r7, #52]	; 0x34
 8001ae8:	e004      	b.n	8001af4 <HAL_InitTick+0x58>
  }
  else
  {
    uwTimclock = 2UL * HAL_RCC_GetPCLK1Freq();
 8001aea:	f002 fb71 	bl	80041d0 <HAL_RCC_GetPCLK1Freq>
 8001aee:	4603      	mov	r3, r0
 8001af0:	005b      	lsls	r3, r3, #1
 8001af2:	637b      	str	r3, [r7, #52]	; 0x34
  }

  /* Compute the prescaler value to have TIM6 counter clock equal to 1MHz */
  uwPrescalerValue = (uint32_t) ((uwTimclock / 1000000U) - 1U);
 8001af4:	6b7b      	ldr	r3, [r7, #52]	; 0x34
 8001af6:	4a23      	ldr	r2, [pc, #140]	; (8001b84 <HAL_InitTick+0xe8>)
 8001af8:	fba2 2303 	umull	r2, r3, r2, r3
 8001afc:	0c9b      	lsrs	r3, r3, #18
 8001afe:	3b01      	subs	r3, #1
 8001b00:	62bb      	str	r3, [r7, #40]	; 0x28

  /* Initialize TIM6 */
  htim6.Instance = TIM6;
 8001b02:	4b21      	ldr	r3, [pc, #132]	; (8001b88 <HAL_InitTick+0xec>)
 8001b04:	4a21      	ldr	r2, [pc, #132]	; (8001b8c <HAL_InitTick+0xf0>)
 8001b06:	601a      	str	r2, [r3, #0]
  + Period = [(TIM6CLK/1000) - 1]. to have a (1/1000) s time base.
  + Prescaler = (uwTimclock/1000000 - 1) to have a 1MHz counter clock.
  + ClockDivision = 0
  + Counter direction = Up
  */
  htim6.Init.Period = (1000000U / 1000U) - 1U;
 8001b08:	4b1f      	ldr	r3, [pc, #124]	; (8001b88 <HAL_InitTick+0xec>)
 8001b0a:	f240 32e7 	movw	r2, #999	; 0x3e7
 8001b0e:	60da      	str	r2, [r3, #12]
  htim6.Init.Prescaler = uwPrescalerValue;
 8001b10:	4a1d      	ldr	r2, [pc, #116]	; (8001b88 <HAL_InitTick+0xec>)
 8001b12:	6abb      	ldr	r3, [r7, #40]	; 0x28
 8001b14:	6053      	str	r3, [r2, #4]
  htim6.Init.ClockDivision = 0;
 8001b16:	4b1c      	ldr	r3, [pc, #112]	; (8001b88 <HAL_InitTick+0xec>)
 8001b18:	2200      	movs	r2, #0
 8001b1a:	611a      	str	r2, [r3, #16]
  htim6.Init.CounterMode = TIM_COUNTERMODE_UP;
 8001b1c:	4b1a      	ldr	r3, [pc, #104]	; (8001b88 <HAL_InitTick+0xec>)
 8001b1e:	2200      	movs	r2, #0
 8001b20:	609a      	str	r2, [r3, #8]
  htim6.Init.AutoReloadPreload = TIM_AUTORELOAD_PRELOAD_DISABLE;
 8001b22:	4b19      	ldr	r3, [pc, #100]	; (8001b88 <HAL_InitTick+0xec>)
 8001b24:	2200      	movs	r2, #0
 8001b26:	619a      	str	r2, [r3, #24]

  status = HAL_TIM_Base_Init(&htim6);
 8001b28:	4817      	ldr	r0, [pc, #92]	; (8001b88 <HAL_InitTick+0xec>)
 8001b2a:	f003 fcb9 	bl	80054a0 <HAL_TIM_Base_Init>
 8001b2e:	4603      	mov	r3, r0
 8001b30:	f887 3033 	strb.w	r3, [r7, #51]	; 0x33
  if (status == HAL_OK)
 8001b34:	f897 3033 	ldrb.w	r3, [r7, #51]	; 0x33
 8001b38:	2b00      	cmp	r3, #0
 8001b3a:	d11b      	bne.n	8001b74 <HAL_InitTick+0xd8>
  {
    /* Start the TIM time Base generation in interrupt mode */
    status = HAL_TIM_Base_Start_IT(&htim6);
 8001b3c:	4812      	ldr	r0, [pc, #72]	; (8001b88 <HAL_InitTick+0xec>)
 8001b3e:	f003 fd09 	bl	8005554 <HAL_TIM_Base_Start_IT>
 8001b42:	4603      	mov	r3, r0
 8001b44:	f887 3033 	strb.w	r3, [r7, #51]	; 0x33
    if (status == HAL_OK)
 8001b48:	f897 3033 	ldrb.w	r3, [r7, #51]	; 0x33
 8001b4c:	2b00      	cmp	r3, #0
 8001b4e:	d111      	bne.n	8001b74 <HAL_InitTick+0xd8>
    {
    /* Enable the TIM6 global Interrupt */
        HAL_NVIC_EnableIRQ(TIM6_DAC_IRQn);
 8001b50:	2036      	movs	r0, #54	; 0x36
 8001b52:	f001 fffd 	bl	8003b50 <HAL_NVIC_EnableIRQ>
      /* Configure the SysTick IRQ priority */
      if (TickPriority < (1UL << __NVIC_PRIO_BITS))
 8001b56:	687b      	ldr	r3, [r7, #4]
 8001b58:	2b0f      	cmp	r3, #15
 8001b5a:	d808      	bhi.n	8001b6e <HAL_InitTick+0xd2>
      {
        /* Configure the TIM IRQ priority */
        HAL_NVIC_SetPriority(TIM6_DAC_IRQn, TickPriority, 0U);
 8001b5c:	2200      	movs	r2, #0
 8001b5e:	6879      	ldr	r1, [r7, #4]
 8001b60:	2036      	movs	r0, #54	; 0x36
 8001b62:	f001 ffd9 	bl	8003b18 <HAL_NVIC_SetPriority>
        uwTickPrio = TickPriority;
 8001b66:	4a0a      	ldr	r2, [pc, #40]	; (8001b90 <HAL_InitTick+0xf4>)
 8001b68:	687b      	ldr	r3, [r7, #4]
 8001b6a:	6013      	str	r3, [r2, #0]
 8001b6c:	e002      	b.n	8001b74 <HAL_InitTick+0xd8>
      }
      else
      {
        status = HAL_ERROR;
 8001b6e:	2301      	movs	r3, #1
 8001b70:	f887 3033 	strb.w	r3, [r7, #51]	; 0x33
      }
    }
  }

 /* Return function status */
  return status;
 8001b74:	f897 3033 	ldrb.w	r3, [r7, #51]	; 0x33
}
 8001b78:	4618      	mov	r0, r3
 8001b7a:	3738      	adds	r7, #56	; 0x38
 8001b7c:	46bd      	mov	sp, r7
 8001b7e:	bd80      	pop	{r7, pc}
 8001b80:	40023800 	.word	0x40023800
 8001b84:	431bde83 	.word	0x431bde83
 8001b88:	20002a0c 	.word	0x20002a0c
 8001b8c:	40001000 	.word	0x40001000
 8001b90:	2000002c 	.word	0x2000002c

08001b94 <NMI_Handler>:
/******************************************************************************/
/**
  * @brief This function handles Non maskable interrupt.
  */
void NMI_Handler(void)
{
 8001b94:	b480      	push	{r7}
 8001b96:	af00      	add	r7, sp, #0
  /* USER CODE BEGIN NonMaskableInt_IRQn 0 */

  /* USER CODE END NonMaskableInt_IRQn 0 */
  /* USER CODE BEGIN NonMaskableInt_IRQn 1 */
  while (1)
 8001b98:	e7fe      	b.n	8001b98 <NMI_Handler+0x4>

08001b9a <HardFault_Handler>:

/**
  * @brief This function handles Hard fault interrupt.
  */
void HardFault_Handler(void)
{
 8001b9a:	b480      	push	{r7}
 8001b9c:	af00      	add	r7, sp, #0
  /* USER CODE BEGIN HardFault_IRQn 0 */

  /* USER CODE END HardFault_IRQn 0 */
  while (1)
 8001b9e:	e7fe      	b.n	8001b9e <HardFault_Handler+0x4>

08001ba0 <MemManage_Handler>:

/**
  * @brief This function handles Memory management fault.
  */
void MemManage_Handler(void)
{
 8001ba0:	b480      	push	{r7}
 8001ba2:	af00      	add	r7, sp, #0
  /* USER CODE BEGIN MemoryManagement_IRQn 0 */

  /* USER CODE END MemoryManagement_IRQn 0 */
  while (1)
 8001ba4:	e7fe      	b.n	8001ba4 <MemManage_Handler+0x4>

08001ba6 <BusFault_Handler>:

/**
  * @brief This function handles Pre-fetch fault, memory access fault.
  */
void BusFault_Handler(void)
{
 8001ba6:	b480      	push	{r7}
 8001ba8:	af00      	add	r7, sp, #0
  /* USER CODE BEGIN BusFault_IRQn 0 */

  /* USER CODE END BusFault_IRQn 0 */
  while (1)
 8001baa:	e7fe      	b.n	8001baa <BusFault_Handler+0x4>

08001bac <UsageFault_Handler>:

/**
  * @brief This function handles Undefined instruction or illegal state.
  */
void UsageFault_Handler(void)
{
 8001bac:	b480      	push	{r7}
 8001bae:	af00      	add	r7, sp, #0
  /* USER CODE BEGIN UsageFault_IRQn 0 */

  /* USER CODE END UsageFault_IRQn 0 */
  while (1)
 8001bb0:	e7fe      	b.n	8001bb0 <UsageFault_Handler+0x4>

08001bb2 <DebugMon_Handler>:

/**
  * @brief This function handles Debug monitor.
  */
void DebugMon_Handler(void)
{
 8001bb2:	b480      	push	{r7}
 8001bb4:	af00      	add	r7, sp, #0

  /* USER CODE END DebugMonitor_IRQn 0 */
  /* USER CODE BEGIN DebugMonitor_IRQn 1 */

  /* USER CODE END DebugMonitor_IRQn 1 */
}
 8001bb6:	bf00      	nop
 8001bb8:	46bd      	mov	sp, r7
 8001bba:	f85d 7b04 	ldr.w	r7, [sp], #4
 8001bbe:	4770      	bx	lr

08001bc0 <USART2_IRQHandler>:

/**
  * @brief This function handles USART2 global interrupt.
  */
void USART2_IRQHandler(void)
{
 8001bc0:	b580      	push	{r7, lr}
 8001bc2:	af00      	add	r7, sp, #0
  /* USER CODE BEGIN USART2_IRQn 0 */

  /* USER CODE END USART2_IRQn 0 */
  HAL_UART_IRQHandler(&huart2);
 8001bc4:	4802      	ldr	r0, [pc, #8]	; (8001bd0 <USART2_IRQHandler+0x10>)
 8001bc6:	f004 f829 	bl	8005c1c <HAL_UART_IRQHandler>
  /* USER CODE BEGIN USART2_IRQn 1 */

  /* USER CODE END USART2_IRQn 1 */
}
 8001bca:	bf00      	nop
 8001bcc:	bd80      	pop	{r7, pc}
 8001bce:	bf00      	nop
 8001bd0:	20002754 	.word	0x20002754

08001bd4 <TIM6_DAC_IRQHandler>:

/**
  * @brief This function handles TIM6 global interrupt and DAC1, DAC2 underrun error interrupts.
  */
void TIM6_DAC_IRQHandler(void)
{
 8001bd4:	b580      	push	{r7, lr}
 8001bd6:	af00      	add	r7, sp, #0
  /* USER CODE BEGIN TIM6_DAC_IRQn 0 */

  /* USER CODE END TIM6_DAC_IRQn 0 */
  HAL_TIM_IRQHandler(&htim6);
 8001bd8:	4802      	ldr	r0, [pc, #8]	; (8001be4 <TIM6_DAC_IRQHandler+0x10>)
 8001bda:	f003 fd2b 	bl	8005634 <HAL_TIM_IRQHandler>
  /* USER CODE BEGIN TIM6_DAC_IRQn 1 */

  /* USER CODE END TIM6_DAC_IRQn 1 */
}
 8001bde:	bf00      	nop
 8001be0:	bd80      	pop	{r7, pc}
 8001be2:	bf00      	nop
 8001be4:	20002a0c 	.word	0x20002a0c

08001be8 <_kill>:
{
	return 1;
}

int _kill(int pid, int sig)
{
 8001be8:	b580      	push	{r7, lr}
 8001bea:	b082      	sub	sp, #8
 8001bec:	af00      	add	r7, sp, #0
 8001bee:	6078      	str	r0, [r7, #4]
 8001bf0:	6039      	str	r1, [r7, #0]
	errno = EINVAL;
 8001bf2:	f00b fa17 	bl	800d024 <__errno>
 8001bf6:	4603      	mov	r3, r0
 8001bf8:	2216      	movs	r2, #22
 8001bfa:	601a      	str	r2, [r3, #0]
	return -1;
 8001bfc:	f04f 33ff 	mov.w	r3, #4294967295
}
 8001c00:	4618      	mov	r0, r3
 8001c02:	3708      	adds	r7, #8
 8001c04:	46bd      	mov	sp, r7
 8001c06:	bd80      	pop	{r7, pc}

08001c08 <_exit>:

void _exit (int status)
{
 8001c08:	b580      	push	{r7, lr}
 8001c0a:	b082      	sub	sp, #8
 8001c0c:	af00      	add	r7, sp, #0
 8001c0e:	6078      	str	r0, [r7, #4]
	_kill(status, -1);
 8001c10:	f04f 31ff 	mov.w	r1, #4294967295
 8001c14:	6878      	ldr	r0, [r7, #4]
 8001c16:	f7ff ffe7 	bl	8001be8 <_kill>
	while (1) {}		/* Make sure we hang here */
 8001c1a:	e7fe      	b.n	8001c1a <_exit+0x12>

08001c1c <_read>:
}

__attribute__((weak)) int _read(int file, char *ptr, int len)
{
 8001c1c:	b580      	push	{r7, lr}
 8001c1e:	b086      	sub	sp, #24
 8001c20:	af00      	add	r7, sp, #0
 8001c22:	60f8      	str	r0, [r7, #12]
 8001c24:	60b9      	str	r1, [r7, #8]
 8001c26:	607a      	str	r2, [r7, #4]
	int DataIdx;

	for (DataIdx = 0; DataIdx < len; DataIdx++)
 8001c28:	2300      	movs	r3, #0
 8001c2a:	617b      	str	r3, [r7, #20]
 8001c2c:	e00a      	b.n	8001c44 <_read+0x28>
	{
		*ptr++ = __io_getchar();
 8001c2e:	f3af 8000 	nop.w
 8001c32:	4601      	mov	r1, r0
 8001c34:	68bb      	ldr	r3, [r7, #8]
 8001c36:	1c5a      	adds	r2, r3, #1
 8001c38:	60ba      	str	r2, [r7, #8]
 8001c3a:	b2ca      	uxtb	r2, r1
 8001c3c:	701a      	strb	r2, [r3, #0]
	for (DataIdx = 0; DataIdx < len; DataIdx++)
 8001c3e:	697b      	ldr	r3, [r7, #20]
 8001c40:	3301      	adds	r3, #1
 8001c42:	617b      	str	r3, [r7, #20]
 8001c44:	697a      	ldr	r2, [r7, #20]
 8001c46:	687b      	ldr	r3, [r7, #4]
 8001c48:	429a      	cmp	r2, r3
 8001c4a:	dbf0      	blt.n	8001c2e <_read+0x12>
	}

return len;
 8001c4c:	687b      	ldr	r3, [r7, #4]
}
 8001c4e:	4618      	mov	r0, r3
 8001c50:	3718      	adds	r7, #24
 8001c52:	46bd      	mov	sp, r7
 8001c54:	bd80      	pop	{r7, pc}

08001c56 <_close>:
	}
	return len;
}

int _close(int file)
{
 8001c56:	b480      	push	{r7}
 8001c58:	b083      	sub	sp, #12
 8001c5a:	af00      	add	r7, sp, #0
 8001c5c:	6078      	str	r0, [r7, #4]
	return -1;
 8001c5e:	f04f 33ff 	mov.w	r3, #4294967295
}
 8001c62:	4618      	mov	r0, r3
 8001c64:	370c      	adds	r7, #12
 8001c66:	46bd      	mov	sp, r7
 8001c68:	f85d 7b04 	ldr.w	r7, [sp], #4
 8001c6c:	4770      	bx	lr

08001c6e <_fstat>:


int _fstat(int file, struct stat *st)
{
 8001c6e:	b480      	push	{r7}
 8001c70:	b083      	sub	sp, #12
 8001c72:	af00      	add	r7, sp, #0
 8001c74:	6078      	str	r0, [r7, #4]
 8001c76:	6039      	str	r1, [r7, #0]
	st->st_mode = S_IFCHR;
 8001c78:	683b      	ldr	r3, [r7, #0]
 8001c7a:	f44f 5200 	mov.w	r2, #8192	; 0x2000
 8001c7e:	605a      	str	r2, [r3, #4]
	return 0;
 8001c80:	2300      	movs	r3, #0
}
 8001c82:	4618      	mov	r0, r3
 8001c84:	370c      	adds	r7, #12
 8001c86:	46bd      	mov	sp, r7
 8001c88:	f85d 7b04 	ldr.w	r7, [sp], #4
 8001c8c:	4770      	bx	lr

08001c8e <_isatty>:

int _isatty(int file)
{
 8001c8e:	b480      	push	{r7}
 8001c90:	b083      	sub	sp, #12
 8001c92:	af00      	add	r7, sp, #0
 8001c94:	6078      	str	r0, [r7, #4]
	return 1;
 8001c96:	2301      	movs	r3, #1
}
 8001c98:	4618      	mov	r0, r3
 8001c9a:	370c      	adds	r7, #12
 8001c9c:	46bd      	mov	sp, r7
 8001c9e:	f85d 7b04 	ldr.w	r7, [sp], #4
 8001ca2:	4770      	bx	lr

08001ca4 <_lseek>:

int _lseek(int file, int ptr, int dir)
{
 8001ca4:	b480      	push	{r7}
 8001ca6:	b085      	sub	sp, #20
 8001ca8:	af00      	add	r7, sp, #0
 8001caa:	60f8      	str	r0, [r7, #12]
 8001cac:	60b9      	str	r1, [r7, #8]
 8001cae:	607a      	str	r2, [r7, #4]
	return 0;
 8001cb0:	2300      	movs	r3, #0
}
 8001cb2:	4618      	mov	r0, r3
 8001cb4:	3714      	adds	r7, #20
 8001cb6:	46bd      	mov	sp, r7
 8001cb8:	f85d 7b04 	ldr.w	r7, [sp], #4
 8001cbc:	4770      	bx	lr
	...

08001cc0 <_sbrk>:
 *
 * @param incr Memory size
 * @return Pointer to allocated memory
 */
void *_sbrk(ptrdiff_t incr)
{
 8001cc0:	b580      	push	{r7, lr}
 8001cc2:	b086      	sub	sp, #24
 8001cc4:	af00      	add	r7, sp, #0
 8001cc6:	6078      	str	r0, [r7, #4]
  extern uint8_t _end; /* Symbol defined in the linker script */
  extern uint8_t _estack; /* Symbol defined in the linker script */
  extern uint32_t _Min_Stack_Size; /* Symbol defined in the linker script */
  const uint32_t stack_limit = (uint32_t)&_estack - (uint32_t)&_Min_Stack_Size;
 8001cc8:	4a14      	ldr	r2, [pc, #80]	; (8001d1c <_sbrk+0x5c>)
 8001cca:	4b15      	ldr	r3, [pc, #84]	; (8001d20 <_sbrk+0x60>)
 8001ccc:	1ad3      	subs	r3, r2, r3
 8001cce:	617b      	str	r3, [r7, #20]
  const uint8_t *max_heap = (uint8_t *)stack_limit;
 8001cd0:	697b      	ldr	r3, [r7, #20]
 8001cd2:	613b      	str	r3, [r7, #16]
  uint8_t *prev_heap_end;

  /* Initialize heap end at first call */
  if (NULL == __sbrk_heap_end)
 8001cd4:	4b13      	ldr	r3, [pc, #76]	; (8001d24 <_sbrk+0x64>)
 8001cd6:	681b      	ldr	r3, [r3, #0]
 8001cd8:	2b00      	cmp	r3, #0
 8001cda:	d102      	bne.n	8001ce2 <_sbrk+0x22>
  {
    __sbrk_heap_end = &_end;
 8001cdc:	4b11      	ldr	r3, [pc, #68]	; (8001d24 <_sbrk+0x64>)
 8001cde:	4a12      	ldr	r2, [pc, #72]	; (8001d28 <_sbrk+0x68>)
 8001ce0:	601a      	str	r2, [r3, #0]
  }

  /* Protect heap from growing into the reserved MSP stack */
  if (__sbrk_heap_end + incr > max_heap)
 8001ce2:	4b10      	ldr	r3, [pc, #64]	; (8001d24 <_sbrk+0x64>)
 8001ce4:	681a      	ldr	r2, [r3, #0]
 8001ce6:	687b      	ldr	r3, [r7, #4]
 8001ce8:	4413      	add	r3, r2
 8001cea:	693a      	ldr	r2, [r7, #16]
 8001cec:	429a      	cmp	r2, r3
 8001cee:	d207      	bcs.n	8001d00 <_sbrk+0x40>
  {
    errno = ENOMEM;
 8001cf0:	f00b f998 	bl	800d024 <__errno>
 8001cf4:	4603      	mov	r3, r0
 8001cf6:	220c      	movs	r2, #12
 8001cf8:	601a      	str	r2, [r3, #0]
    return (void *)-1;
 8001cfa:	f04f 33ff 	mov.w	r3, #4294967295
 8001cfe:	e009      	b.n	8001d14 <_sbrk+0x54>
  }

  prev_heap_end = __sbrk_heap_end;
 8001d00:	4b08      	ldr	r3, [pc, #32]	; (8001d24 <_sbrk+0x64>)
 8001d02:	681b      	ldr	r3, [r3, #0]
 8001d04:	60fb      	str	r3, [r7, #12]
  __sbrk_heap_end += incr;
 8001d06:	4b07      	ldr	r3, [pc, #28]	; (8001d24 <_sbrk+0x64>)
 8001d08:	681a      	ldr	r2, [r3, #0]
 8001d0a:	687b      	ldr	r3, [r7, #4]
 8001d0c:	4413      	add	r3, r2
 8001d0e:	4a05      	ldr	r2, [pc, #20]	; (8001d24 <_sbrk+0x64>)
 8001d10:	6013      	str	r3, [r2, #0]

  return (void *)prev_heap_end;
 8001d12:	68fb      	ldr	r3, [r7, #12]
}
 8001d14:	4618      	mov	r0, r3
 8001d16:	3718      	adds	r7, #24
 8001d18:	46bd      	mov	sp, r7
 8001d1a:	bd80      	pop	{r7, pc}
 8001d1c:	20020000 	.word	0x20020000
 8001d20:	00000400 	.word	0x00000400
 8001d24:	20002a58 	.word	0x20002a58
 8001d28:	200068f0 	.word	0x200068f0

08001d2c <SystemInit>:
  *         configuration.
  * @param  None
  * @retval None
  */
void SystemInit(void)
{
 8001d2c:	b480      	push	{r7}
 8001d2e:	af00      	add	r7, sp, #0
  /* FPU settings ------------------------------------------------------------*/
  #if (__FPU_PRESENT == 1) && (__FPU_USED == 1)
    SCB->CPACR |= ((3UL << 10*2)|(3UL << 11*2));  /* set CP10 and CP11 Full Access */
 8001d30:	4b06      	ldr	r3, [pc, #24]	; (8001d4c <SystemInit+0x20>)
 8001d32:	f8d3 3088 	ldr.w	r3, [r3, #136]	; 0x88
 8001d36:	4a05      	ldr	r2, [pc, #20]	; (8001d4c <SystemInit+0x20>)
 8001d38:	f443 0370 	orr.w	r3, r3, #15728640	; 0xf00000
 8001d3c:	f8c2 3088 	str.w	r3, [r2, #136]	; 0x88

  /* Configure the Vector Table location -------------------------------------*/
#if defined(USER_VECT_TAB_ADDRESS)
  SCB->VTOR = VECT_TAB_BASE_ADDRESS | VECT_TAB_OFFSET; /* Vector Table Relocation in Internal SRAM */
#endif /* USER_VECT_TAB_ADDRESS */
}
 8001d40:	bf00      	nop
 8001d42:	46bd      	mov	sp, r7
 8001d44:	f85d 7b04 	ldr.w	r7, [sp], #4
 8001d48:	4770      	bx	lr
 8001d4a:	bf00      	nop
 8001d4c:	e000ed00 	.word	0xe000ed00

08001d50 <ush_buildin_cmd_cat_callback>:
#if USH_CONFIG_ENABLE_FEATURE_COMMANDS == 1

#if USH_CONFIG_ENABLE_COMMAND_CAT == 1

void ush_buildin_cmd_cat_callback(struct ush_object *self, struct ush_file_descriptor const *file, int argc, char *argv[])
{
 8001d50:	b580      	push	{r7, lr}
 8001d52:	b08c      	sub	sp, #48	; 0x30
 8001d54:	af00      	add	r7, sp, #0
 8001d56:	60f8      	str	r0, [r7, #12]
 8001d58:	60b9      	str	r1, [r7, #8]
 8001d5a:	607a      	str	r2, [r7, #4]
 8001d5c:	603b      	str	r3, [r7, #0]
        (void)file;
        FILINFO Finfo;
        FRESULT res;
        if (argc < 2)
 8001d5e:	687b      	ldr	r3, [r7, #4]
 8001d60:	2b01      	cmp	r3, #1
 8001d62:	dc04      	bgt.n	8001d6e <ush_buildin_cmd_cat_callback+0x1e>
        {
                ush_print_status(self, USH_STATUS_ERROR_COMMAND_WRONG_ARGUMENTS);
 8001d64:	2106      	movs	r1, #6
 8001d66:	68f8      	ldr	r0, [r7, #12]
 8001d68:	f000 fe72 	bl	8002a50 <ush_print_status>
                return;
 8001d6c:	e031      	b.n	8001dd2 <ush_buildin_cmd_cat_callback+0x82>
        }
        for (int i = 1; i < argc; i++)
 8001d6e:	2301      	movs	r3, #1
 8001d70:	62fb      	str	r3, [r7, #44]	; 0x2c
 8001d72:	e026      	b.n	8001dc2 <ush_buildin_cmd_cat_callback+0x72>
        {
                res = f_stat(argv[i], &Finfo);
 8001d74:	6afb      	ldr	r3, [r7, #44]	; 0x2c
 8001d76:	009b      	lsls	r3, r3, #2
 8001d78:	683a      	ldr	r2, [r7, #0]
 8001d7a:	4413      	add	r3, r2
 8001d7c:	681b      	ldr	r3, [r3, #0]
 8001d7e:	f107 0210 	add.w	r2, r7, #16
 8001d82:	4611      	mov	r1, r2
 8001d84:	4618      	mov	r0, r3
 8001d86:	f007 ff01 	bl	8009b8c <f_stat>
 8001d8a:	4603      	mov	r3, r0
 8001d8c:	f887 302b 	strb.w	r3, [r7, #43]	; 0x2b
                if (res != FR_OK || (Finfo.fattrib & AM_DIR))
 8001d90:	f897 302b 	ldrb.w	r3, [r7, #43]	; 0x2b
 8001d94:	2b00      	cmp	r3, #0
 8001d96:	d104      	bne.n	8001da2 <ush_buildin_cmd_cat_callback+0x52>
 8001d98:	7e3b      	ldrb	r3, [r7, #24]
 8001d9a:	f003 0310 	and.w	r3, r3, #16
 8001d9e:	2b00      	cmp	r3, #0
 8001da0:	d004      	beq.n	8001dac <ush_buildin_cmd_cat_callback+0x5c>
                {
                        ush_print_status(self, USH_STATUS_ERROR_FILE_NOT_FOUND);
 8001da2:	210b      	movs	r1, #11
 8001da4:	68f8      	ldr	r0, [r7, #12]
 8001da6:	f000 fe53 	bl	8002a50 <ush_print_status>
                        return;
 8001daa:	e012      	b.n	8001dd2 <ush_buildin_cmd_cat_callback+0x82>
                }
                read_file(argv[i]);
 8001dac:	6afb      	ldr	r3, [r7, #44]	; 0x2c
 8001dae:	009b      	lsls	r3, r3, #2
 8001db0:	683a      	ldr	r2, [r7, #0]
 8001db2:	4413      	add	r3, r2
 8001db4:	681b      	ldr	r3, [r3, #0]
 8001db6:	4618      	mov	r0, r3
 8001db8:	f7fe fcc6 	bl	8000748 <read_file>
        for (int i = 1; i < argc; i++)
 8001dbc:	6afb      	ldr	r3, [r7, #44]	; 0x2c
 8001dbe:	3301      	adds	r3, #1
 8001dc0:	62fb      	str	r3, [r7, #44]	; 0x2c
 8001dc2:	6afa      	ldr	r2, [r7, #44]	; 0x2c
 8001dc4:	687b      	ldr	r3, [r7, #4]
 8001dc6:	429a      	cmp	r2, r3
 8001dc8:	dbd4      	blt.n	8001d74 <ush_buildin_cmd_cat_callback+0x24>
        }
        self->state = USH_STATE_RESET_PROMPT;
 8001dca:	68fb      	ldr	r3, [r7, #12]
 8001dcc:	2201      	movs	r2, #1
 8001dce:	711a      	strb	r2, [r3, #4]
        return;
 8001dd0:	bf00      	nop
}
 8001dd2:	3730      	adds	r7, #48	; 0x30
 8001dd4:	46bd      	mov	sp, r7
 8001dd6:	bd80      	pop	{r7, pc}

08001dd8 <ush_buildin_cmd_cd_callback>:
#if USH_CONFIG_ENABLE_FEATURE_COMMANDS == 1

#if USH_CONFIG_ENABLE_COMMAND_CD == 1

void ush_buildin_cmd_cd_callback(struct ush_object *self, struct ush_file_descriptor const *file, int argc, char *argv[])
{
 8001dd8:	b580      	push	{r7, lr}
 8001dda:	b086      	sub	sp, #24
 8001ddc:	af00      	add	r7, sp, #0
 8001dde:	60f8      	str	r0, [r7, #12]
 8001de0:	60b9      	str	r1, [r7, #8]
 8001de2:	607a      	str	r2, [r7, #4]
 8001de4:	603b      	str	r3, [r7, #0]
        (void)file;
        FRESULT res;
        if (argc != 2)
 8001de6:	687b      	ldr	r3, [r7, #4]
 8001de8:	2b02      	cmp	r3, #2
 8001dea:	d004      	beq.n	8001df6 <ush_buildin_cmd_cd_callback+0x1e>
        {
                ush_print_status(self, USH_STATUS_ERROR_COMMAND_WRONG_ARGUMENTS);
 8001dec:	2106      	movs	r1, #6
 8001dee:	68f8      	ldr	r0, [r7, #12]
 8001df0:	f000 fe2e 	bl	8002a50 <ush_print_status>
                return;
 8001df4:	e013      	b.n	8001e1e <ush_buildin_cmd_cd_callback+0x46>
        }
        if ((res = f_chdir(argv[1])) != FR_OK)
 8001df6:	683b      	ldr	r3, [r7, #0]
 8001df8:	3304      	adds	r3, #4
 8001dfa:	681b      	ldr	r3, [r3, #0]
 8001dfc:	4618      	mov	r0, r3
 8001dfe:	f007 fc96 	bl	800972e <f_chdir>
 8001e02:	4603      	mov	r3, r0
 8001e04:	75fb      	strb	r3, [r7, #23]
 8001e06:	7dfb      	ldrb	r3, [r7, #23]
 8001e08:	2b00      	cmp	r3, #0
 8001e0a:	d002      	beq.n	8001e12 <ush_buildin_cmd_cd_callback+0x3a>
        {
                printf("cd command error !\r\n");
 8001e0c:	4805      	ldr	r0, [pc, #20]	; (8001e24 <ush_buildin_cmd_cd_callback+0x4c>)
 8001e0e:	f00b fecd 	bl	800dbac <puts>
        }
        get_current_dir(self);
 8001e12:	68f8      	ldr	r0, [r7, #12]
 8001e14:	f7fe fc06 	bl	8000624 <get_current_dir>
        self->state = USH_STATE_RESET_PROMPT;
 8001e18:	68fb      	ldr	r3, [r7, #12]
 8001e1a:	2201      	movs	r2, #1
 8001e1c:	711a      	strb	r2, [r3, #4]
}
 8001e1e:	3718      	adds	r7, #24
 8001e20:	46bd      	mov	sp, r7
 8001e22:	bd80      	pop	{r7, pc}
 8001e24:	0800e888 	.word	0x0800e888

08001e28 <ush_buildin_cmd_cp_callback>:
#include <string.h>

#if USH_CONFIG_ENABLE_FEATURE_COMMANDS == 1

void ush_buildin_cmd_cp_callback(struct ush_object *self, struct ush_file_descriptor const *file, int argc, char *argv[])
{
 8001e28:	b580      	push	{r7, lr}
 8001e2a:	b08c      	sub	sp, #48	; 0x30
 8001e2c:	af00      	add	r7, sp, #0
 8001e2e:	60f8      	str	r0, [r7, #12]
 8001e30:	60b9      	str	r1, [r7, #8]
 8001e32:	607a      	str	r2, [r7, #4]
 8001e34:	603b      	str	r3, [r7, #0]
	(void)file;
	FRESULT res;
	int i;
	char path[20];
	if (argc < 3)
 8001e36:	687b      	ldr	r3, [r7, #4]
 8001e38:	2b02      	cmp	r3, #2
 8001e3a:	dc04      	bgt.n	8001e46 <ush_buildin_cmd_cp_callback+0x1e>
	{
		ush_print_status(self, USH_STATUS_ERROR_COMMAND_WRONG_ARGUMENTS);
 8001e3c:	2106      	movs	r1, #6
 8001e3e:	68f8      	ldr	r0, [r7, #12]
 8001e40:	f000 fe06 	bl	8002a50 <ush_print_status>
 8001e44:	e066      	b.n	8001f14 <ush_buildin_cmd_cp_callback+0xec>
		return;
	}

	res = f_stat(argv[argc - 1], &Finfo);
 8001e46:	687b      	ldr	r3, [r7, #4]
 8001e48:	f103 4380 	add.w	r3, r3, #1073741824	; 0x40000000
 8001e4c:	3b01      	subs	r3, #1
 8001e4e:	009b      	lsls	r3, r3, #2
 8001e50:	683a      	ldr	r2, [r7, #0]
 8001e52:	4413      	add	r3, r2
 8001e54:	681b      	ldr	r3, [r3, #0]
 8001e56:	4931      	ldr	r1, [pc, #196]	; (8001f1c <ush_buildin_cmd_cp_callback+0xf4>)
 8001e58:	4618      	mov	r0, r3
 8001e5a:	f007 fe97 	bl	8009b8c <f_stat>
 8001e5e:	4603      	mov	r3, r0
 8001e60:	f887 302b 	strb.w	r3, [r7, #43]	; 0x2b
	if (res != FR_OK )
 8001e64:	f897 302b 	ldrb.w	r3, [r7, #43]	; 0x2b
 8001e68:	2b00      	cmp	r3, #0
 8001e6a:	d003      	beq.n	8001e74 <ush_buildin_cmd_cp_callback+0x4c>
		{
						printf("cp command error! \r\n");
 8001e6c:	482c      	ldr	r0, [pc, #176]	; (8001f20 <ush_buildin_cmd_cp_callback+0xf8>)
 8001e6e:	f00b fe9d 	bl	800dbac <puts>
 8001e72:	e04c      	b.n	8001f0e <ush_buildin_cmd_cp_callback+0xe6>
		}
		else
			for (i = 1; i < argc - 1; i++)
 8001e74:	2301      	movs	r3, #1
 8001e76:	62fb      	str	r3, [r7, #44]	; 0x2c
 8001e78:	e044      	b.n	8001f04 <ush_buildin_cmd_cp_callback+0xdc>
						{
				strcpy(path, argv[argc - 1]);
 8001e7a:	687b      	ldr	r3, [r7, #4]
 8001e7c:	f103 4380 	add.w	r3, r3, #1073741824	; 0x40000000
 8001e80:	3b01      	subs	r3, #1
 8001e82:	009b      	lsls	r3, r3, #2
 8001e84:	683a      	ldr	r2, [r7, #0]
 8001e86:	4413      	add	r3, r2
 8001e88:	681a      	ldr	r2, [r3, #0]
 8001e8a:	f107 0314 	add.w	r3, r7, #20
 8001e8e:	4611      	mov	r1, r2
 8001e90:	4618      	mov	r0, r3
 8001e92:	f00b ff5f 	bl	800dd54 <strcpy>
				strcat(path, "/");
 8001e96:	f107 0314 	add.w	r3, r7, #20
 8001e9a:	4618      	mov	r0, r3
 8001e9c:	f7fe f9c2 	bl	8000224 <strlen>
 8001ea0:	4603      	mov	r3, r0
 8001ea2:	461a      	mov	r2, r3
 8001ea4:	f107 0314 	add.w	r3, r7, #20
 8001ea8:	4413      	add	r3, r2
 8001eaa:	491e      	ldr	r1, [pc, #120]	; (8001f24 <ush_buildin_cmd_cp_callback+0xfc>)
 8001eac:	461a      	mov	r2, r3
 8001eae:	460b      	mov	r3, r1
 8001eb0:	881b      	ldrh	r3, [r3, #0]
 8001eb2:	8013      	strh	r3, [r2, #0]
				strcat(path, argv[i]);
 8001eb4:	6afb      	ldr	r3, [r7, #44]	; 0x2c
 8001eb6:	009b      	lsls	r3, r3, #2
 8001eb8:	683a      	ldr	r2, [r7, #0]
 8001eba:	4413      	add	r3, r2
 8001ebc:	681a      	ldr	r2, [r3, #0]
 8001ebe:	f107 0314 	add.w	r3, r7, #20
 8001ec2:	4611      	mov	r1, r2
 8001ec4:	4618      	mov	r0, r3
 8001ec6:	f00b ff36 	bl	800dd36 <strcat>
				if (res = f_copy (argv[i], path) != FR_OK)
 8001eca:	6afb      	ldr	r3, [r7, #44]	; 0x2c
 8001ecc:	009b      	lsls	r3, r3, #2
 8001ece:	683a      	ldr	r2, [r7, #0]
 8001ed0:	4413      	add	r3, r2
 8001ed2:	681b      	ldr	r3, [r3, #0]
 8001ed4:	f107 0214 	add.w	r2, r7, #20
 8001ed8:	4611      	mov	r1, r2
 8001eda:	4618      	mov	r0, r3
 8001edc:	f008 f880 	bl	8009fe0 <f_copy>
 8001ee0:	4603      	mov	r3, r0
 8001ee2:	2b00      	cmp	r3, #0
 8001ee4:	bf14      	ite	ne
 8001ee6:	2301      	movne	r3, #1
 8001ee8:	2300      	moveq	r3, #0
 8001eea:	b2db      	uxtb	r3, r3
 8001eec:	f887 302b 	strb.w	r3, [r7, #43]	; 0x2b
 8001ef0:	f897 302b 	ldrb.w	r3, [r7, #43]	; 0x2b
 8001ef4:	2b00      	cmp	r3, #0
 8001ef6:	d002      	beq.n	8001efe <ush_buildin_cmd_cp_callback+0xd6>
				{
						printf("cp command error! \r\n");
 8001ef8:	4809      	ldr	r0, [pc, #36]	; (8001f20 <ush_buildin_cmd_cp_callback+0xf8>)
 8001efa:	f00b fe57 	bl	800dbac <puts>
			for (i = 1; i < argc - 1; i++)
 8001efe:	6afb      	ldr	r3, [r7, #44]	; 0x2c
 8001f00:	3301      	adds	r3, #1
 8001f02:	62fb      	str	r3, [r7, #44]	; 0x2c
 8001f04:	687b      	ldr	r3, [r7, #4]
 8001f06:	3b01      	subs	r3, #1
 8001f08:	6afa      	ldr	r2, [r7, #44]	; 0x2c
 8001f0a:	429a      	cmp	r2, r3
 8001f0c:	dbb5      	blt.n	8001e7a <ush_buildin_cmd_cp_callback+0x52>
				}

		}

	self->state = USH_STATE_RESET_PROMPT;
 8001f0e:	68fb      	ldr	r3, [r7, #12]
 8001f10:	2201      	movs	r2, #1
 8001f12:	711a      	strb	r2, [r3, #4]
}
 8001f14:	3730      	adds	r7, #48	; 0x30
 8001f16:	46bd      	mov	sp, r7
 8001f18:	bd80      	pop	{r7, pc}
 8001f1a:	bf00      	nop
 8001f1c:	20002a5c 	.word	0x20002a5c
 8001f20:	0800e89c 	.word	0x0800e89c
 8001f24:	0800e8b0 	.word	0x0800e8b0

08001f28 <ush_buildin_cmd_echo_callback>:
#if USH_CONFIG_ENABLE_FEATURE_COMMANDS == 1

#if USH_CONFIG_ENABLE_COMMAND_ECHO == 1

void ush_buildin_cmd_echo_callback(struct ush_object *self, struct ush_file_descriptor const *file, int argc, char *argv[])
{
 8001f28:	b580      	push	{r7, lr}
 8001f2a:	b08e      	sub	sp, #56	; 0x38
 8001f2c:	af00      	add	r7, sp, #0
 8001f2e:	60f8      	str	r0, [r7, #12]
 8001f30:	60b9      	str	r1, [r7, #8]
 8001f32:	607a      	str	r2, [r7, #4]
 8001f34:	603b      	str	r3, [r7, #0]
        (void)argv;
        (void)file;
        FILINFO Finfo;
        FRESULT res;
        if (argc >= 4)
 8001f36:	687b      	ldr	r3, [r7, #4]
 8001f38:	2b03      	cmp	r3, #3
 8001f3a:	f340 8081 	ble.w	8002040 <ush_buildin_cmd_echo_callback+0x118>
        {
                if (strcmp(argv[argc - 2], ">") == 0)
 8001f3e:	687b      	ldr	r3, [r7, #4]
 8001f40:	f103 4380 	add.w	r3, r3, #1073741824	; 0x40000000
 8001f44:	3b02      	subs	r3, #2
 8001f46:	009b      	lsls	r3, r3, #2
 8001f48:	683a      	ldr	r2, [r7, #0]
 8001f4a:	4413      	add	r3, r2
 8001f4c:	681b      	ldr	r3, [r3, #0]
 8001f4e:	4948      	ldr	r1, [pc, #288]	; (8002070 <ush_buildin_cmd_echo_callback+0x148>)
 8001f50:	4618      	mov	r0, r3
 8001f52:	f7fe f95d 	bl	8000210 <strcmp>
 8001f56:	4603      	mov	r3, r0
 8001f58:	2b00      	cmp	r3, #0
 8001f5a:	d155      	bne.n	8002008 <ush_buildin_cmd_echo_callback+0xe0>
                {
                        res = f_stat(argv[argc - 1], &Finfo);
 8001f5c:	687b      	ldr	r3, [r7, #4]
 8001f5e:	f103 4380 	add.w	r3, r3, #1073741824	; 0x40000000
 8001f62:	3b01      	subs	r3, #1
 8001f64:	009b      	lsls	r3, r3, #2
 8001f66:	683a      	ldr	r2, [r7, #0]
 8001f68:	4413      	add	r3, r2
 8001f6a:	681b      	ldr	r3, [r3, #0]
 8001f6c:	f107 0214 	add.w	r2, r7, #20
 8001f70:	4611      	mov	r1, r2
 8001f72:	4618      	mov	r0, r3
 8001f74:	f007 fe0a 	bl	8009b8c <f_stat>
 8001f78:	4603      	mov	r3, r0
 8001f7a:	f887 302f 	strb.w	r3, [r7, #47]	; 0x2f
                        if (res != FR_OK || (Finfo.fattrib & AM_DIR))
 8001f7e:	f897 302f 	ldrb.w	r3, [r7, #47]	; 0x2f
 8001f82:	2b00      	cmp	r3, #0
 8001f84:	d104      	bne.n	8001f90 <ush_buildin_cmd_echo_callback+0x68>
 8001f86:	7f3b      	ldrb	r3, [r7, #28]
 8001f88:	f003 0310 	and.w	r3, r3, #16
 8001f8c:	2b00      	cmp	r3, #0
 8001f8e:	d004      	beq.n	8001f9a <ush_buildin_cmd_echo_callback+0x72>
                        {
                                ush_print_status(self, USH_STATUS_ERROR_FILE_NOT_FOUND);
 8001f90:	210b      	movs	r1, #11
 8001f92:	68f8      	ldr	r0, [r7, #12]
 8001f94:	f000 fd5c 	bl	8002a50 <ush_print_status>
                                return;
 8001f98:	e066      	b.n	8002068 <ush_buildin_cmd_echo_callback+0x140>
                        }
                        if (Finfo.fattrib & AM_RDO)
 8001f9a:	7f3b      	ldrb	r3, [r7, #28]
 8001f9c:	f003 0301 	and.w	r3, r3, #1
 8001fa0:	2b00      	cmp	r3, #0
 8001fa2:	d004      	beq.n	8001fae <ush_buildin_cmd_echo_callback+0x86>
                        {
                                ush_print_status(self, USH_STATUS_ERROR_FILE_NOT_WRITABLE);
 8001fa4:	2108      	movs	r1, #8
 8001fa6:	68f8      	ldr	r0, [r7, #12]
 8001fa8:	f000 fd52 	bl	8002a50 <ush_print_status>
                                return;
 8001fac:	e05c      	b.n	8002068 <ush_buildin_cmd_echo_callback+0x140>
                        }
                        for (int i = 1; i < argc - 2; i++)
 8001fae:	2301      	movs	r3, #1
 8001fb0:	637b      	str	r3, [r7, #52]	; 0x34
 8001fb2:	e023      	b.n	8001ffc <ush_buildin_cmd_echo_callback+0xd4>
                        {
                            write_file(argv[argc - 1], argv[i]);
 8001fb4:	687b      	ldr	r3, [r7, #4]
 8001fb6:	f103 4380 	add.w	r3, r3, #1073741824	; 0x40000000
 8001fba:	3b01      	subs	r3, #1
 8001fbc:	009b      	lsls	r3, r3, #2
 8001fbe:	683a      	ldr	r2, [r7, #0]
 8001fc0:	4413      	add	r3, r2
 8001fc2:	6818      	ldr	r0, [r3, #0]
 8001fc4:	6b7b      	ldr	r3, [r7, #52]	; 0x34
 8001fc6:	009b      	lsls	r3, r3, #2
 8001fc8:	683a      	ldr	r2, [r7, #0]
 8001fca:	4413      	add	r3, r2
 8001fcc:	681b      	ldr	r3, [r3, #0]
 8001fce:	4619      	mov	r1, r3
 8001fd0:	f7fe fb70 	bl	80006b4 <write_file>
                                if (i < (argc - 2))
 8001fd4:	687b      	ldr	r3, [r7, #4]
 8001fd6:	3b02      	subs	r3, #2
 8001fd8:	6b7a      	ldr	r2, [r7, #52]	; 0x34
 8001fda:	429a      	cmp	r2, r3
 8001fdc:	da0b      	bge.n	8001ff6 <ush_buildin_cmd_echo_callback+0xce>
                                        write_file(argv[argc - 1], " ");
 8001fde:	687b      	ldr	r3, [r7, #4]
 8001fe0:	f103 4380 	add.w	r3, r3, #1073741824	; 0x40000000
 8001fe4:	3b01      	subs	r3, #1
 8001fe6:	009b      	lsls	r3, r3, #2
 8001fe8:	683a      	ldr	r2, [r7, #0]
 8001fea:	4413      	add	r3, r2
 8001fec:	681b      	ldr	r3, [r3, #0]
 8001fee:	4921      	ldr	r1, [pc, #132]	; (8002074 <ush_buildin_cmd_echo_callback+0x14c>)
 8001ff0:	4618      	mov	r0, r3
 8001ff2:	f7fe fb5f 	bl	80006b4 <write_file>
                        for (int i = 1; i < argc - 2; i++)
 8001ff6:	6b7b      	ldr	r3, [r7, #52]	; 0x34
 8001ff8:	3301      	adds	r3, #1
 8001ffa:	637b      	str	r3, [r7, #52]	; 0x34
 8001ffc:	687b      	ldr	r3, [r7, #4]
 8001ffe:	3b02      	subs	r3, #2
 8002000:	6b7a      	ldr	r2, [r7, #52]	; 0x34
 8002002:	429a      	cmp	r2, r3
 8002004:	dbd6      	blt.n	8001fb4 <ush_buildin_cmd_echo_callback+0x8c>
 8002006:	e02c      	b.n	8002062 <ush_buildin_cmd_echo_callback+0x13a>

                        }
                }
                else
                {
                        for (int i = 1; i < argc; i++)
 8002008:	2301      	movs	r3, #1
 800200a:	633b      	str	r3, [r7, #48]	; 0x30
 800200c:	e013      	b.n	8002036 <ush_buildin_cmd_echo_callback+0x10e>
                        {
                                printf("%s ", argv[i]);
 800200e:	6b3b      	ldr	r3, [r7, #48]	; 0x30
 8002010:	009b      	lsls	r3, r3, #2
 8002012:	683a      	ldr	r2, [r7, #0]
 8002014:	4413      	add	r3, r2
 8002016:	681b      	ldr	r3, [r3, #0]
 8002018:	4619      	mov	r1, r3
 800201a:	4817      	ldr	r0, [pc, #92]	; (8002078 <ush_buildin_cmd_echo_callback+0x150>)
 800201c:	f00b fd40 	bl	800daa0 <iprintf>
                                if (i == (argc - 1))
 8002020:	687b      	ldr	r3, [r7, #4]
 8002022:	3b01      	subs	r3, #1
 8002024:	6b3a      	ldr	r2, [r7, #48]	; 0x30
 8002026:	429a      	cmp	r2, r3
 8002028:	d102      	bne.n	8002030 <ush_buildin_cmd_echo_callback+0x108>
                                        printf("\r\n");
 800202a:	4814      	ldr	r0, [pc, #80]	; (800207c <ush_buildin_cmd_echo_callback+0x154>)
 800202c:	f00b fdbe 	bl	800dbac <puts>
                        for (int i = 1; i < argc; i++)
 8002030:	6b3b      	ldr	r3, [r7, #48]	; 0x30
 8002032:	3301      	adds	r3, #1
 8002034:	633b      	str	r3, [r7, #48]	; 0x30
 8002036:	6b3a      	ldr	r2, [r7, #48]	; 0x30
 8002038:	687b      	ldr	r3, [r7, #4]
 800203a:	429a      	cmp	r2, r3
 800203c:	dbe7      	blt.n	800200e <ush_buildin_cmd_echo_callback+0xe6>
 800203e:	e010      	b.n	8002062 <ush_buildin_cmd_echo_callback+0x13a>
                        }
                }
        }
        else if (argc >= 2)
 8002040:	687b      	ldr	r3, [r7, #4]
 8002042:	2b01      	cmp	r3, #1
 8002044:	dd0a      	ble.n	800205c <ush_buildin_cmd_echo_callback+0x134>
                printf("%s %s\r\n", argv[1], argv[2]);
 8002046:	683b      	ldr	r3, [r7, #0]
 8002048:	3304      	adds	r3, #4
 800204a:	6819      	ldr	r1, [r3, #0]
 800204c:	683b      	ldr	r3, [r7, #0]
 800204e:	3308      	adds	r3, #8
 8002050:	681b      	ldr	r3, [r3, #0]
 8002052:	461a      	mov	r2, r3
 8002054:	480a      	ldr	r0, [pc, #40]	; (8002080 <ush_buildin_cmd_echo_callback+0x158>)
 8002056:	f00b fd23 	bl	800daa0 <iprintf>
 800205a:	e002      	b.n	8002062 <ush_buildin_cmd_echo_callback+0x13a>
        else
                printf(" \r\n");
 800205c:	4809      	ldr	r0, [pc, #36]	; (8002084 <ush_buildin_cmd_echo_callback+0x15c>)
 800205e:	f00b fda5 	bl	800dbac <puts>

        self->state = USH_STATE_RESET_PROMPT;
 8002062:	68fb      	ldr	r3, [r7, #12]
 8002064:	2201      	movs	r2, #1
 8002066:	711a      	strb	r2, [r3, #4]
}
 8002068:	3738      	adds	r7, #56	; 0x38
 800206a:	46bd      	mov	sp, r7
 800206c:	bd80      	pop	{r7, pc}
 800206e:	bf00      	nop
 8002070:	0800e8b4 	.word	0x0800e8b4
 8002074:	0800e8b8 	.word	0x0800e8b8
 8002078:	0800e8bc 	.word	0x0800e8bc
 800207c:	0800e8c0 	.word	0x0800e8c0
 8002080:	0800e8c4 	.word	0x0800e8c4
 8002084:	0800e8cc 	.word	0x0800e8cc

08002088 <ush_buildin_cmd_head_callback>:

#if USH_CONFIG_ENABLE_FEATURE_COMMANDS == 1


void ush_buildin_cmd_head_callback(struct ush_object *self, struct ush_file_descriptor const *file, int argc, char *argv[])
{
 8002088:	b590      	push	{r4, r7, lr}
 800208a:	b08d      	sub	sp, #52	; 0x34
 800208c:	af00      	add	r7, sp, #0
 800208e:	60f8      	str	r0, [r7, #12]
 8002090:	60b9      	str	r1, [r7, #8]
 8002092:	607a      	str	r2, [r7, #4]
 8002094:	603b      	str	r3, [r7, #0]
	(void)file;
	        FILINFO Finfo;
	        FRESULT res;
	        if (argc != 3)
 8002096:	687b      	ldr	r3, [r7, #4]
 8002098:	2b03      	cmp	r3, #3
 800209a:	d004      	beq.n	80020a6 <ush_buildin_cmd_head_callback+0x1e>
	        {
	                ush_print_status(self, USH_STATUS_ERROR_COMMAND_WRONG_ARGUMENTS);
 800209c:	2106      	movs	r1, #6
 800209e:	68f8      	ldr	r0, [r7, #12]
 80020a0:	f000 fcd6 	bl	8002a50 <ush_print_status>
	                return;
 80020a4:	e02b      	b.n	80020fe <ush_buildin_cmd_head_callback+0x76>
	        }
	                res = f_stat(argv[2], &Finfo);
 80020a6:	683b      	ldr	r3, [r7, #0]
 80020a8:	3308      	adds	r3, #8
 80020aa:	681b      	ldr	r3, [r3, #0]
 80020ac:	f107 0214 	add.w	r2, r7, #20
 80020b0:	4611      	mov	r1, r2
 80020b2:	4618      	mov	r0, r3
 80020b4:	f007 fd6a 	bl	8009b8c <f_stat>
 80020b8:	4603      	mov	r3, r0
 80020ba:	f887 302f 	strb.w	r3, [r7, #47]	; 0x2f
	                if (res != FR_OK || (Finfo.fattrib & AM_DIR))
 80020be:	f897 302f 	ldrb.w	r3, [r7, #47]	; 0x2f
 80020c2:	2b00      	cmp	r3, #0
 80020c4:	d104      	bne.n	80020d0 <ush_buildin_cmd_head_callback+0x48>
 80020c6:	7f3b      	ldrb	r3, [r7, #28]
 80020c8:	f003 0310 	and.w	r3, r3, #16
 80020cc:	2b00      	cmp	r3, #0
 80020ce:	d004      	beq.n	80020da <ush_buildin_cmd_head_callback+0x52>
	                {
	                        ush_print_status(self, USH_STATUS_ERROR_FILE_NOT_FOUND);
 80020d0:	210b      	movs	r1, #11
 80020d2:	68f8      	ldr	r0, [r7, #12]
 80020d4:	f000 fcbc 	bl	8002a50 <ush_print_status>
	                        return;
 80020d8:	e011      	b.n	80020fe <ush_buildin_cmd_head_callback+0x76>
	                }
	                read_file_head(argv[2], atoi(argv[1]));
 80020da:	683b      	ldr	r3, [r7, #0]
 80020dc:	3308      	adds	r3, #8
 80020de:	681c      	ldr	r4, [r3, #0]
 80020e0:	683b      	ldr	r3, [r7, #0]
 80020e2:	3304      	adds	r3, #4
 80020e4:	681b      	ldr	r3, [r3, #0]
 80020e6:	4618      	mov	r0, r3
 80020e8:	f00a ff98 	bl	800d01c <atoi>
 80020ec:	4603      	mov	r3, r0
 80020ee:	4619      	mov	r1, r3
 80020f0:	4620      	mov	r0, r4
 80020f2:	f7fe fbcd 	bl	8000890 <read_file_head>
	        self->state = USH_STATE_RESET_PROMPT;
 80020f6:	68fb      	ldr	r3, [r7, #12]
 80020f8:	2201      	movs	r2, #1
 80020fa:	711a      	strb	r2, [r3, #4]
	        return;
 80020fc:	bf00      	nop
	}
 80020fe:	3734      	adds	r7, #52	; 0x34
 8002100:	46bd      	mov	sp, r7
 8002102:	bd90      	pop	{r4, r7, pc}

08002104 <ush_buildin_cmd_help_callback>:
#if USH_CONFIG_ENABLE_FEATURE_COMMANDS == 1

#if USH_CONFIG_ENABLE_COMMAND_HELP == 1

void ush_buildin_cmd_help_callback(struct ush_object *self, struct ush_file_descriptor const *file, int argc, char *argv[])
{
 8002104:	b580      	push	{r7, lr}
 8002106:	b086      	sub	sp, #24
 8002108:	af00      	add	r7, sp, #0
 800210a:	60f8      	str	r0, [r7, #12]
 800210c:	60b9      	str	r1, [r7, #8]
 800210e:	607a      	str	r2, [r7, #4]
 8002110:	603b      	str	r3, [r7, #0]
        (void)file;

        switch (argc)
 8002112:	687b      	ldr	r3, [r7, #4]
 8002114:	2b01      	cmp	r3, #1
 8002116:	d003      	beq.n	8002120 <ush_buildin_cmd_help_callback+0x1c>
 8002118:	687b      	ldr	r3, [r7, #4]
 800211a:	2b02      	cmp	r3, #2
 800211c:	d021      	beq.n	8002162 <ush_buildin_cmd_help_callback+0x5e>
 800211e:	e040      	b.n	80021a2 <ush_buildin_cmd_help_callback+0x9e>
        {
        case 1:
                for (size_t i = 0; i < g_ush_buildin_commands_num; i++)
 8002120:	2300      	movs	r3, #0
 8002122:	617b      	str	r3, [r7, #20]
 8002124:	e017      	b.n	8002156 <ush_buildin_cmd_help_callback+0x52>
                {
                        printf("%-" USH_STRING(USH_CONFIG_FILENAME_ALIGN_SPACE) "s " USH_SHELL_FONT_COLOR_YELLOW "- %s \r\n" USH_SHELL_FONT_COLOR_WHITE, (char *)g_ush_buildin_commands[i].name, (char *)g_ush_buildin_commands[i].description);
 8002126:	4923      	ldr	r1, [pc, #140]	; (80021b4 <ush_buildin_cmd_help_callback+0xb0>)
 8002128:	697a      	ldr	r2, [r7, #20]
 800212a:	4613      	mov	r3, r2
 800212c:	00db      	lsls	r3, r3, #3
 800212e:	1a9b      	subs	r3, r3, r2
 8002130:	009b      	lsls	r3, r3, #2
 8002132:	440b      	add	r3, r1
 8002134:	6819      	ldr	r1, [r3, #0]
 8002136:	481f      	ldr	r0, [pc, #124]	; (80021b4 <ush_buildin_cmd_help_callback+0xb0>)
 8002138:	697a      	ldr	r2, [r7, #20]
 800213a:	4613      	mov	r3, r2
 800213c:	00db      	lsls	r3, r3, #3
 800213e:	1a9b      	subs	r3, r3, r2
 8002140:	009b      	lsls	r3, r3, #2
 8002142:	4403      	add	r3, r0
 8002144:	3304      	adds	r3, #4
 8002146:	681b      	ldr	r3, [r3, #0]
 8002148:	461a      	mov	r2, r3
 800214a:	481b      	ldr	r0, [pc, #108]	; (80021b8 <ush_buildin_cmd_help_callback+0xb4>)
 800214c:	f00b fca8 	bl	800daa0 <iprintf>
                for (size_t i = 0; i < g_ush_buildin_commands_num; i++)
 8002150:	697b      	ldr	r3, [r7, #20]
 8002152:	3301      	adds	r3, #1
 8002154:	617b      	str	r3, [r7, #20]
 8002156:	4b19      	ldr	r3, [pc, #100]	; (80021bc <ush_buildin_cmd_help_callback+0xb8>)
 8002158:	681b      	ldr	r3, [r3, #0]
 800215a:	697a      	ldr	r2, [r7, #20]
 800215c:	429a      	cmp	r2, r3
 800215e:	d3e2      	bcc.n	8002126 <ush_buildin_cmd_help_callback+0x22>
                }
                break;
 8002160:	e024      	b.n	80021ac <ush_buildin_cmd_help_callback+0xa8>
        case 2:
        {
                struct ush_file_descriptor const *f = ush_file_find_by_name(self, argv[1]);
 8002162:	683b      	ldr	r3, [r7, #0]
 8002164:	3304      	adds	r3, #4
 8002166:	681b      	ldr	r3, [r3, #0]
 8002168:	4619      	mov	r1, r3
 800216a:	68f8      	ldr	r0, [r7, #12]
 800216c:	f000 fd2a 	bl	8002bc4 <ush_file_find_by_name>
 8002170:	6138      	str	r0, [r7, #16]
                if (f == NULL)
 8002172:	693b      	ldr	r3, [r7, #16]
 8002174:	2b00      	cmp	r3, #0
 8002176:	d104      	bne.n	8002182 <ush_buildin_cmd_help_callback+0x7e>
                {
                        ush_print_status(self, USH_STATUS_ERROR_FILE_NOT_FOUND);
 8002178:	210b      	movs	r1, #11
 800217a:	68f8      	ldr	r0, [r7, #12]
 800217c:	f000 fc68 	bl	8002a50 <ush_print_status>
                        return;
 8002180:	e014      	b.n	80021ac <ush_buildin_cmd_help_callback+0xa8>
                }
                if (f->help == NULL)
 8002182:	693b      	ldr	r3, [r7, #16]
 8002184:	689b      	ldr	r3, [r3, #8]
 8002186:	2b00      	cmp	r3, #0
 8002188:	d104      	bne.n	8002194 <ush_buildin_cmd_help_callback+0x90>
                {
                        ush_print_status(self, USH_STATUS_ERROR_FILE_NO_HELP);
 800218a:	210a      	movs	r1, #10
 800218c:	68f8      	ldr	r0, [r7, #12]
 800218e:	f000 fc5f 	bl	8002a50 <ush_print_status>
                        return;
 8002192:	e00b      	b.n	80021ac <ush_buildin_cmd_help_callback+0xa8>
                }
                printf("%s", f->help);
 8002194:	693b      	ldr	r3, [r7, #16]
 8002196:	689b      	ldr	r3, [r3, #8]
 8002198:	4619      	mov	r1, r3
 800219a:	4809      	ldr	r0, [pc, #36]	; (80021c0 <ush_buildin_cmd_help_callback+0xbc>)
 800219c:	f00b fc80 	bl	800daa0 <iprintf>
                break;
 80021a0:	e004      	b.n	80021ac <ush_buildin_cmd_help_callback+0xa8>
        }
        default:
                ush_print_status(self, USH_STATUS_ERROR_COMMAND_WRONG_ARGUMENTS);
 80021a2:	2106      	movs	r1, #6
 80021a4:	68f8      	ldr	r0, [r7, #12]
 80021a6:	f000 fc53 	bl	8002a50 <ush_print_status>
                break;
 80021aa:	bf00      	nop
        }
}
 80021ac:	3718      	adds	r7, #24
 80021ae:	46bd      	mov	sp, r7
 80021b0:	bd80      	pop	{r7, pc}
 80021b2:	bf00      	nop
 80021b4:	0800ee30 	.word	0x0800ee30
 80021b8:	0800e8d0 	.word	0x0800e8d0
 80021bc:	0800eff0 	.word	0x0800eff0
 80021c0:	0800e8e8 	.word	0x0800e8e8

080021c4 <ush_buildin_cmd_ls_callback>:
#if USH_CONFIG_ENABLE_FEATURE_COMMANDS == 1

#if USH_CONFIG_ENABLE_COMMAND_LS == 1

void ush_buildin_cmd_ls_callback(struct ush_object *self, struct ush_file_descriptor const *file, int argc, char *argv[])
{
 80021c4:	b580      	push	{r7, lr}
 80021c6:	b098      	sub	sp, #96	; 0x60
 80021c8:	af00      	add	r7, sp, #0
 80021ca:	60f8      	str	r0, [r7, #12]
 80021cc:	60b9      	str	r1, [r7, #8]
 80021ce:	607a      	str	r2, [r7, #4]
 80021d0:	603b      	str	r3, [r7, #0]
	(void)file;
		DIR Dir; /* Directory object */
		FILINFO Finfo;
		FRESULT res;
	switch (argc)
 80021d2:	687b      	ldr	r3, [r7, #4]
 80021d4:	2b01      	cmp	r3, #1
 80021d6:	d003      	beq.n	80021e0 <ush_buildin_cmd_ls_callback+0x1c>
 80021d8:	687b      	ldr	r3, [r7, #4]
 80021da:	2b02      	cmp	r3, #2
 80021dc:	d005      	beq.n	80021ea <ush_buildin_cmd_ls_callback+0x26>
 80021de:	e009      	b.n	80021f4 <ush_buildin_cmd_ls_callback+0x30>
	{
	case 1:
		self->path = self->curr_dir;
 80021e0:	68fb      	ldr	r3, [r7, #12]
 80021e2:	6c9a      	ldr	r2, [r3, #72]	; 0x48
 80021e4:	68fb      	ldr	r3, [r7, #12]
 80021e6:	64da      	str	r2, [r3, #76]	; 0x4c
		break;
 80021e8:	e009      	b.n	80021fe <ush_buildin_cmd_ls_callback+0x3a>
	case 2:
	{
		self->path = argv[1];
 80021ea:	683b      	ldr	r3, [r7, #0]
 80021ec:	685a      	ldr	r2, [r3, #4]
 80021ee:	68fb      	ldr	r3, [r7, #12]
 80021f0:	64da      	str	r2, [r3, #76]	; 0x4c
		break;
 80021f2:	e004      	b.n	80021fe <ush_buildin_cmd_ls_callback+0x3a>
	}
	default:
		ush_print_status(self, USH_STATUS_ERROR_COMMAND_WRONG_ARGUMENTS);
 80021f4:	2106      	movs	r1, #6
 80021f6:	68f8      	ldr	r0, [r7, #12]
 80021f8:	f000 fc2a 	bl	8002a50 <ush_print_status>
		return;
 80021fc:	e044      	b.n	8002288 <ush_buildin_cmd_ls_callback+0xc4>
	}

	if ((res = f_opendir(&Dir, self->path)) != FR_OK)
 80021fe:	68fb      	ldr	r3, [r7, #12]
 8002200:	6cda      	ldr	r2, [r3, #76]	; 0x4c
 8002202:	f107 0328 	add.w	r3, r7, #40	; 0x28
 8002206:	4611      	mov	r1, r2
 8002208:	4618      	mov	r0, r3
 800220a:	f007 fbd8 	bl	80099be <f_opendir>
 800220e:	4603      	mov	r3, r0
 8002210:	f887 305f 	strb.w	r3, [r7, #95]	; 0x5f
 8002214:	f897 305f 	ldrb.w	r3, [r7, #95]	; 0x5f
 8002218:	2b00      	cmp	r3, #0
 800221a:	d006      	beq.n	800222a <ush_buildin_cmd_ls_callback+0x66>
		{
			printf("ls command error ! \r\n");
 800221c:	481c      	ldr	r0, [pc, #112]	; (8002290 <ush_buildin_cmd_ls_callback+0xcc>)
 800221e:	f00b fcc5 	bl	800dbac <puts>
			self->state = USH_STATE_RESET_PROMPT;
 8002222:	68fb      	ldr	r3, [r7, #12]
 8002224:	2201      	movs	r2, #1
 8002226:	711a      	strb	r2, [r3, #4]
			return;
 8002228:	e02e      	b.n	8002288 <ush_buildin_cmd_ls_callback+0xc4>
		}
		for (;;)
		{
			res = f_readdir(&Dir, &Finfo);
 800222a:	f107 0210 	add.w	r2, r7, #16
 800222e:	f107 0328 	add.w	r3, r7, #40	; 0x28
 8002232:	4611      	mov	r1, r2
 8002234:	4618      	mov	r0, r3
 8002236:	f007 fc66 	bl	8009b06 <f_readdir>
 800223a:	4603      	mov	r3, r0
 800223c:	f887 305f 	strb.w	r3, [r7, #95]	; 0x5f
			if ((res != FR_OK) || (!Finfo.fname[0]))
 8002240:	f897 305f 	ldrb.w	r3, [r7, #95]	; 0x5f
 8002244:	2b00      	cmp	r3, #0
 8002246:	d116      	bne.n	8002276 <ush_buildin_cmd_ls_callback+0xb2>
 8002248:	7e7b      	ldrb	r3, [r7, #25]
 800224a:	2b00      	cmp	r3, #0
 800224c:	d013      	beq.n	8002276 <ush_buildin_cmd_ls_callback+0xb2>
				break;
			if (strcmp(Finfo.fname, "SYSTEM~1\0") == 0)
 800224e:	f107 0310 	add.w	r3, r7, #16
 8002252:	3309      	adds	r3, #9
 8002254:	490f      	ldr	r1, [pc, #60]	; (8002294 <ush_buildin_cmd_ls_callback+0xd0>)
 8002256:	4618      	mov	r0, r3
 8002258:	f7fd ffda 	bl	8000210 <strcmp>
 800225c:	4603      	mov	r3, r0
 800225e:	2b00      	cmp	r3, #0
 8002260:	d007      	beq.n	8002272 <ush_buildin_cmd_ls_callback+0xae>
//				   (Finfo.fattrib & AM_RDO) ? 'R' : '-',
//				   (Finfo.fattrib & AM_HID) ? 'H' : '-',
//				   (Finfo.fattrib & AM_SYS) ? 'S' : '-',
//				   (Finfo.fattrib & AM_ARC) ? 'A' : '-',
//				   Finfo.fname);
			printf("%s \r\n",Finfo.fname);
 8002262:	f107 0310 	add.w	r3, r7, #16
 8002266:	3309      	adds	r3, #9
 8002268:	4619      	mov	r1, r3
 800226a:	480b      	ldr	r0, [pc, #44]	; (8002298 <ush_buildin_cmd_ls_callback+0xd4>)
 800226c:	f00b fc18 	bl	800daa0 <iprintf>
 8002270:	e7db      	b.n	800222a <ush_buildin_cmd_ls_callback+0x66>
				continue;
 8002272:	bf00      	nop
			res = f_readdir(&Dir, &Finfo);
 8002274:	e7d9      	b.n	800222a <ush_buildin_cmd_ls_callback+0x66>
		}
		f_closedir(&Dir);
 8002276:	f107 0328 	add.w	r3, r7, #40	; 0x28
 800227a:	4618      	mov	r0, r3
 800227c:	f007 fc18 	bl	8009ab0 <f_closedir>
		self->state = USH_STATE_RESET_PROMPT;
 8002280:	68fb      	ldr	r3, [r7, #12]
 8002282:	2201      	movs	r2, #1
 8002284:	711a      	strb	r2, [r3, #4]
		return;
 8002286:	bf00      	nop
}
 8002288:	3760      	adds	r7, #96	; 0x60
 800228a:	46bd      	mov	sp, r7
 800228c:	bd80      	pop	{r7, pc}
 800228e:	bf00      	nop
 8002290:	0800e8ec 	.word	0x0800e8ec
 8002294:	0800e904 	.word	0x0800e904
 8002298:	0800e910 	.word	0x0800e910

0800229c <ush_buildin_cmd_mkdir_callback>:
#include <string.h>

#if USH_CONFIG_ENABLE_FEATURE_COMMANDS == 1

void ush_buildin_cmd_mkdir_callback(struct ush_object *self, struct ush_file_descriptor const *file, int argc, char *argv[])
{
 800229c:	b580      	push	{r7, lr}
 800229e:	b090      	sub	sp, #64	; 0x40
 80022a0:	af00      	add	r7, sp, #0
 80022a2:	60f8      	str	r0, [r7, #12]
 80022a4:	60b9      	str	r1, [r7, #8]
 80022a6:	607a      	str	r2, [r7, #4]
 80022a8:	603b      	str	r3, [r7, #0]
	//(void)file;
	FRESULT res;
	int i;
	char path[40];
	if (argc < 2)
 80022aa:	687b      	ldr	r3, [r7, #4]
 80022ac:	2b01      	cmp	r3, #1
 80022ae:	dc04      	bgt.n	80022ba <ush_buildin_cmd_mkdir_callback+0x1e>
	{
		ush_print_status(self, USH_STATUS_ERROR_COMMAND_WRONG_ARGUMENTS);
 80022b0:	2106      	movs	r1, #6
 80022b2:	68f8      	ldr	r0, [r7, #12]
 80022b4:	f000 fbcc 	bl	8002a50 <ush_print_status>
		return;
 80022b8:	e03e      	b.n	8002338 <ush_buildin_cmd_mkdir_callback+0x9c>
	}

	for (i = 1; i < argc; i++)
 80022ba:	2301      	movs	r3, #1
 80022bc:	63fb      	str	r3, [r7, #60]	; 0x3c
 80022be:	e033      	b.n	8002328 <ush_buildin_cmd_mkdir_callback+0x8c>
	{
		strcpy(path, self->curr_dir);
 80022c0:	68fb      	ldr	r3, [r7, #12]
 80022c2:	6c9a      	ldr	r2, [r3, #72]	; 0x48
 80022c4:	f107 0310 	add.w	r3, r7, #16
 80022c8:	4611      	mov	r1, r2
 80022ca:	4618      	mov	r0, r3
 80022cc:	f00b fd42 	bl	800dd54 <strcpy>
		strcat(path, "/");
 80022d0:	f107 0310 	add.w	r3, r7, #16
 80022d4:	4618      	mov	r0, r3
 80022d6:	f7fd ffa5 	bl	8000224 <strlen>
 80022da:	4603      	mov	r3, r0
 80022dc:	461a      	mov	r2, r3
 80022de:	f107 0310 	add.w	r3, r7, #16
 80022e2:	4413      	add	r3, r2
 80022e4:	4916      	ldr	r1, [pc, #88]	; (8002340 <ush_buildin_cmd_mkdir_callback+0xa4>)
 80022e6:	461a      	mov	r2, r3
 80022e8:	460b      	mov	r3, r1
 80022ea:	881b      	ldrh	r3, [r3, #0]
 80022ec:	8013      	strh	r3, [r2, #0]
		strcat(path, argv[i]);
 80022ee:	6bfb      	ldr	r3, [r7, #60]	; 0x3c
 80022f0:	009b      	lsls	r3, r3, #2
 80022f2:	683a      	ldr	r2, [r7, #0]
 80022f4:	4413      	add	r3, r2
 80022f6:	681a      	ldr	r2, [r3, #0]
 80022f8:	f107 0310 	add.w	r3, r7, #16
 80022fc:	4611      	mov	r1, r2
 80022fe:	4618      	mov	r0, r3
 8002300:	f00b fd19 	bl	800dd36 <strcat>
		res = f_mkdir(path);
 8002304:	f107 0310 	add.w	r3, r7, #16
 8002308:	4618      	mov	r0, r3
 800230a:	f007 fd47 	bl	8009d9c <f_mkdir>
 800230e:	4603      	mov	r3, r0
 8002310:	f887 303b 	strb.w	r3, [r7, #59]	; 0x3b
		if (res != FR_OK)
 8002314:	f897 303b 	ldrb.w	r3, [r7, #59]	; 0x3b
 8002318:	2b00      	cmp	r3, #0
 800231a:	d002      	beq.n	8002322 <ush_buildin_cmd_mkdir_callback+0x86>
			printf("mkdir command error !\n\r");
 800231c:	4809      	ldr	r0, [pc, #36]	; (8002344 <ush_buildin_cmd_mkdir_callback+0xa8>)
 800231e:	f00b fbbf 	bl	800daa0 <iprintf>
	for (i = 1; i < argc; i++)
 8002322:	6bfb      	ldr	r3, [r7, #60]	; 0x3c
 8002324:	3301      	adds	r3, #1
 8002326:	63fb      	str	r3, [r7, #60]	; 0x3c
 8002328:	6bfa      	ldr	r2, [r7, #60]	; 0x3c
 800232a:	687b      	ldr	r3, [r7, #4]
 800232c:	429a      	cmp	r2, r3
 800232e:	dbc7      	blt.n	80022c0 <ush_buildin_cmd_mkdir_callback+0x24>
	}
	self->state = USH_STATE_RESET_PROMPT;
 8002330:	68fb      	ldr	r3, [r7, #12]
 8002332:	2201      	movs	r2, #1
 8002334:	711a      	strb	r2, [r3, #4]
	return;
 8002336:	bf00      	nop
}
 8002338:	3740      	adds	r7, #64	; 0x40
 800233a:	46bd      	mov	sp, r7
 800233c:	bd80      	pop	{r7, pc}
 800233e:	bf00      	nop
 8002340:	0800e918 	.word	0x0800e918
 8002344:	0800e91c 	.word	0x0800e91c

08002348 <ush_buildin_cmd_mv_callback>:
#include <string.h>

#if USH_CONFIG_ENABLE_FEATURE_COMMANDS == 1

void ush_buildin_cmd_mv_callback(struct ush_object *self, struct ush_file_descriptor const *file, int argc, char *argv[])
{
 8002348:	b580      	push	{r7, lr}
 800234a:	b08c      	sub	sp, #48	; 0x30
 800234c:	af00      	add	r7, sp, #0
 800234e:	60f8      	str	r0, [r7, #12]
 8002350:	60b9      	str	r1, [r7, #8]
 8002352:	607a      	str	r2, [r7, #4]
 8002354:	603b      	str	r3, [r7, #0]
	(void)file;
	FRESULT res;
	int i;
	char path[20];
	if (argc < 3)
 8002356:	687b      	ldr	r3, [r7, #4]
 8002358:	2b02      	cmp	r3, #2
 800235a:	dc04      	bgt.n	8002366 <ush_buildin_cmd_mv_callback+0x1e>
	{
		ush_print_status(self, USH_STATUS_ERROR_COMMAND_WRONG_ARGUMENTS);
 800235c:	2106      	movs	r1, #6
 800235e:	68f8      	ldr	r0, [r7, #12]
 8002360:	f000 fb76 	bl	8002a50 <ush_print_status>
 8002364:	e088      	b.n	8002478 <ush_buildin_cmd_mv_callback+0x130>
		return;
	}
	res = f_stat(argv[argc - 1], &Finfo);
 8002366:	687b      	ldr	r3, [r7, #4]
 8002368:	f103 4380 	add.w	r3, r3, #1073741824	; 0x40000000
 800236c:	3b01      	subs	r3, #1
 800236e:	009b      	lsls	r3, r3, #2
 8002370:	683a      	ldr	r2, [r7, #0]
 8002372:	4413      	add	r3, r2
 8002374:	681b      	ldr	r3, [r3, #0]
 8002376:	4942      	ldr	r1, [pc, #264]	; (8002480 <ush_buildin_cmd_mv_callback+0x138>)
 8002378:	4618      	mov	r0, r3
 800237a:	f007 fc07 	bl	8009b8c <f_stat>
 800237e:	4603      	mov	r3, r0
 8002380:	f887 302b 	strb.w	r3, [r7, #43]	; 0x2b
	if (res != FR_OK )
 8002384:	f897 302b 	ldrb.w	r3, [r7, #43]	; 0x2b
 8002388:	2b00      	cmp	r3, #0
 800238a:	d025      	beq.n	80023d8 <ush_buildin_cmd_mv_callback+0x90>
	                {
		for (i = 1; i < argc - 1; i++)
 800238c:	2301      	movs	r3, #1
 800238e:	62fb      	str	r3, [r7, #44]	; 0x2c
 8002390:	e01c      	b.n	80023cc <ush_buildin_cmd_mv_callback+0x84>
			{
				if ((res = f_rename(argv[i], argv[argc - 1])) != FR_OK)
 8002392:	6afb      	ldr	r3, [r7, #44]	; 0x2c
 8002394:	009b      	lsls	r3, r3, #2
 8002396:	683a      	ldr	r2, [r7, #0]
 8002398:	4413      	add	r3, r2
 800239a:	6818      	ldr	r0, [r3, #0]
 800239c:	687b      	ldr	r3, [r7, #4]
 800239e:	f103 4380 	add.w	r3, r3, #1073741824	; 0x40000000
 80023a2:	3b01      	subs	r3, #1
 80023a4:	009b      	lsls	r3, r3, #2
 80023a6:	683a      	ldr	r2, [r7, #0]
 80023a8:	4413      	add	r3, r2
 80023aa:	681b      	ldr	r3, [r3, #0]
 80023ac:	4619      	mov	r1, r3
 80023ae:	f007 ff0b 	bl	800a1c8 <f_rename>
 80023b2:	4603      	mov	r3, r0
 80023b4:	f887 302b 	strb.w	r3, [r7, #43]	; 0x2b
 80023b8:	f897 302b 	ldrb.w	r3, [r7, #43]	; 0x2b
 80023bc:	2b00      	cmp	r3, #0
 80023be:	d002      	beq.n	80023c6 <ush_buildin_cmd_mv_callback+0x7e>
				{
					printf("mv command error! \r\n");
 80023c0:	4830      	ldr	r0, [pc, #192]	; (8002484 <ush_buildin_cmd_mv_callback+0x13c>)
 80023c2:	f00b fbf3 	bl	800dbac <puts>
		for (i = 1; i < argc - 1; i++)
 80023c6:	6afb      	ldr	r3, [r7, #44]	; 0x2c
 80023c8:	3301      	adds	r3, #1
 80023ca:	62fb      	str	r3, [r7, #44]	; 0x2c
 80023cc:	687b      	ldr	r3, [r7, #4]
 80023ce:	3b01      	subs	r3, #1
 80023d0:	6afa      	ldr	r2, [r7, #44]	; 0x2c
 80023d2:	429a      	cmp	r2, r3
 80023d4:	dbdd      	blt.n	8002392 <ush_buildin_cmd_mv_callback+0x4a>
 80023d6:	e04c      	b.n	8002472 <ush_buildin_cmd_mv_callback+0x12a>
				}
			}
	 }
	else
	{
		for (i = 1; i < argc - 1; i++)
 80023d8:	2301      	movs	r3, #1
 80023da:	62fb      	str	r3, [r7, #44]	; 0x2c
 80023dc:	e044      	b.n	8002468 <ush_buildin_cmd_mv_callback+0x120>
					{
			strcpy(path, argv[argc - 1]);
 80023de:	687b      	ldr	r3, [r7, #4]
 80023e0:	f103 4380 	add.w	r3, r3, #1073741824	; 0x40000000
 80023e4:	3b01      	subs	r3, #1
 80023e6:	009b      	lsls	r3, r3, #2
 80023e8:	683a      	ldr	r2, [r7, #0]
 80023ea:	4413      	add	r3, r2
 80023ec:	681a      	ldr	r2, [r3, #0]
 80023ee:	f107 0314 	add.w	r3, r7, #20
 80023f2:	4611      	mov	r1, r2
 80023f4:	4618      	mov	r0, r3
 80023f6:	f00b fcad 	bl	800dd54 <strcpy>
			strcat(path, "/");
 80023fa:	f107 0314 	add.w	r3, r7, #20
 80023fe:	4618      	mov	r0, r3
 8002400:	f7fd ff10 	bl	8000224 <strlen>
 8002404:	4603      	mov	r3, r0
 8002406:	461a      	mov	r2, r3
 8002408:	f107 0314 	add.w	r3, r7, #20
 800240c:	4413      	add	r3, r2
 800240e:	491e      	ldr	r1, [pc, #120]	; (8002488 <ush_buildin_cmd_mv_callback+0x140>)
 8002410:	461a      	mov	r2, r3
 8002412:	460b      	mov	r3, r1
 8002414:	881b      	ldrh	r3, [r3, #0]
 8002416:	8013      	strh	r3, [r2, #0]
			strcat(path, argv[i]);
 8002418:	6afb      	ldr	r3, [r7, #44]	; 0x2c
 800241a:	009b      	lsls	r3, r3, #2
 800241c:	683a      	ldr	r2, [r7, #0]
 800241e:	4413      	add	r3, r2
 8002420:	681a      	ldr	r2, [r3, #0]
 8002422:	f107 0314 	add.w	r3, r7, #20
 8002426:	4611      	mov	r1, r2
 8002428:	4618      	mov	r0, r3
 800242a:	f00b fc84 	bl	800dd36 <strcat>
			if (res = f_rename(argv[i], path) != FR_OK)
 800242e:	6afb      	ldr	r3, [r7, #44]	; 0x2c
 8002430:	009b      	lsls	r3, r3, #2
 8002432:	683a      	ldr	r2, [r7, #0]
 8002434:	4413      	add	r3, r2
 8002436:	681b      	ldr	r3, [r3, #0]
 8002438:	f107 0214 	add.w	r2, r7, #20
 800243c:	4611      	mov	r1, r2
 800243e:	4618      	mov	r0, r3
 8002440:	f007 fec2 	bl	800a1c8 <f_rename>
 8002444:	4603      	mov	r3, r0
 8002446:	2b00      	cmp	r3, #0
 8002448:	bf14      	ite	ne
 800244a:	2301      	movne	r3, #1
 800244c:	2300      	moveq	r3, #0
 800244e:	b2db      	uxtb	r3, r3
 8002450:	f887 302b 	strb.w	r3, [r7, #43]	; 0x2b
 8002454:	f897 302b 	ldrb.w	r3, [r7, #43]	; 0x2b
 8002458:	2b00      	cmp	r3, #0
 800245a:	d002      	beq.n	8002462 <ush_buildin_cmd_mv_callback+0x11a>
			{
					printf("mv command error! \r\n");
 800245c:	4809      	ldr	r0, [pc, #36]	; (8002484 <ush_buildin_cmd_mv_callback+0x13c>)
